{
  "_format": "hh-sol-artifact-1",
  "contractName": "Bike",
  "sourceName": "contracts/Bike.sol",
  "abi": [
    {
      "inputs": [
        {
          "internalType": "address",
          "name": "owner",
          "type": "address"
        },
        {
          "internalType": "uint256",
          "name": "_supply",
          "type": "uint256"
        }
      ],
      "stateMutability": "nonpayable",
      "type": "constructor"
    },
    {
      "anonymous": false,
      "inputs": [
        {
          "indexed": true,
          "internalType": "address",
          "name": "owner",
          "type": "address"
        },
        {
          "indexed": true,
          "internalType": "address",
          "name": "approved",
          "type": "address"
        },
        {
          "indexed": true,
          "internalType": "uint256",
          "name": "tokenId",
          "type": "uint256"
        }
      ],
      "name": "Approval",
      "type": "event"
    },
    {
      "anonymous": false,
      "inputs": [
        {
          "indexed": true,
          "internalType": "address",
          "name": "owner",
          "type": "address"
        },
        {
          "indexed": true,
          "internalType": "address",
          "name": "operator",
          "type": "address"
        },
        {
          "indexed": false,
          "internalType": "bool",
          "name": "approved",
          "type": "bool"
        }
      ],
      "name": "ApprovalForAll",
      "type": "event"
    },
    {
      "anonymous": false,
      "inputs": [
        {
          "indexed": true,
          "internalType": "address",
          "name": "previousOwner",
          "type": "address"
        },
        {
          "indexed": true,
          "internalType": "address",
          "name": "newOwner",
          "type": "address"
        }
      ],
      "name": "OwnershipTransferred",
      "type": "event"
    },
    {
      "anonymous": false,
      "inputs": [
        {
          "indexed": false,
          "internalType": "address",
          "name": "account",
          "type": "address"
        }
      ],
      "name": "Paused",
      "type": "event"
    },
    {
      "anonymous": false,
      "inputs": [
        {
          "indexed": true,
          "internalType": "address",
          "name": "from",
          "type": "address"
        },
        {
          "indexed": true,
          "internalType": "address",
          "name": "to",
          "type": "address"
        },
        {
          "indexed": true,
          "internalType": "uint256",
          "name": "tokenId",
          "type": "uint256"
        }
      ],
      "name": "Transfer",
      "type": "event"
    },
    {
      "anonymous": false,
      "inputs": [
        {
          "indexed": false,
          "internalType": "address",
          "name": "account",
          "type": "address"
        }
      ],
      "name": "Unpaused",
      "type": "event"
    },
    {
      "inputs": [
        {
          "internalType": "address",
          "name": "to",
          "type": "address"
        },
        {
          "internalType": "uint256",
          "name": "tokenId",
          "type": "uint256"
        }
      ],
      "name": "approve",
      "outputs": [],
      "stateMutability": "nonpayable",
      "type": "function"
    },
    {
      "inputs": [
        {
          "internalType": "address",
          "name": "owner",
          "type": "address"
        }
      ],
      "name": "balanceOf",
      "outputs": [
        {
          "internalType": "uint256",
          "name": "",
          "type": "uint256"
        }
      ],
      "stateMutability": "view",
      "type": "function"
    },
    {
      "inputs": [],
      "name": "baseURI",
      "outputs": [
        {
          "internalType": "string",
          "name": "",
          "type": "string"
        }
      ],
      "stateMutability": "view",
      "type": "function"
    },
    {
      "inputs": [
        {
          "internalType": "uint256",
          "name": "tokenId",
          "type": "uint256"
        }
      ],
      "name": "burn",
      "outputs": [],
      "stateMutability": "nonpayable",
      "type": "function"
    },
    {
      "inputs": [],
      "name": "contractURI",
      "outputs": [
        {
          "internalType": "string",
          "name": "",
          "type": "string"
        }
      ],
      "stateMutability": "pure",
      "type": "function"
    },
    {
      "inputs": [
        {
          "internalType": "uint256",
          "name": "tokenId",
          "type": "uint256"
        }
      ],
      "name": "getApproved",
      "outputs": [
        {
          "internalType": "address",
          "name": "",
          "type": "address"
        }
      ],
      "stateMutability": "view",
      "type": "function"
    },
    {
      "inputs": [],
      "name": "getFee",
      "outputs": [
        {
          "internalType": "uint256",
          "name": "",
          "type": "uint256"
        }
      ],
      "stateMutability": "view",
      "type": "function"
    },
    {
      "inputs": [
        {
          "internalType": "address",
          "name": "owner",
          "type": "address"
        },
        {
          "internalType": "address",
          "name": "operator",
          "type": "address"
        }
      ],
      "name": "isApprovedForAll",
      "outputs": [
        {
          "internalType": "bool",
          "name": "",
          "type": "bool"
        }
      ],
      "stateMutability": "view",
      "type": "function"
    },
    {
      "inputs": [],
      "name": "name",
      "outputs": [
        {
          "internalType": "string",
          "name": "",
          "type": "string"
        }
      ],
      "stateMutability": "view",
      "type": "function"
    },
    {
      "inputs": [],
      "name": "owner",
      "outputs": [
        {
          "internalType": "address",
          "name": "",
          "type": "address"
        }
      ],
      "stateMutability": "view",
      "type": "function"
    },
    {
      "inputs": [
        {
          "internalType": "uint256",
          "name": "tokenId",
          "type": "uint256"
        }
      ],
      "name": "ownerOf",
      "outputs": [
        {
          "internalType": "address",
          "name": "",
          "type": "address"
        }
      ],
      "stateMutability": "view",
      "type": "function"
    },
    {
      "inputs": [],
      "name": "pause",
      "outputs": [],
      "stateMutability": "nonpayable",
      "type": "function"
    },
    {
      "inputs": [],
      "name": "paused",
      "outputs": [
        {
          "internalType": "bool",
          "name": "",
          "type": "bool"
        }
      ],
      "stateMutability": "view",
      "type": "function"
    },
    {
      "inputs": [],
      "name": "renounceOwnership",
      "outputs": [],
      "stateMutability": "nonpayable",
      "type": "function"
    },
    {
      "inputs": [
        {
          "internalType": "uint256",
          "name": "_tokenId",
          "type": "uint256"
        },
        {
          "internalType": "uint256",
          "name": "_salePrice",
          "type": "uint256"
        }
      ],
      "name": "royaltyInfo",
      "outputs": [
        {
          "internalType": "address",
          "name": "",
          "type": "address"
        },
        {
          "internalType": "uint256",
          "name": "",
          "type": "uint256"
        }
      ],
      "stateMutability": "view",
      "type": "function"
    },
    {
      "inputs": [
        {
          "internalType": "address",
          "name": "to",
          "type": "address"
        }
      ],
      "name": "safeMint",
      "outputs": [],
      "stateMutability": "payable",
      "type": "function"
    },
    {
      "inputs": [
        {
          "internalType": "address",
          "name": "to",
          "type": "address"
        },
        {
          "internalType": "uint256",
          "name": "amount",
          "type": "uint256"
        }
      ],
      "name": "safeMintMany",
      "outputs": [],
      "stateMutability": "payable",
      "type": "function"
    },
    {
      "inputs": [
        {
          "internalType": "address",
          "name": "from",
          "type": "address"
        },
        {
          "internalType": "address",
          "name": "to",
          "type": "address"
        },
        {
          "internalType": "uint256",
          "name": "tokenId",
          "type": "uint256"
        }
      ],
      "name": "safeTransferFrom",
      "outputs": [],
      "stateMutability": "nonpayable",
      "type": "function"
    },
    {
      "inputs": [
        {
          "internalType": "address",
          "name": "from",
          "type": "address"
        },
        {
          "internalType": "address",
          "name": "to",
          "type": "address"
        },
        {
          "internalType": "uint256",
          "name": "tokenId",
          "type": "uint256"
        },
        {
          "internalType": "bytes",
          "name": "data",
          "type": "bytes"
        }
      ],
      "name": "safeTransferFrom",
      "outputs": [],
      "stateMutability": "nonpayable",
      "type": "function"
    },
    {
      "inputs": [
        {
          "internalType": "address",
          "name": "operator",
          "type": "address"
        },
        {
          "internalType": "bool",
          "name": "approved",
          "type": "bool"
        }
      ],
      "name": "setApprovalForAll",
      "outputs": [],
      "stateMutability": "nonpayable",
      "type": "function"
    },
    {
      "inputs": [
        {
          "internalType": "string",
          "name": "newBaseURI",
          "type": "string"
        }
      ],
      "name": "setBaseURI",
      "outputs": [],
      "stateMutability": "nonpayable",
      "type": "function"
    },
    {
      "inputs": [
        {
          "internalType": "address",
          "name": "receiver",
          "type": "address"
        },
        {
          "internalType": "uint96",
          "name": "feeNumerator",
          "type": "uint96"
        }
      ],
      "name": "setDefaultRoyalty",
      "outputs": [],
      "stateMutability": "nonpayable",
      "type": "function"
    },
    {
      "inputs": [
        {
          "internalType": "uint256",
          "name": "fee",
          "type": "uint256"
        }
      ],
      "name": "setFee",
      "outputs": [],
      "stateMutability": "nonpayable",
      "type": "function"
    },
    {
      "inputs": [
        {
          "internalType": "uint256",
          "name": "newSupply",
          "type": "uint256"
        }
      ],
      "name": "setTotalSupply",
      "outputs": [],
      "stateMutability": "nonpayable",
      "type": "function"
    },
    {
      "inputs": [],
      "name": "supply",
      "outputs": [
        {
          "internalType": "uint256",
          "name": "",
          "type": "uint256"
        }
      ],
      "stateMutability": "view",
      "type": "function"
    },
    {
      "inputs": [
        {
          "internalType": "bytes4",
          "name": "interfaceId",
          "type": "bytes4"
        }
      ],
      "name": "supportsInterface",
      "outputs": [
        {
          "internalType": "bool",
          "name": "",
          "type": "bool"
        }
      ],
      "stateMutability": "view",
      "type": "function"
    },
    {
      "inputs": [],
      "name": "symbol",
      "outputs": [
        {
          "internalType": "string",
          "name": "",
          "type": "string"
        }
      ],
      "stateMutability": "view",
      "type": "function"
    },
    {
      "inputs": [
        {
          "internalType": "uint256",
          "name": "tokenId",
          "type": "uint256"
        }
      ],
      "name": "tokenURI",
      "outputs": [
        {
          "internalType": "string",
          "name": "",
          "type": "string"
        }
      ],
      "stateMutability": "view",
      "type": "function"
    },
    {
      "inputs": [
        {
          "internalType": "address",
          "name": "from",
          "type": "address"
        },
        {
          "internalType": "address",
          "name": "to",
          "type": "address"
        },
        {
          "internalType": "uint256",
          "name": "tokenId",
          "type": "uint256"
        }
      ],
      "name": "transferFrom",
      "outputs": [],
      "stateMutability": "nonpayable",
      "type": "function"
    },
    {
      "inputs": [
        {
          "internalType": "address",
          "name": "newOwner",
          "type": "address"
        }
      ],
      "name": "transferOwnership",
      "outputs": [],
      "stateMutability": "nonpayable",
      "type": "function"
    },
    {
      "inputs": [],
      "name": "unpause",
      "outputs": [],
      "stateMutability": "nonpayable",
      "type": "function"
    },
    {
      "inputs": [],
      "name": "withdraw",
      "outputs": [],
      "stateMutability": "nonpayable",
      "type": "function"
    }
  ],
  "bytecode": "0x6080604052662386f26fc10000600c553480156200001c57600080fd5b50604051620040c8380380620040c8833981810160405281019062000042919062000328565b6040518060400160405280600481526020017f42696b65000000000000000000000000000000000000000000000000000000008152506040518060400160405280600481526020017f42494b45000000000000000000000000000000000000000000000000000000008152508160029080519060200190620000c69291906200024a565b508060039080519060200190620000df9291906200024a565b5050506000600860006101000a81548160ff0219169083151502179055506200011d620001116200017c60201b60201c565b6200018460201b60201c565b60016009819055506200013b826200018460201b620013e81760201c565b6040518060800160405280605081526020016200407860509139600b90805190602001906200016c9291906200024a565b5080600d81905550505062000440565b600033905090565b6000600860019054906101000a900473ffffffffffffffffffffffffffffffffffffffff16905081600860016101000a81548173ffffffffffffffffffffffffffffffffffffffff021916908373ffffffffffffffffffffffffffffffffffffffff1602179055508173ffffffffffffffffffffffffffffffffffffffff168173ffffffffffffffffffffffffffffffffffffffff167f8be0079c531659141344cd1fd0a4f28419497f9722a3daafe3b4186f6b6457e060405160405180910390a35050565b8280546200025890620003a7565b90600052602060002090601f0160209004810192826200027c5760008555620002c8565b82601f106200029757805160ff1916838001178555620002c8565b82800160010185558215620002c8579182015b82811115620002c7578251825591602001919060010190620002aa565b5b509050620002d79190620002db565b5090565b5b80821115620002f6576000816000905550600101620002dc565b5090565b6000815190506200030b816200040c565b92915050565b600081519050620003228162000426565b92915050565b600080604083850312156200033c57600080fd5b60006200034c85828601620002fa565b92505060206200035f8582860162000311565b9150509250929050565b600062000376826200037d565b9050919050565b600073ffffffffffffffffffffffffffffffffffffffff82169050919050565b6000819050919050565b60006002820490506001821680620003c057607f821691505b60208210811415620003d757620003d6620003dd565b5b50919050565b7f4e487b7100000000000000000000000000000000000000000000000000000000600052602260045260246000fd5b620004178162000369565b81146200042357600080fd5b50565b62000431816200039d565b81146200043d57600080fd5b50565b613c2880620004506000396000f3fe6080604052600436106101e35760003560e01c806369fe0e2d11610102578063a22cb46511610095578063e8a3d48511610064578063e8a3d48514610689578063e985e9c5146106b4578063f2fde38b146106f1578063f7ea7a3d1461071a576101e3565b8063a22cb465146105cf578063b88d4fde146105f8578063c87b56dd14610621578063ced72f871461065e576101e3565b80638456cb59116100d15780638456cb59146105465780638da5cb5b1461055d5780638fe4a2451461058857806395d89b41146105a4576101e3565b806369fe0e2d1461049e5780636c0360eb146104c757806370a08231146104f2578063715018a61461052f576101e3565b80633ccfd60b1161017a57806342966c681161014957806342966c68146103e457806355f804b31461040d5780635c975abb146104365780636352211e14610461576101e3565b80633ccfd60b146103715780633f4ba83a1461038857806340d097c31461039f57806342842e0e146103bb576101e3565b8063081812fc116101b6578063081812fc146102a4578063095ea7b3146102e157806323b872dd1461030a5780632a55205a14610333576101e3565b806301ffc9a7146101e857806304634d8d14610225578063047fc9aa1461024e57806306fdde0314610279575b600080fd5b3480156101f457600080fd5b5061020f600480360381019061020a9190612a77565b610743565b60405161021c9190612fa2565b60405180910390f35b34801561023157600080fd5b5061024c60048036038101906102479190612a3b565b610755565b005b34801561025a57600080fd5b5061026361076b565b604051610270919061325f565b60405180910390f35b34801561028557600080fd5b5061028e610771565b60405161029b9190612fbd565b60405180910390f35b3480156102b057600080fd5b506102cb60048036038101906102c69190612b0a565b610803565b6040516102d89190612f12565b60405180910390f35b3480156102ed57600080fd5b50610308600480360381019061030391906129ff565b610849565b005b34801561031657600080fd5b50610331600480360381019061032c91906128f9565b610961565b005b34801561033f57600080fd5b5061035a60048036038101906103559190612b33565b6109c1565b604051610368929190612f79565b60405180910390f35b34801561037d57600080fd5b50610386610bac565b005b34801561039457600080fd5b5061039d610c53565b005b6103b960048036038101906103b49190612894565b610c65565b005b3480156103c757600080fd5b506103e260048036038101906103dd91906128f9565b610d15565b005b3480156103f057600080fd5b5061040b60048036038101906104069190612b0a565b610d35565b005b34801561041957600080fd5b50610434600480360381019061042f9190612ac9565b610d91565b005b34801561044257600080fd5b5061044b610db3565b6040516104589190612fa2565b60405180910390f35b34801561046d57600080fd5b5061048860048036038101906104839190612b0a565b610dca565b6040516104959190612f12565b60405180910390f35b3480156104aa57600080fd5b506104c560048036038101906104c09190612b0a565b610e7c565b005b3480156104d357600080fd5b506104dc610ea1565b6040516104e99190612fbd565b60405180910390f35b3480156104fe57600080fd5b5061051960048036038101906105149190612894565b610f2f565b604051610526919061325f565b60405180910390f35b34801561053b57600080fd5b50610544610fe7565b005b34801561055257600080fd5b5061055b610ffb565b005b34801561056957600080fd5b5061057261100d565b60405161057f9190612f12565b60405180910390f35b6105a2600480360381019061059d91906129ff565b611037565b005b3480156105b057600080fd5b506105b961112c565b6040516105c69190612fbd565b60405180910390f35b3480156105db57600080fd5b506105f660048036038101906105f191906129c3565b6111be565b005b34801561060457600080fd5b5061061f600480360381019061061a9190612948565b6111d4565b005b34801561062d57600080fd5b5061064860048036038101906106439190612b0a565b611236565b6040516106559190612fbd565b60405180910390f35b34801561066a57600080fd5b50610673611294565b604051610680919061325f565b60405180910390f35b34801561069557600080fd5b5061069e61129e565b6040516106ab9190612fbd565b60405180910390f35b3480156106c057600080fd5b506106db60048036038101906106d691906128bd565b6112be565b6040516106e89190612fa2565b60405180910390f35b3480156106fd57600080fd5b5061071860048036038101906107139190612894565b611352565b005b34801561072657600080fd5b50610741600480360381019061073c9190612b0a565b6113d6565b005b600061074e826114ae565b9050919050565b61075d6114c0565b610767828261153e565b5050565b600d5481565b60606002805461078090613534565b80601f01602080910402602001604051908101604052809291908181526020018280546107ac90613534565b80156107f95780601f106107ce576101008083540402835291602001916107f9565b820191906000526020600020905b8154815290600101906020018083116107dc57829003601f168201915b5050505050905090565b600061080e826116d3565b6006600083815260200190815260200160002060009054906101000a900473ffffffffffffffffffffffffffffffffffffffff169050919050565b600061085482610dca565b90508073ffffffffffffffffffffffffffffffffffffffff168373ffffffffffffffffffffffffffffffffffffffff1614156108c5576040517f08c379a00000000000000000000000000000000000000000000000000000000081526004016108bc906131bf565b60405180910390fd5b8073ffffffffffffffffffffffffffffffffffffffff166108e461171e565b73ffffffffffffffffffffffffffffffffffffffff16148061091357506109128161090d61171e565b6112be565b5b610952576040517f08c379a00000000000000000000000000000000000000000000000000000000081526004016109499061311f565b60405180910390fd5b61095c8383611726565b505050565b61097261096c61171e565b826117df565b6109b1576040517f08c379a00000000000000000000000000000000000000000000000000000000081526004016109a8906131ff565b60405180910390fd5b6109bc838383611874565b505050565b6000806000600160008681526020019081526020016000206040518060400160405290816000820160009054906101000a900473ffffffffffffffffffffffffffffffffffffffff1673ffffffffffffffffffffffffffffffffffffffff1673ffffffffffffffffffffffffffffffffffffffff1681526020016000820160149054906101000a90046bffffffffffffffffffffffff166bffffffffffffffffffffffff166bffffffffffffffffffffffff16815250509050600073ffffffffffffffffffffffffffffffffffffffff16816000015173ffffffffffffffffffffffffffffffffffffffff161415610b575760006040518060400160405290816000820160009054906101000a900473ffffffffffffffffffffffffffffffffffffffff1673ffffffffffffffffffffffffffffffffffffffff1673ffffffffffffffffffffffffffffffffffffffff1681526020016000820160149054906101000a90046bffffffffffffffffffffffff166bffffffffffffffffffffffff166bffffffffffffffffffffffff168152505090505b6000610b61611adb565b6bffffffffffffffffffffffff1682602001516bffffffffffffffffffffffff1686610b8d91906133cb565b610b97919061339a565b90508160000151819350935050509250929050565b60026009541415610bf2576040517f08c379a0000000000000000000000000000000000000000000000000000000008152600401610be99061321f565b60405180910390fd5b6002600981905550610c026114c0565b3373ffffffffffffffffffffffffffffffffffffffff166108fc479081150290604051600060405180830381858888f19350505050158015610c48573d6000803e3d6000fd5b506001600981905550565b610c5b6114c0565b610c63611ae5565b565b610c6f600a611b48565b6000610c7b600a611b5e565b9050600d54811115610cc2576040517f08c379a0000000000000000000000000000000000000000000000000000000008152600401610cb99061317f565b60405180910390fd5b600c54341015610d07576040517f08c379a0000000000000000000000000000000000000000000000000000000008152600401610cfe906130bf565b60405180910390fd5b610d118282611b6c565b5050565b610d30838383604051806020016040528060008152506111d4565b505050565b610d46610d4061171e565b826117df565b610d85576040517f08c379a0000000000000000000000000000000000000000000000000000000008152600401610d7c906131ff565b60405180910390fd5b610d8e81611b8a565b50565b610d996114c0565b80600b9080519060200190610daf9291906126a3565b5050565b6000600860009054906101000a900460ff16905090565b6000806004600084815260200190815260200160002060009054906101000a900473ffffffffffffffffffffffffffffffffffffffff169050600073ffffffffffffffffffffffffffffffffffffffff168173ffffffffffffffffffffffffffffffffffffffff161415610e73576040517f08c379a0000000000000000000000000000000000000000000000000000000008152600401610e6a9061319f565b60405180910390fd5b80915050919050565b610e846114c0565b67016345785d8a000081610e9891906133cb565b600c8190555050565b600b8054610eae90613534565b80601f0160208091040260200160405190810160405280929190818152602001828054610eda90613534565b8015610f275780601f10610efc57610100808354040283529160200191610f27565b820191906000526020600020905b815481529060010190602001808311610f0a57829003601f168201915b505050505081565b60008073ffffffffffffffffffffffffffffffffffffffff168273ffffffffffffffffffffffffffffffffffffffff161415610fa0576040517f08c379a0000000000000000000000000000000000000000000000000000000008152600401610f97906130ff565b60405180910390fd5b600560008373ffffffffffffffffffffffffffffffffffffffff1673ffffffffffffffffffffffffffffffffffffffff168152602001908152602001600020549050919050565b610fef6114c0565b610ff960006113e8565b565b6110036114c0565b61100b611b96565b565b6000600860019054906101000a900473ffffffffffffffffffffffffffffffffffffffff16905090565b600d5481611045600a611b5e565b61104f9190613344565b1115611090576040517f08c379a00000000000000000000000000000000000000000000000000000000081526004016110879061317f565b60405180910390fd5b600c548161109e91906133cb565b3410156110e0576040517f08c379a00000000000000000000000000000000000000000000000000000000081526004016110d7906130bf565b60405180910390fd5b600080600090505b828160ff161015611126576110fd600a611b48565b611107600a611b5e565b91506111138483611b6c565b808061111e90613597565b9150506110e8565b50505050565b60606003805461113b90613534565b80601f016020809104026020016040519081016040528092919081815260200182805461116790613534565b80156111b45780601f10611189576101008083540402835291602001916111b4565b820191906000526020600020905b81548152906001019060200180831161119757829003601f168201915b5050505050905090565b6111d06111c961171e565b8383611bf9565b5050565b6111e56111df61171e565b836117df565b611224576040517f08c379a000000000000000000000000000000000000000000000000000000000815260040161121b906131ff565b60405180910390fd5b61123084848484611d66565b50505050565b6060611241826116d3565b600061124b611dc2565b9050600081511161126b576040518060200160405280600081525061128c565b8060405160200161127c9190612efb565b6040516020818303038152906040525b915050919050565b6000600c54905090565b60606040518060a0016040528060678152602001613b8c60679139905090565b6000600760008473ffffffffffffffffffffffffffffffffffffffff1673ffffffffffffffffffffffffffffffffffffffff16815260200190815260200160002060008373ffffffffffffffffffffffffffffffffffffffff1673ffffffffffffffffffffffffffffffffffffffff16815260200190815260200160002060009054906101000a900460ff16905092915050565b61135a6114c0565b600073ffffffffffffffffffffffffffffffffffffffff168173ffffffffffffffffffffffffffffffffffffffff1614156113ca576040517f08c379a00000000000000000000000000000000000000000000000000000000081526004016113c19061301f565b60405180910390fd5b6113d3816113e8565b50565b6113de6114c0565b80600d8190555050565b6000600860019054906101000a900473ffffffffffffffffffffffffffffffffffffffff16905081600860016101000a81548173ffffffffffffffffffffffffffffffffffffffff021916908373ffffffffffffffffffffffffffffffffffffffff1602179055508173ffffffffffffffffffffffffffffffffffffffff168173ffffffffffffffffffffffffffffffffffffffff167f8be0079c531659141344cd1fd0a4f28419497f9722a3daafe3b4186f6b6457e060405160405180910390a35050565b60006114b982611e54565b9050919050565b6114c861171e565b73ffffffffffffffffffffffffffffffffffffffff166114e661100d565b73ffffffffffffffffffffffffffffffffffffffff161461153c576040517f08c379a00000000000000000000000000000000000000000000000000000000081526004016115339061315f565b60405180910390fd5b565b611546611adb565b6bffffffffffffffffffffffff16816bffffffffffffffffffffffff1611156115a4576040517f08c379a000000000000000000000000000000000000000000000000000000000815260040161159b906131df565b60405180910390fd5b600073ffffffffffffffffffffffffffffffffffffffff168273ffffffffffffffffffffffffffffffffffffffff161415611614576040517f08c379a000000000000000000000000000000000000000000000000000000000815260040161160b9061323f565b60405180910390fd5b60405180604001604052808373ffffffffffffffffffffffffffffffffffffffff168152602001826bffffffffffffffffffffffff168152506000808201518160000160006101000a81548173ffffffffffffffffffffffffffffffffffffffff021916908373ffffffffffffffffffffffffffffffffffffffff16021790555060208201518160000160146101000a8154816bffffffffffffffffffffffff02191690836bffffffffffffffffffffffff1602179055509050505050565b6116dc81611f36565b61171b576040517f08c379a00000000000000000000000000000000000000000000000000000000081526004016117129061319f565b60405180910390fd5b50565b600033905090565b816006600083815260200190815260200160002060006101000a81548173ffffffffffffffffffffffffffffffffffffffff021916908373ffffffffffffffffffffffffffffffffffffffff160217905550808273ffffffffffffffffffffffffffffffffffffffff1661179983610dca565b73ffffffffffffffffffffffffffffffffffffffff167f8c5be1e5ebec7d5bd14f71427d1e84f3dd0314c0f7b2291e5b200ac8c7c3b92560405160405180910390a45050565b6000806117eb83610dca565b90508073ffffffffffffffffffffffffffffffffffffffff168473ffffffffffffffffffffffffffffffffffffffff16148061182d575061182c81856112be565b5b8061186b57508373ffffffffffffffffffffffffffffffffffffffff1661185384610803565b73ffffffffffffffffffffffffffffffffffffffff16145b91505092915050565b8273ffffffffffffffffffffffffffffffffffffffff1661189482610dca565b73ffffffffffffffffffffffffffffffffffffffff16146118ea576040517f08c379a00000000000000000000000000000000000000000000000000000000081526004016118e19061303f565b60405180910390fd5b600073ffffffffffffffffffffffffffffffffffffffff168273ffffffffffffffffffffffffffffffffffffffff16141561195a576040517f08c379a00000000000000000000000000000000000000000000000000000000081526004016119519061307f565b60405180910390fd5b611965838383611fa2565b611970600082611726565b6001600560008573ffffffffffffffffffffffffffffffffffffffff1673ffffffffffffffffffffffffffffffffffffffff16815260200190815260200160002060008282546119c09190613425565b925050819055506001600560008473ffffffffffffffffffffffffffffffffffffffff1673ffffffffffffffffffffffffffffffffffffffff1681526020019081526020016000206000828254611a179190613344565b92505081905550816004600083815260200190815260200160002060006101000a81548173ffffffffffffffffffffffffffffffffffffffff021916908373ffffffffffffffffffffffffffffffffffffffff160217905550808273ffffffffffffffffffffffffffffffffffffffff168473ffffffffffffffffffffffffffffffffffffffff167fddf252ad1be2c89b69c2b068fc378daa952ba7f163c4a11628f55a4df523b3ef60405160405180910390a4611ad6838383611fa7565b505050565b6000612710905090565b611aed611fac565b6000600860006101000a81548160ff0219169083151502179055507f5db9ee0a495bf2e6ff9c91a7834c1ba4fdd244a5e8aa4e537bd38aeae4b073aa611b3161171e565b604051611b3e9190612f12565b60405180910390a1565b6001816000016000828254019250508190555050565b600081600001549050919050565b611b86828260405180602001604052806000815250611ff5565b5050565b611b9381612050565b50565b611b9e612065565b6001600860006101000a81548160ff0219169083151502179055507f62e78cea01bee320cd4e420270b5ea74000d11b0c9f74754ebdbfc544b05a258611be261171e565b604051611bef9190612f12565b60405180910390a1565b8173ffffffffffffffffffffffffffffffffffffffff168373ffffffffffffffffffffffffffffffffffffffff161415611c68576040517f08c379a0000000000000000000000000000000000000000000000000000000008152600401611c5f9061309f565b60405180910390fd5b80600760008573ffffffffffffffffffffffffffffffffffffffff1673ffffffffffffffffffffffffffffffffffffffff16815260200190815260200160002060008473ffffffffffffffffffffffffffffffffffffffff1673ffffffffffffffffffffffffffffffffffffffff16815260200190815260200160002060006101000a81548160ff0219169083151502179055508173ffffffffffffffffffffffffffffffffffffffff168373ffffffffffffffffffffffffffffffffffffffff167f17307eab39ab6107e8899845ad3d59bd9653f200f220920489ca2b5937696c3183604051611d599190612fa2565b60405180910390a3505050565b611d71848484611874565b611d7d848484846120af565b611dbc576040517f08c379a0000000000000000000000000000000000000000000000000000000008152600401611db390612fff565b60405180910390fd5b50505050565b6060600b8054611dd190613534565b80601f0160208091040260200160405190810160405280929190818152602001828054611dfd90613534565b8015611e4a5780601f10611e1f57610100808354040283529160200191611e4a565b820191906000526020600020905b815481529060010190602001808311611e2d57829003601f168201915b5050505050905090565b60007f80ac58cd000000000000000000000000000000000000000000000000000000007bffffffffffffffffffffffffffffffffffffffffffffffffffffffff1916827bffffffffffffffffffffffffffffffffffffffffffffffffffffffff19161480611f1f57507f5b5e139f000000000000000000000000000000000000000000000000000000007bffffffffffffffffffffffffffffffffffffffffffffffffffffffff1916827bffffffffffffffffffffffffffffffffffffffffffffffffffffffff1916145b80611f2f5750611f2e82612246565b5b9050919050565b60008073ffffffffffffffffffffffffffffffffffffffff166004600084815260200190815260200160002060009054906101000a900473ffffffffffffffffffffffffffffffffffffffff1673ffffffffffffffffffffffffffffffffffffffff1614159050919050565b505050565b505050565b611fb4610db3565b611ff3576040517f08c379a0000000000000000000000000000000000000000000000000000000008152600401611fea90612fdf565b60405180910390fd5b565b611fff83836122c0565b61200c60008484846120af565b61204b576040517f08c379a000000000000000000000000000000000000000000000000000000000815260040161204290612fff565b60405180910390fd5b505050565b6120598161249a565b612062816125b7565b50565b61206d610db3565b156120ad576040517f08c379a00000000000000000000000000000000000000000000000000000000081526004016120a4906130df565b60405180910390fd5b565b60006120d08473ffffffffffffffffffffffffffffffffffffffff16612616565b15612239578373ffffffffffffffffffffffffffffffffffffffff1663150b7a026120f961171e565b8786866040518563ffffffff1660e01b815260040161211b9493929190612f2d565b602060405180830381600087803b15801561213557600080fd5b505af192505050801561216657506040513d601f19601f820116820180604052508101906121639190612aa0565b60015b6121e9573d8060008114612196576040519150601f19603f3d011682016040523d82523d6000602084013e61219b565b606091505b506000815114156121e1576040517f08c379a00000000000000000000000000000000000000000000000000000000081526004016121d890612fff565b60405180910390fd5b805181602001fd5b63150b7a0260e01b7bffffffffffffffffffffffffffffffffffffffffffffffffffffffff1916817bffffffffffffffffffffffffffffffffffffffffffffffffffffffff19161491505061223e565b600190505b949350505050565b60007f2a55205a000000000000000000000000000000000000000000000000000000007bffffffffffffffffffffffffffffffffffffffffffffffffffffffff1916827bffffffffffffffffffffffffffffffffffffffffffffffffffffffff191614806122b957506122b882612639565b5b9050919050565b600073ffffffffffffffffffffffffffffffffffffffff168273ffffffffffffffffffffffffffffffffffffffff161415612330576040517f08c379a00000000000000000000000000000000000000000000000000000000081526004016123279061313f565b60405180910390fd5b61233981611f36565b15612379576040517f08c379a00000000000000000000000000000000000000000000000000000000081526004016123709061305f565b60405180910390fd5b61238560008383611fa2565b6001600560008473ffffffffffffffffffffffffffffffffffffffff1673ffffffffffffffffffffffffffffffffffffffff16815260200190815260200160002060008282546123d59190613344565b92505081905550816004600083815260200190815260200160002060006101000a81548173ffffffffffffffffffffffffffffffffffffffff021916908373ffffffffffffffffffffffffffffffffffffffff160217905550808273ffffffffffffffffffffffffffffffffffffffff16600073ffffffffffffffffffffffffffffffffffffffff167fddf252ad1be2c89b69c2b068fc378daa952ba7f163c4a11628f55a4df523b3ef60405160405180910390a461249660008383611fa7565b5050565b60006124a582610dca565b90506124b381600084611fa2565b6124be600083611726565b6001600560008373ffffffffffffffffffffffffffffffffffffffff1673ffffffffffffffffffffffffffffffffffffffff168152602001908152602001600020600082825461250e9190613425565b925050819055506004600083815260200190815260200160002060006101000a81549073ffffffffffffffffffffffffffffffffffffffff021916905581600073ffffffffffffffffffffffffffffffffffffffff168273ffffffffffffffffffffffffffffffffffffffff167fddf252ad1be2c89b69c2b068fc378daa952ba7f163c4a11628f55a4df523b3ef60405160405180910390a46125b381600084611fa7565b5050565b60016000828152602001908152602001600020600080820160006101000a81549073ffffffffffffffffffffffffffffffffffffffff02191690556000820160146101000a8154906bffffffffffffffffffffffff0219169055505050565b6000808273ffffffffffffffffffffffffffffffffffffffff163b119050919050565b60007f01ffc9a7000000000000000000000000000000000000000000000000000000007bffffffffffffffffffffffffffffffffffffffffffffffffffffffff1916827bffffffffffffffffffffffffffffffffffffffffffffffffffffffff1916149050919050565b8280546126af90613534565b90600052602060002090601f0160209004810192826126d15760008555612718565b82601f106126ea57805160ff1916838001178555612718565b82800160010185558215612718579182015b828111156127175782518255916020019190600101906126fc565b5b5090506127259190612729565b5090565b5b8082111561274257600081600090555060010161272a565b5090565b60006127596127548461329f565b61327a565b90508281526020810184848401111561277157600080fd5b61277c8482856134f2565b509392505050565b6000612797612792846132d0565b61327a565b9050828152602081018484840111156127af57600080fd5b6127ba8482856134f2565b509392505050565b6000813590506127d181613b18565b92915050565b6000813590506127e681613b2f565b92915050565b6000813590506127fb81613b46565b92915050565b60008151905061281081613b46565b92915050565b600082601f83011261282757600080fd5b8135612837848260208601612746565b91505092915050565b600082601f83011261285157600080fd5b8135612861848260208601612784565b91505092915050565b60008135905061287981613b5d565b92915050565b60008135905061288e81613b74565b92915050565b6000602082840312156128a657600080fd5b60006128b4848285016127c2565b91505092915050565b600080604083850312156128d057600080fd5b60006128de858286016127c2565b92505060206128ef858286016127c2565b9150509250929050565b60008060006060848603121561290e57600080fd5b600061291c868287016127c2565b935050602061292d868287016127c2565b925050604061293e8682870161286a565b9150509250925092565b6000806000806080858703121561295e57600080fd5b600061296c878288016127c2565b945050602061297d878288016127c2565b935050604061298e8782880161286a565b925050606085013567ffffffffffffffff8111156129ab57600080fd5b6129b787828801612816565b91505092959194509250565b600080604083850312156129d657600080fd5b60006129e4858286016127c2565b92505060206129f5858286016127d7565b9150509250929050565b60008060408385031215612a1257600080fd5b6000612a20858286016127c2565b9250506020612a318582860161286a565b9150509250929050565b60008060408385031215612a4e57600080fd5b6000612a5c858286016127c2565b9250506020612a6d8582860161287f565b9150509250929050565b600060208284031215612a8957600080fd5b6000612a97848285016127ec565b91505092915050565b600060208284031215612ab257600080fd5b6000612ac084828501612801565b91505092915050565b600060208284031215612adb57600080fd5b600082013567ffffffffffffffff811115612af557600080fd5b612b0184828501612840565b91505092915050565b600060208284031215612b1c57600080fd5b6000612b2a8482850161286a565b91505092915050565b60008060408385031215612b4657600080fd5b6000612b548582860161286a565b9250506020612b658582860161286a565b9150509250929050565b612b7881613459565b82525050565b612b878161346b565b82525050565b6000612b9882613301565b612ba28185613317565b9350612bb2818560208601613501565b612bbb8161367d565b840191505092915050565b6000612bd18261330c565b612bdb8185613328565b9350612beb818560208601613501565b612bf48161367d565b840191505092915050565b6000612c0a8261330c565b612c148185613339565b9350612c24818560208601613501565b80840191505092915050565b6000612c3d601483613328565b9150612c488261368e565b602082019050919050565b6000612c60603283613328565b9150612c6b826136b7565b604082019050919050565b6000612c83602683613328565b9150612c8e82613706565b604082019050919050565b6000612ca6602583613328565b9150612cb182613755565b604082019050919050565b6000612cc9601c83613328565b9150612cd4826137a4565b602082019050919050565b6000612cec602483613328565b9150612cf7826137cd565b604082019050919050565b6000612d0f601983613328565b9150612d1a8261381c565b602082019050919050565b6000612d32601283613328565b9150612d3d82613845565b602082019050919050565b6000612d55601083613328565b9150612d608261386e565b602082019050919050565b6000612d78602983613328565b9150612d8382613897565b604082019050919050565b6000612d9b603e83613328565b9150612da6826138e6565b604082019050919050565b6000612dbe602083613328565b9150612dc982613935565b602082019050919050565b6000612de1602083613328565b9150612dec8261395e565b602082019050919050565b6000612e04600d83613328565b9150612e0f82613987565b602082019050919050565b6000612e27601883613328565b9150612e32826139b0565b602082019050919050565b6000612e4a602183613328565b9150612e55826139d9565b604082019050919050565b6000612e6d602a83613328565b9150612e7882613a28565b604082019050919050565b6000612e90602e83613328565b9150612e9b82613a77565b604082019050919050565b6000612eb3601f83613328565b9150612ebe82613ac6565b602082019050919050565b6000612ed6601983613328565b9150612ee182613aef565b602082019050919050565b612ef5816134c3565b82525050565b6000612f078284612bff565b915081905092915050565b6000602082019050612f276000830184612b6f565b92915050565b6000608082019050612f426000830187612b6f565b612f4f6020830186612b6f565b612f5c6040830185612eec565b8181036060830152612f6e8184612b8d565b905095945050505050565b6000604082019050612f8e6000830185612b6f565b612f9b6020830184612eec565b9392505050565b6000602082019050612fb76000830184612b7e565b92915050565b60006020820190508181036000830152612fd78184612bc6565b905092915050565b60006020820190508181036000830152612ff881612c30565b9050919050565b6000602082019050818103600083015261301881612c53565b9050919050565b6000602082019050818103600083015261303881612c76565b9050919050565b6000602082019050818103600083015261305881612c99565b9050919050565b6000602082019050818103600083015261307881612cbc565b9050919050565b6000602082019050818103600083015261309881612cdf565b9050919050565b600060208201905081810360008301526130b881612d02565b9050919050565b600060208201905081810360008301526130d881612d25565b9050919050565b600060208201905081810360008301526130f881612d48565b9050919050565b6000602082019050818103600083015261311881612d6b565b9050919050565b6000602082019050818103600083015261313881612d8e565b9050919050565b6000602082019050818103600083015261315881612db1565b9050919050565b6000602082019050818103600083015261317881612dd4565b9050919050565b6000602082019050818103600083015261319881612df7565b9050919050565b600060208201905081810360008301526131b881612e1a565b9050919050565b600060208201905081810360008301526131d881612e3d565b9050919050565b600060208201905081810360008301526131f881612e60565b9050919050565b6000602082019050818103600083015261321881612e83565b9050919050565b6000602082019050818103600083015261323881612ea6565b9050919050565b6000602082019050818103600083015261325881612ec9565b9050919050565b60006020820190506132746000830184612eec565b92915050565b6000613284613295565b90506132908282613566565b919050565b6000604051905090565b600067ffffffffffffffff8211156132ba576132b961364e565b5b6132c38261367d565b9050602081019050919050565b600067ffffffffffffffff8211156132eb576132ea61364e565b5b6132f48261367d565b9050602081019050919050565b600081519050919050565b600081519050919050565b600082825260208201905092915050565b600082825260208201905092915050565b600081905092915050565b600061334f826134c3565b915061335a836134c3565b9250827fffffffffffffffffffffffffffffffffffffffffffffffffffffffffffffffff0382111561338f5761338e6135c1565b5b828201905092915050565b60006133a5826134c3565b91506133b0836134c3565b9250826133c0576133bf6135f0565b5b828204905092915050565b60006133d6826134c3565b91506133e1836134c3565b9250817fffffffffffffffffffffffffffffffffffffffffffffffffffffffffffffffff048311821515161561341a576134196135c1565b5b828202905092915050565b6000613430826134c3565b915061343b836134c3565b92508282101561344e5761344d6135c1565b5b828203905092915050565b6000613464826134a3565b9050919050565b60008115159050919050565b60007fffffffff0000000000000000000000000000000000000000000000000000000082169050919050565b600073ffffffffffffffffffffffffffffffffffffffff82169050919050565b6000819050919050565b600060ff82169050919050565b60006bffffffffffffffffffffffff82169050919050565b82818337600083830152505050565b60005b8381101561351f578082015181840152602081019050613504565b8381111561352e576000848401525b50505050565b6000600282049050600182168061354c57607f821691505b602082108114156135605761355f61361f565b5b50919050565b61356f8261367d565b810181811067ffffffffffffffff8211171561358e5761358d61364e565b5b80604052505050565b60006135a2826134cd565b915060ff8214156135b6576135b56135c1565b5b600182019050919050565b7f4e487b7100000000000000000000000000000000000000000000000000000000600052601160045260246000fd5b7f4e487b7100000000000000000000000000000000000000000000000000000000600052601260045260246000fd5b7f4e487b7100000000000000000000000000000000000000000000000000000000600052602260045260246000fd5b7f4e487b7100000000000000000000000000000000000000000000000000000000600052604160045260246000fd5b6000601f19601f8301169050919050565b7f5061757361626c653a206e6f7420706175736564000000000000000000000000600082015250565b7f4552433732313a207472616e7366657220746f206e6f6e20455243373231526560008201527f63656976657220696d706c656d656e7465720000000000000000000000000000602082015250565b7f4f776e61626c653a206e6577206f776e657220697320746865207a65726f206160008201527f6464726573730000000000000000000000000000000000000000000000000000602082015250565b7f4552433732313a207472616e736665722066726f6d20696e636f72726563742060008201527f6f776e6572000000000000000000000000000000000000000000000000000000602082015250565b7f4552433732313a20746f6b656e20616c7265616479206d696e74656400000000600082015250565b7f4552433732313a207472616e7366657220746f20746865207a65726f2061646460008201527f7265737300000000000000000000000000000000000000000000000000000000602082015250565b7f4552433732313a20617070726f766520746f2063616c6c657200000000000000600082015250565b7f4e6f7420656e6f7567682062616c616e63650000000000000000000000000000600082015250565b7f5061757361626c653a2070617573656400000000000000000000000000000000600082015250565b7f4552433732313a2061646472657373207a65726f206973206e6f74206120766160008201527f6c6964206f776e65720000000000000000000000000000000000000000000000602082015250565b7f4552433732313a20617070726f76652063616c6c6572206973206e6f7420746f60008201527f6b656e206f776e6572206e6f7220617070726f76656420666f7220616c6c0000602082015250565b7f4552433732313a206d696e7420746f20746865207a65726f2061646472657373600082015250565b7f4f776e61626c653a2063616c6c6572206973206e6f7420746865206f776e6572600082015250565b7f4f7574206f6620737570706c7900000000000000000000000000000000000000600082015250565b7f4552433732313a20696e76616c696420746f6b656e2049440000000000000000600082015250565b7f4552433732313a20617070726f76616c20746f2063757272656e74206f776e6560008201527f7200000000000000000000000000000000000000000000000000000000000000602082015250565b7f455243323938313a20726f79616c7479206665652077696c6c2065786365656460008201527f2073616c65507269636500000000000000000000000000000000000000000000602082015250565b7f4552433732313a2063616c6c6572206973206e6f7420746f6b656e206f776e6560008201527f72206e6f7220617070726f766564000000000000000000000000000000000000602082015250565b7f5265656e7472616e637947756172643a207265656e7472616e742063616c6c00600082015250565b7f455243323938313a20696e76616c696420726563656976657200000000000000600082015250565b613b2181613459565b8114613b2c57600080fd5b50565b613b388161346b565b8114613b4357600080fd5b50565b613b4f81613477565b8114613b5a57600080fd5b50565b613b66816134c3565b8114613b7157600080fd5b50565b613b7d816134da565b8114613b8857600080fd5b5056fe68747470733a2f2f676174657761792e70696e6174612e636c6f75642f697066732f516d4e75665772654c68377766344c6561743270787a6739326d5169364d36636a573736377061666f445343684a2f636f6e74726163745f6d657461646174612e6a736f6ea2646970667358221220cb82e65eef808b2611d177eaafbe0d24e309c7f8b98f1bc4a9c27062bb984fc664736f6c6343000804003368747470733a2f2f676174657761792e70696e6174612e636c6f75642f697066732f516d52766e685972556165484c4638685365524e546454566e354a5448617335655a6b3857793252627a77524171",
  "linkReferences": {},
  "deployedLinkReferences": {}
}