{
  "_format": "hh-sol-artifact-1",
  "contractName": "Bike",
  "sourceName": "contracts/Bike.sol",
  "abi": [
    {
      "inputs": [
        {
          "internalType": "address",
          "name": "owner",
          "type": "address"
        },
        {
          "internalType": "uint256",
          "name": "_supply",
          "type": "uint256"
        }
      ],
      "stateMutability": "nonpayable",
      "type": "constructor"
    },
    {
      "anonymous": false,
      "inputs": [
        {
          "indexed": true,
          "internalType": "address",
          "name": "owner",
          "type": "address"
        },
        {
          "indexed": true,
          "internalType": "address",
          "name": "approved",
          "type": "address"
        },
        {
          "indexed": true,
          "internalType": "uint256",
          "name": "tokenId",
          "type": "uint256"
        }
      ],
      "name": "Approval",
      "type": "event"
    },
    {
      "anonymous": false,
      "inputs": [
        {
          "indexed": true,
          "internalType": "address",
          "name": "owner",
          "type": "address"
        },
        {
          "indexed": true,
          "internalType": "address",
          "name": "operator",
          "type": "address"
        },
        {
          "indexed": false,
          "internalType": "bool",
          "name": "approved",
          "type": "bool"
        }
      ],
      "name": "ApprovalForAll",
      "type": "event"
    },
    {
      "anonymous": false,
      "inputs": [
        {
          "indexed": true,
          "internalType": "address",
          "name": "previousOwner",
          "type": "address"
        },
        {
          "indexed": true,
          "internalType": "address",
          "name": "newOwner",
          "type": "address"
        }
      ],
      "name": "OwnershipTransferred",
      "type": "event"
    },
    {
      "anonymous": false,
      "inputs": [
        {
          "indexed": false,
          "internalType": "address",
          "name": "account",
          "type": "address"
        }
      ],
      "name": "Paused",
      "type": "event"
    },
    {
      "anonymous": false,
      "inputs": [
        {
          "indexed": true,
          "internalType": "address",
          "name": "from",
          "type": "address"
        },
        {
          "indexed": true,
          "internalType": "address",
          "name": "to",
          "type": "address"
        },
        {
          "indexed": true,
          "internalType": "uint256",
          "name": "tokenId",
          "type": "uint256"
        }
      ],
      "name": "Transfer",
      "type": "event"
    },
    {
      "anonymous": false,
      "inputs": [
        {
          "indexed": false,
          "internalType": "address",
          "name": "account",
          "type": "address"
        }
      ],
      "name": "Unpaused",
      "type": "event"
    },
    {
      "inputs": [
        {
          "internalType": "address",
          "name": "to",
          "type": "address"
        },
        {
          "internalType": "uint256",
          "name": "tokenId",
          "type": "uint256"
        }
      ],
      "name": "approve",
      "outputs": [],
      "stateMutability": "nonpayable",
      "type": "function"
    },
    {
      "inputs": [
        {
          "internalType": "address",
          "name": "owner",
          "type": "address"
        }
      ],
      "name": "balanceOf",
      "outputs": [
        {
          "internalType": "uint256",
          "name": "",
          "type": "uint256"
        }
      ],
      "stateMutability": "view",
      "type": "function"
    },
    {
      "inputs": [],
      "name": "baseURI",
      "outputs": [
        {
          "internalType": "string",
          "name": "",
          "type": "string"
        }
      ],
      "stateMutability": "view",
      "type": "function"
    },
    {
      "inputs": [
        {
          "internalType": "uint256",
          "name": "tokenId",
          "type": "uint256"
        }
      ],
      "name": "burn",
      "outputs": [],
      "stateMutability": "nonpayable",
      "type": "function"
    },
    {
      "inputs": [],
      "name": "contractURI",
      "outputs": [
        {
          "internalType": "string",
          "name": "",
          "type": "string"
        }
      ],
      "stateMutability": "pure",
      "type": "function"
    },
    {
      "inputs": [
        {
          "internalType": "uint256",
          "name": "tokenId",
          "type": "uint256"
        }
      ],
      "name": "getApproved",
      "outputs": [
        {
          "internalType": "address",
          "name": "",
          "type": "address"
        }
      ],
      "stateMutability": "view",
      "type": "function"
    },
    {
      "inputs": [],
      "name": "getFee",
      "outputs": [
        {
          "internalType": "uint256",
          "name": "",
          "type": "uint256"
        }
      ],
      "stateMutability": "view",
      "type": "function"
    },
    {
      "inputs": [
        {
          "internalType": "address",
          "name": "owner",
          "type": "address"
        },
        {
          "internalType": "address",
          "name": "operator",
          "type": "address"
        }
      ],
      "name": "isApprovedForAll",
      "outputs": [
        {
          "internalType": "bool",
          "name": "",
          "type": "bool"
        }
      ],
      "stateMutability": "view",
      "type": "function"
    },
    {
      "inputs": [],
      "name": "name",
      "outputs": [
        {
          "internalType": "string",
          "name": "",
          "type": "string"
        }
      ],
      "stateMutability": "view",
      "type": "function"
    },
    {
      "inputs": [],
      "name": "owner",
      "outputs": [
        {
          "internalType": "address",
          "name": "",
          "type": "address"
        }
      ],
      "stateMutability": "view",
      "type": "function"
    },
    {
      "inputs": [
        {
          "internalType": "uint256",
          "name": "tokenId",
          "type": "uint256"
        }
      ],
      "name": "ownerOf",
      "outputs": [
        {
          "internalType": "address",
          "name": "",
          "type": "address"
        }
      ],
      "stateMutability": "view",
      "type": "function"
    },
    {
      "inputs": [],
      "name": "pause",
      "outputs": [],
      "stateMutability": "nonpayable",
      "type": "function"
    },
    {
      "inputs": [],
      "name": "paused",
      "outputs": [
        {
          "internalType": "bool",
          "name": "",
          "type": "bool"
        }
      ],
      "stateMutability": "view",
      "type": "function"
    },
    {
      "inputs": [],
      "name": "renounceOwnership",
      "outputs": [],
      "stateMutability": "nonpayable",
      "type": "function"
    },
    {
      "inputs": [
        {
          "internalType": "uint256",
          "name": "_tokenId",
          "type": "uint256"
        },
        {
          "internalType": "uint256",
          "name": "_salePrice",
          "type": "uint256"
        }
      ],
      "name": "royaltyInfo",
      "outputs": [
        {
          "internalType": "address",
          "name": "",
          "type": "address"
        },
        {
          "internalType": "uint256",
          "name": "",
          "type": "uint256"
        }
      ],
      "stateMutability": "view",
      "type": "function"
    },
    {
      "inputs": [
        {
          "internalType": "address",
          "name": "to",
          "type": "address"
        }
      ],
      "name": "safeMint",
      "outputs": [],
      "stateMutability": "payable",
      "type": "function"
    },
    {
      "inputs": [
        {
          "internalType": "address",
          "name": "to",
          "type": "address"
        },
        {
          "internalType": "uint256",
          "name": "amount",
          "type": "uint256"
        }
      ],
      "name": "safeMintMany",
      "outputs": [],
      "stateMutability": "payable",
      "type": "function"
    },
    {
      "inputs": [
        {
          "internalType": "address",
          "name": "from",
          "type": "address"
        },
        {
          "internalType": "address",
          "name": "to",
          "type": "address"
        },
        {
          "internalType": "uint256",
          "name": "tokenId",
          "type": "uint256"
        }
      ],
      "name": "safeTransferFrom",
      "outputs": [],
      "stateMutability": "nonpayable",
      "type": "function"
    },
    {
      "inputs": [
        {
          "internalType": "address",
          "name": "from",
          "type": "address"
        },
        {
          "internalType": "address",
          "name": "to",
          "type": "address"
        },
        {
          "internalType": "uint256",
          "name": "tokenId",
          "type": "uint256"
        },
        {
          "internalType": "bytes",
          "name": "data",
          "type": "bytes"
        }
      ],
      "name": "safeTransferFrom",
      "outputs": [],
      "stateMutability": "nonpayable",
      "type": "function"
    },
    {
      "inputs": [
        {
          "internalType": "address",
          "name": "operator",
          "type": "address"
        },
        {
          "internalType": "bool",
          "name": "approved",
          "type": "bool"
        }
      ],
      "name": "setApprovalForAll",
      "outputs": [],
      "stateMutability": "nonpayable",
      "type": "function"
    },
    {
      "inputs": [
        {
          "internalType": "string",
          "name": "newBaseURI",
          "type": "string"
        }
      ],
      "name": "setBaseURI",
      "outputs": [],
      "stateMutability": "nonpayable",
      "type": "function"
    },
    {
      "inputs": [
        {
          "internalType": "address",
          "name": "receiver",
          "type": "address"
        },
        {
          "internalType": "uint96",
          "name": "feeNumerator",
          "type": "uint96"
        }
      ],
      "name": "setDefaultRoyalty",
      "outputs": [],
      "stateMutability": "nonpayable",
      "type": "function"
    },
    {
      "inputs": [
        {
          "internalType": "uint256",
          "name": "fee",
          "type": "uint256"
        }
      ],
      "name": "setFee",
      "outputs": [],
      "stateMutability": "nonpayable",
      "type": "function"
    },
    {
      "inputs": [
        {
          "internalType": "uint256",
          "name": "newSupply",
          "type": "uint256"
        }
      ],
      "name": "setTotalSupply",
      "outputs": [],
      "stateMutability": "nonpayable",
      "type": "function"
    },
    {
      "inputs": [],
      "name": "supply",
      "outputs": [
        {
          "internalType": "uint256",
          "name": "",
          "type": "uint256"
        }
      ],
      "stateMutability": "view",
      "type": "function"
    },
    {
      "inputs": [
        {
          "internalType": "bytes4",
          "name": "interfaceId",
          "type": "bytes4"
        }
      ],
      "name": "supportsInterface",
      "outputs": [
        {
          "internalType": "bool",
          "name": "",
          "type": "bool"
        }
      ],
      "stateMutability": "view",
      "type": "function"
    },
    {
      "inputs": [],
      "name": "symbol",
      "outputs": [
        {
          "internalType": "string",
          "name": "",
          "type": "string"
        }
      ],
      "stateMutability": "view",
      "type": "function"
    },
    {
      "inputs": [
        {
          "internalType": "uint256",
          "name": "index",
          "type": "uint256"
        }
      ],
      "name": "tokenByIndex",
      "outputs": [
        {
          "internalType": "uint256",
          "name": "",
          "type": "uint256"
        }
      ],
      "stateMutability": "view",
      "type": "function"
    },
    {
      "inputs": [
        {
          "internalType": "address",
          "name": "owner",
          "type": "address"
        },
        {
          "internalType": "uint256",
          "name": "index",
          "type": "uint256"
        }
      ],
      "name": "tokenOfOwnerByIndex",
      "outputs": [
        {
          "internalType": "uint256",
          "name": "",
          "type": "uint256"
        }
      ],
      "stateMutability": "view",
      "type": "function"
    },
    {
      "inputs": [
        {
          "internalType": "uint256",
          "name": "tokenId",
          "type": "uint256"
        }
      ],
      "name": "tokenURI",
      "outputs": [
        {
          "internalType": "string",
          "name": "",
          "type": "string"
        }
      ],
      "stateMutability": "view",
      "type": "function"
    },
    {
      "inputs": [],
      "name": "totalSupply",
      "outputs": [
        {
          "internalType": "uint256",
          "name": "",
          "type": "uint256"
        }
      ],
      "stateMutability": "view",
      "type": "function"
    },
    {
      "inputs": [
        {
          "internalType": "address",
          "name": "from",
          "type": "address"
        },
        {
          "internalType": "address",
          "name": "to",
          "type": "address"
        },
        {
          "internalType": "uint256",
          "name": "tokenId",
          "type": "uint256"
        }
      ],
      "name": "transferFrom",
      "outputs": [],
      "stateMutability": "nonpayable",
      "type": "function"
    },
    {
      "inputs": [
        {
          "internalType": "address",
          "name": "newOwner",
          "type": "address"
        }
      ],
      "name": "transferOwnership",
      "outputs": [],
      "stateMutability": "nonpayable",
      "type": "function"
    },
    {
      "inputs": [],
      "name": "unpause",
      "outputs": [],
      "stateMutability": "nonpayable",
      "type": "function"
    },
    {
      "inputs": [],
      "name": "withdraw",
      "outputs": [],
      "stateMutability": "nonpayable",
      "type": "function"
    }
  ],
  "bytecode": "0x6080604052662386f26fc100006010553480156200001c57600080fd5b506040516200491938038062004919833981810160405281019062000042919062000328565b6040518060400160405280600481526020017f42696b65000000000000000000000000000000000000000000000000000000008152506040518060400160405280600481526020017f42494b45000000000000000000000000000000000000000000000000000000008152508160029080519060200190620000c69291906200024a565b508060039080519060200190620000df9291906200024a565b5050506000600c60006101000a81548160ff0219169083151502179055506200011d620001116200017c60201b60201c565b6200018460201b60201c565b6001600d819055506200013b826200018460201b620015f71760201c565b604051806080016040528060508152602001620048c960509139600f90805190602001906200016c9291906200024a565b5080601181905550505062000440565b600033905090565b6000600c60019054906101000a900473ffffffffffffffffffffffffffffffffffffffff16905081600c60016101000a81548173ffffffffffffffffffffffffffffffffffffffff021916908373ffffffffffffffffffffffffffffffffffffffff1602179055508173ffffffffffffffffffffffffffffffffffffffff168173ffffffffffffffffffffffffffffffffffffffff167f8be0079c531659141344cd1fd0a4f28419497f9722a3daafe3b4186f6b6457e060405160405180910390a35050565b8280546200025890620003a7565b90600052602060002090601f0160209004810192826200027c5760008555620002c8565b82601f106200029757805160ff1916838001178555620002c8565b82800160010185558215620002c8579182015b82811115620002c7578251825591602001919060010190620002aa565b5b509050620002d79190620002db565b5090565b5b80821115620002f6576000816000905550600101620002dc565b5090565b6000815190506200030b816200040c565b92915050565b600081519050620003228162000426565b92915050565b600080604083850312156200033c57600080fd5b60006200034c85828601620002fa565b92505060206200035f8582860162000311565b9150509250929050565b600062000376826200037d565b9050919050565b600073ffffffffffffffffffffffffffffffffffffffff82169050919050565b6000819050919050565b60006002820490506001821680620003c057607f821691505b60208210811415620003d757620003d6620003dd565b5b50919050565b7f4e487b7100000000000000000000000000000000000000000000000000000000600052602260045260246000fd5b620004178162000369565b81146200042357600080fd5b50565b62000431816200039d565b81146200043d57600080fd5b50565b61447980620004506000396000f3fe6080604052600436106102045760003560e01c80635c975abb1161011857806395d89b41116100a0578063ced72f871161006f578063ced72f8714610724578063e8a3d4851461074f578063e985e9c51461077a578063f2fde38b146107b7578063f7ea7a3d146107e057610204565b806395d89b411461066a578063a22cb46514610695578063b88d4fde146106be578063c87b56dd146106e757610204565b806370a08231116100e757806370a08231146105b8578063715018a6146105f55780638456cb591461060c5780638da5cb5b146106235780638fe4a2451461064e57610204565b80635c975abb146104fc5780636352211e1461052757806369fe0e2d146105645780636c0360eb1461058d57610204565b80632a55205a1161019b57806340d097c31161016a57806340d097c31461042857806342842e0e1461044457806342966c681461046d5780634f6ccce71461049657806355f804b3146104d357610204565b80632a55205a1461037f5780632f745c59146103bd5780633ccfd60b146103fa5780633f4ba83a1461041157610204565b8063081812fc116101d7578063081812fc146102c5578063095ea7b31461030257806318160ddd1461032b57806323b872dd1461035657610204565b806301ffc9a71461020957806304634d8d14610246578063047fc9aa1461026f57806306fdde031461029a575b600080fd5b34801561021557600080fd5b50610230600480360381019061022b91906131a4565b610809565b60405161023d9190613715565b60405180910390f35b34801561025257600080fd5b5061026d60048036038101906102689190613168565b61081b565b005b34801561027b57600080fd5b50610284610831565b6040516102919190613a12565b60405180910390f35b3480156102a657600080fd5b506102af610837565b6040516102bc9190613730565b60405180910390f35b3480156102d157600080fd5b506102ec60048036038101906102e79190613237565b6108c9565b6040516102f99190613685565b60405180910390f35b34801561030e57600080fd5b506103296004803603810190610324919061312c565b61090f565b005b34801561033757600080fd5b50610340610a27565b60405161034d9190613a12565b60405180910390f35b34801561036257600080fd5b5061037d60048036038101906103789190613026565b610a34565b005b34801561038b57600080fd5b506103a660048036038101906103a19190613260565b610a94565b6040516103b49291906136ec565b60405180910390f35b3480156103c957600080fd5b506103e460048036038101906103df919061312c565b610c7f565b6040516103f19190613a12565b60405180910390f35b34801561040657600080fd5b5061040f610d24565b005b34801561041d57600080fd5b50610426610dcb565b005b610442600480360381019061043d9190612fc1565b610ddd565b005b34801561045057600080fd5b5061046b60048036038101906104669190613026565b610e8d565b005b34801561047957600080fd5b50610494600480360381019061048f9190613237565b610ead565b005b3480156104a257600080fd5b506104bd60048036038101906104b89190613237565b610f09565b6040516104ca9190613a12565b60405180910390f35b3480156104df57600080fd5b506104fa60048036038101906104f591906131f6565b610fa0565b005b34801561050857600080fd5b50610511610fc2565b60405161051e9190613715565b60405180910390f35b34801561053357600080fd5b5061054e60048036038101906105499190613237565b610fd9565b60405161055b9190613685565b60405180910390f35b34801561057057600080fd5b5061058b60048036038101906105869190613237565b61108b565b005b34801561059957600080fd5b506105a26110b0565b6040516105af9190613730565b60405180910390f35b3480156105c457600080fd5b506105df60048036038101906105da9190612fc1565b61113e565b6040516105ec9190613a12565b60405180910390f35b34801561060157600080fd5b5061060a6111f6565b005b34801561061857600080fd5b5061062161120a565b005b34801561062f57600080fd5b5061063861121c565b6040516106459190613685565b60405180910390f35b6106686004803603810190610663919061312c565b611246565b005b34801561067657600080fd5b5061067f61133b565b60405161068c9190613730565b60405180910390f35b3480156106a157600080fd5b506106bc60048036038101906106b791906130f0565b6113cd565b005b3480156106ca57600080fd5b506106e560048036038101906106e09190613075565b6113e3565b005b3480156106f357600080fd5b5061070e60048036038101906107099190613237565b611445565b60405161071b9190613730565b60405180910390f35b34801561073057600080fd5b506107396114a3565b6040516107469190613a12565b60405180910390f35b34801561075b57600080fd5b506107646114ad565b6040516107719190613730565b60405180910390f35b34801561078657600080fd5b506107a1600480360381019061079c9190612fea565b6114cd565b6040516107ae9190613715565b60405180910390f35b3480156107c357600080fd5b506107de60048036038101906107d99190612fc1565b611561565b005b3480156107ec57600080fd5b5061080760048036038101906108029190613237565b6115e5565b005b6000610814826116bd565b9050919050565b6108236116cf565b61082d828261174d565b5050565b60115481565b60606002805461084690613ce7565b80601f016020809104026020016040519081016040528092919081815260200182805461087290613ce7565b80156108bf5780601f10610894576101008083540402835291602001916108bf565b820191906000526020600020905b8154815290600101906020018083116108a257829003601f168201915b5050505050905090565b60006108d4826118e2565b6006600083815260200190815260200160002060009054906101000a900473ffffffffffffffffffffffffffffffffffffffff169050919050565b600061091a82610fd9565b90508073ffffffffffffffffffffffffffffffffffffffff168373ffffffffffffffffffffffffffffffffffffffff16141561098b576040517f08c379a000000000000000000000000000000000000000000000000000000000815260040161098290613952565b60405180910390fd5b8073ffffffffffffffffffffffffffffffffffffffff166109aa61192d565b73ffffffffffffffffffffffffffffffffffffffff1614806109d957506109d8816109d361192d565b6114cd565b5b610a18576040517f08c379a0000000000000000000000000000000000000000000000000000000008152600401610a0f906138b2565b60405180910390fd5b610a228383611935565b505050565b6000600a80549050905090565b610a45610a3f61192d565b826119ee565b610a84576040517f08c379a0000000000000000000000000000000000000000000000000000000008152600401610a7b906139b2565b60405180910390fd5b610a8f838383611a83565b505050565b6000806000600160008681526020019081526020016000206040518060400160405290816000820160009054906101000a900473ffffffffffffffffffffffffffffffffffffffff1673ffffffffffffffffffffffffffffffffffffffff1673ffffffffffffffffffffffffffffffffffffffff1681526020016000820160149054906101000a90046bffffffffffffffffffffffff166bffffffffffffffffffffffff166bffffffffffffffffffffffff16815250509050600073ffffffffffffffffffffffffffffffffffffffff16816000015173ffffffffffffffffffffffffffffffffffffffff161415610c2a5760006040518060400160405290816000820160009054906101000a900473ffffffffffffffffffffffffffffffffffffffff1673ffffffffffffffffffffffffffffffffffffffff1673ffffffffffffffffffffffffffffffffffffffff1681526020016000820160149054906101000a90046bffffffffffffffffffffffff166bffffffffffffffffffffffff166bffffffffffffffffffffffff168152505090505b6000610c34611cea565b6bffffffffffffffffffffffff1682602001516bffffffffffffffffffffffff1686610c609190613b7e565b610c6a9190613b4d565b90508160000151819350935050509250929050565b6000610c8a8361113e565b8210610ccb576040517f08c379a0000000000000000000000000000000000000000000000000000000008152600401610cc290613772565b60405180910390fd5b600860008473ffffffffffffffffffffffffffffffffffffffff1673ffffffffffffffffffffffffffffffffffffffff168152602001908152602001600020600083815260200190815260200160002054905092915050565b6002600d541415610d6a576040517f08c379a0000000000000000000000000000000000000000000000000000000008152600401610d61906139d2565b60405180910390fd5b6002600d81905550610d7a6116cf565b3373ffffffffffffffffffffffffffffffffffffffff166108fc479081150290604051600060405180830381858888f19350505050158015610dc0573d6000803e3d6000fd5b506001600d81905550565b610dd36116cf565b610ddb611cf4565b565b610de7600e611d57565b6000610df3600e611d6d565b9050601154811115610e3a576040517f08c379a0000000000000000000000000000000000000000000000000000000008152600401610e3190613912565b60405180910390fd5b601054341015610e7f576040517f08c379a0000000000000000000000000000000000000000000000000000000008152600401610e7690613852565b60405180910390fd5b610e898282611d7b565b5050565b610ea8838383604051806020016040528060008152506113e3565b505050565b610ebe610eb861192d565b826119ee565b610efd576040517f08c379a0000000000000000000000000000000000000000000000000000000008152600401610ef4906139b2565b60405180910390fd5b610f0681611d99565b50565b6000610f13610a27565b8210610f54576040517f08c379a0000000000000000000000000000000000000000000000000000000008152600401610f4b90613972565b60405180910390fd5b600a8281548110610f8e577f4e487b7100000000000000000000000000000000000000000000000000000000600052603260045260246000fd5b90600052602060002001549050919050565b610fa86116cf565b80600f9080519060200190610fbe929190612dd0565b5050565b6000600c60009054906101000a900460ff16905090565b6000806004600084815260200190815260200160002060009054906101000a900473ffffffffffffffffffffffffffffffffffffffff169050600073ffffffffffffffffffffffffffffffffffffffff168173ffffffffffffffffffffffffffffffffffffffff161415611082576040517f08c379a000000000000000000000000000000000000000000000000000000000815260040161107990613932565b60405180910390fd5b80915050919050565b6110936116cf565b67016345785d8a0000816110a79190613b7e565b60108190555050565b600f80546110bd90613ce7565b80601f01602080910402602001604051908101604052809291908181526020018280546110e990613ce7565b80156111365780601f1061110b57610100808354040283529160200191611136565b820191906000526020600020905b81548152906001019060200180831161111957829003601f168201915b505050505081565b60008073ffffffffffffffffffffffffffffffffffffffff168273ffffffffffffffffffffffffffffffffffffffff1614156111af576040517f08c379a00000000000000000000000000000000000000000000000000000000081526004016111a690613892565b60405180910390fd5b600560008373ffffffffffffffffffffffffffffffffffffffff1673ffffffffffffffffffffffffffffffffffffffff168152602001908152602001600020549050919050565b6111fe6116cf565b61120860006115f7565b565b6112126116cf565b61121a611da5565b565b6000600c60019054906101000a900473ffffffffffffffffffffffffffffffffffffffff16905090565b60115481611254600e611d6d565b61125e9190613af7565b111561129f576040517f08c379a000000000000000000000000000000000000000000000000000000000815260040161129690613912565b60405180910390fd5b601054816112ad9190613b7e565b3410156112ef576040517f08c379a00000000000000000000000000000000000000000000000000000000081526004016112e690613852565b60405180910390fd5b600080600090505b828160ff1610156113355761130c600e611d57565b611316600e611d6d565b91506113228483611d7b565b808061132d90613d4a565b9150506112f7565b50505050565b60606003805461134a90613ce7565b80601f016020809104026020016040519081016040528092919081815260200182805461137690613ce7565b80156113c35780601f10611398576101008083540402835291602001916113c3565b820191906000526020600020905b8154815290600101906020018083116113a657829003601f168201915b5050505050905090565b6113df6113d861192d565b8383611e08565b5050565b6113f46113ee61192d565b836119ee565b611433576040517f08c379a000000000000000000000000000000000000000000000000000000000815260040161142a906139b2565b60405180910390fd5b61143f84848484611f75565b50505050565b6060611450826118e2565b600061145a611fd1565b9050600081511161147a576040518060200160405280600081525061149b565b8060405160200161148b919061366e565b6040516020818303038152906040525b915050919050565b6000601054905090565b60606040518060a00160405280606781526020016143dd60679139905090565b6000600760008473ffffffffffffffffffffffffffffffffffffffff1673ffffffffffffffffffffffffffffffffffffffff16815260200190815260200160002060008373ffffffffffffffffffffffffffffffffffffffff1673ffffffffffffffffffffffffffffffffffffffff16815260200190815260200160002060009054906101000a900460ff16905092915050565b6115696116cf565b600073ffffffffffffffffffffffffffffffffffffffff168173ffffffffffffffffffffffffffffffffffffffff1614156115d9576040517f08c379a00000000000000000000000000000000000000000000000000000000081526004016115d0906137b2565b60405180910390fd5b6115e2816115f7565b50565b6115ed6116cf565b8060118190555050565b6000600c60019054906101000a900473ffffffffffffffffffffffffffffffffffffffff16905081600c60016101000a81548173ffffffffffffffffffffffffffffffffffffffff021916908373ffffffffffffffffffffffffffffffffffffffff1602179055508173ffffffffffffffffffffffffffffffffffffffff168173ffffffffffffffffffffffffffffffffffffffff167f8be0079c531659141344cd1fd0a4f28419497f9722a3daafe3b4186f6b6457e060405160405180910390a35050565b60006116c882612063565b9050919050565b6116d761192d565b73ffffffffffffffffffffffffffffffffffffffff166116f561121c565b73ffffffffffffffffffffffffffffffffffffffff161461174b576040517f08c379a0000000000000000000000000000000000000000000000000000000008152600401611742906138f2565b60405180910390fd5b565b611755611cea565b6bffffffffffffffffffffffff16816bffffffffffffffffffffffff1611156117b3576040517f08c379a00000000000000000000000000000000000000000000000000000000081526004016117aa90613992565b60405180910390fd5b600073ffffffffffffffffffffffffffffffffffffffff168273ffffffffffffffffffffffffffffffffffffffff161415611823576040517f08c379a000000000000000000000000000000000000000000000000000000000815260040161181a906139f2565b60405180910390fd5b60405180604001604052808373ffffffffffffffffffffffffffffffffffffffff168152602001826bffffffffffffffffffffffff168152506000808201518160000160006101000a81548173ffffffffffffffffffffffffffffffffffffffff021916908373ffffffffffffffffffffffffffffffffffffffff16021790555060208201518160000160146101000a8154816bffffffffffffffffffffffff02191690836bffffffffffffffffffffffff1602179055509050505050565b6118eb816120dd565b61192a576040517f08c379a000000000000000000000000000000000000000000000000000000000815260040161192190613932565b60405180910390fd5b50565b600033905090565b816006600083815260200190815260200160002060006101000a81548173ffffffffffffffffffffffffffffffffffffffff021916908373ffffffffffffffffffffffffffffffffffffffff160217905550808273ffffffffffffffffffffffffffffffffffffffff166119a883610fd9565b73ffffffffffffffffffffffffffffffffffffffff167f8c5be1e5ebec7d5bd14f71427d1e84f3dd0314c0f7b2291e5b200ac8c7c3b92560405160405180910390a45050565b6000806119fa83610fd9565b90508073ffffffffffffffffffffffffffffffffffffffff168473ffffffffffffffffffffffffffffffffffffffff161480611a3c5750611a3b81856114cd565b5b80611a7a57508373ffffffffffffffffffffffffffffffffffffffff16611a62846108c9565b73ffffffffffffffffffffffffffffffffffffffff16145b91505092915050565b8273ffffffffffffffffffffffffffffffffffffffff16611aa382610fd9565b73ffffffffffffffffffffffffffffffffffffffff1614611af9576040517f08c379a0000000000000000000000000000000000000000000000000000000008152600401611af0906137d2565b60405180910390fd5b600073ffffffffffffffffffffffffffffffffffffffff168273ffffffffffffffffffffffffffffffffffffffff161415611b69576040517f08c379a0000000000000000000000000000000000000000000000000000000008152600401611b6090613812565b60405180910390fd5b611b74838383612149565b611b7f600082611935565b6001600560008573ffffffffffffffffffffffffffffffffffffffff1673ffffffffffffffffffffffffffffffffffffffff1681526020019081526020016000206000828254611bcf9190613bd8565b925050819055506001600560008473ffffffffffffffffffffffffffffffffffffffff1673ffffffffffffffffffffffffffffffffffffffff1681526020019081526020016000206000828254611c269190613af7565b92505081905550816004600083815260200190815260200160002060006101000a81548173ffffffffffffffffffffffffffffffffffffffff021916908373ffffffffffffffffffffffffffffffffffffffff160217905550808273ffffffffffffffffffffffffffffffffffffffff168473ffffffffffffffffffffffffffffffffffffffff167fddf252ad1be2c89b69c2b068fc378daa952ba7f163c4a11628f55a4df523b3ef60405160405180910390a4611ce5838383612161565b505050565b6000612710905090565b611cfc612166565b6000600c60006101000a81548160ff0219169083151502179055507f5db9ee0a495bf2e6ff9c91a7834c1ba4fdd244a5e8aa4e537bd38aeae4b073aa611d4061192d565b604051611d4d9190613685565b60405180910390a1565b6001816000016000828254019250508190555050565b600081600001549050919050565b611d958282604051806020016040528060008152506121af565b5050565b611da28161220a565b50565b611dad61221f565b6001600c60006101000a81548160ff0219169083151502179055507f62e78cea01bee320cd4e420270b5ea74000d11b0c9f74754ebdbfc544b05a258611df161192d565b604051611dfe9190613685565b60405180910390a1565b8173ffffffffffffffffffffffffffffffffffffffff168373ffffffffffffffffffffffffffffffffffffffff161415611e77576040517f08c379a0000000000000000000000000000000000000000000000000000000008152600401611e6e90613832565b60405180910390fd5b80600760008573ffffffffffffffffffffffffffffffffffffffff1673ffffffffffffffffffffffffffffffffffffffff16815260200190815260200160002060008473ffffffffffffffffffffffffffffffffffffffff1673ffffffffffffffffffffffffffffffffffffffff16815260200190815260200160002060006101000a81548160ff0219169083151502179055508173ffffffffffffffffffffffffffffffffffffffff168373ffffffffffffffffffffffffffffffffffffffff167f17307eab39ab6107e8899845ad3d59bd9653f200f220920489ca2b5937696c3183604051611f689190613715565b60405180910390a3505050565b611f80848484611a83565b611f8c84848484612269565b611fcb576040517f08c379a0000000000000000000000000000000000000000000000000000000008152600401611fc290613792565b60405180910390fd5b50505050565b6060600f8054611fe090613ce7565b80601f016020809104026020016040519081016040528092919081815260200182805461200c90613ce7565b80156120595780601f1061202e57610100808354040283529160200191612059565b820191906000526020600020905b81548152906001019060200180831161203c57829003601f168201915b5050505050905090565b60007f780e9d63000000000000000000000000000000000000000000000000000000007bffffffffffffffffffffffffffffffffffffffffffffffffffffffff1916827bffffffffffffffffffffffffffffffffffffffffffffffffffffffff191614806120d657506120d582612400565b5b9050919050565b60008073ffffffffffffffffffffffffffffffffffffffff166004600084815260200190815260200160002060009054906101000a900473ffffffffffffffffffffffffffffffffffffffff1673ffffffffffffffffffffffffffffffffffffffff1614159050919050565b61215161221f565b61215c8383836124e2565b505050565b505050565b61216e610fc2565b6121ad576040517f08c379a00000000000000000000000000000000000000000000000000000000081526004016121a490613752565b60405180910390fd5b565b6121b983836125f6565b6121c66000848484612269565b612205576040517f08c379a00000000000000000000000000000000000000000000000000000000081526004016121fc90613792565b60405180910390fd5b505050565b612213816127d0565b61221c816128ed565b50565b612227610fc2565b15612267576040517f08c379a000000000000000000000000000000000000000000000000000000000815260040161225e90613872565b60405180910390fd5b565b600061228a8473ffffffffffffffffffffffffffffffffffffffff1661294c565b156123f3578373ffffffffffffffffffffffffffffffffffffffff1663150b7a026122b361192d565b8786866040518563ffffffff1660e01b81526004016122d594939291906136a0565b602060405180830381600087803b1580156122ef57600080fd5b505af192505050801561232057506040513d601f19601f8201168201806040525081019061231d91906131cd565b60015b6123a3573d8060008114612350576040519150601f19603f3d011682016040523d82523d6000602084013e612355565b606091505b5060008151141561239b576040517f08c379a000000000000000000000000000000000000000000000000000000000815260040161239290613792565b60405180910390fd5b805181602001fd5b63150b7a0260e01b7bffffffffffffffffffffffffffffffffffffffffffffffffffffffff1916817bffffffffffffffffffffffffffffffffffffffffffffffffffffffff1916149150506123f8565b600190505b949350505050565b60007f80ac58cd000000000000000000000000000000000000000000000000000000007bffffffffffffffffffffffffffffffffffffffffffffffffffffffff1916827bffffffffffffffffffffffffffffffffffffffffffffffffffffffff191614806124cb57507f5b5e139f000000000000000000000000000000000000000000000000000000007bffffffffffffffffffffffffffffffffffffffffffffffffffffffff1916827bffffffffffffffffffffffffffffffffffffffffffffffffffffffff1916145b806124db57506124da8261296f565b5b9050919050565b6124ed8383836129e9565b600073ffffffffffffffffffffffffffffffffffffffff168373ffffffffffffffffffffffffffffffffffffffff1614156125305761252b816129ee565b61256f565b8173ffffffffffffffffffffffffffffffffffffffff168373ffffffffffffffffffffffffffffffffffffffff161461256e5761256d8382612a37565b5b5b600073ffffffffffffffffffffffffffffffffffffffff168273ffffffffffffffffffffffffffffffffffffffff1614156125b2576125ad81612ba4565b6125f1565b8273ffffffffffffffffffffffffffffffffffffffff168273ffffffffffffffffffffffffffffffffffffffff16146125f0576125ef8282612ce7565b5b5b505050565b600073ffffffffffffffffffffffffffffffffffffffff168273ffffffffffffffffffffffffffffffffffffffff161415612666576040517f08c379a000000000000000000000000000000000000000000000000000000000815260040161265d906138d2565b60405180910390fd5b61266f816120dd565b156126af576040517f08c379a00000000000000000000000000000000000000000000000000000000081526004016126a6906137f2565b60405180910390fd5b6126bb60008383612149565b6001600560008473ffffffffffffffffffffffffffffffffffffffff1673ffffffffffffffffffffffffffffffffffffffff168152602001908152602001600020600082825461270b9190613af7565b92505081905550816004600083815260200190815260200160002060006101000a81548173ffffffffffffffffffffffffffffffffffffffff021916908373ffffffffffffffffffffffffffffffffffffffff160217905550808273ffffffffffffffffffffffffffffffffffffffff16600073ffffffffffffffffffffffffffffffffffffffff167fddf252ad1be2c89b69c2b068fc378daa952ba7f163c4a11628f55a4df523b3ef60405160405180910390a46127cc60008383612161565b5050565b60006127db82610fd9565b90506127e981600084612149565b6127f4600083611935565b6001600560008373ffffffffffffffffffffffffffffffffffffffff1673ffffffffffffffffffffffffffffffffffffffff16815260200190815260200160002060008282546128449190613bd8565b925050819055506004600083815260200190815260200160002060006101000a81549073ffffffffffffffffffffffffffffffffffffffff021916905581600073ffffffffffffffffffffffffffffffffffffffff168273ffffffffffffffffffffffffffffffffffffffff167fddf252ad1be2c89b69c2b068fc378daa952ba7f163c4a11628f55a4df523b3ef60405160405180910390a46128e981600084612161565b5050565b60016000828152602001908152602001600020600080820160006101000a81549073ffffffffffffffffffffffffffffffffffffffff02191690556000820160146101000a8154906bffffffffffffffffffffffff0219169055505050565b6000808273ffffffffffffffffffffffffffffffffffffffff163b119050919050565b60007f2a55205a000000000000000000000000000000000000000000000000000000007bffffffffffffffffffffffffffffffffffffffffffffffffffffffff1916827bffffffffffffffffffffffffffffffffffffffffffffffffffffffff191614806129e257506129e182612d66565b5b9050919050565b505050565b600a80549050600b600083815260200190815260200160002081905550600a81908060018154018082558091505060019003906000526020600020016000909190919091505550565b60006001612a448461113e565b612a4e9190613bd8565b9050600060096000848152602001908152602001600020549050818114612b33576000600860008673ffffffffffffffffffffffffffffffffffffffff1673ffffffffffffffffffffffffffffffffffffffff168152602001908152602001600020600084815260200190815260200160002054905080600860008773ffffffffffffffffffffffffffffffffffffffff1673ffffffffffffffffffffffffffffffffffffffff168152602001908152602001600020600084815260200190815260200160002081905550816009600083815260200190815260200160002081905550505b6009600084815260200190815260200160002060009055600860008573ffffffffffffffffffffffffffffffffffffffff1673ffffffffffffffffffffffffffffffffffffffff16815260200190815260200160002060008381526020019081526020016000206000905550505050565b60006001600a80549050612bb89190613bd8565b90506000600b60008481526020019081526020016000205490506000600a8381548110612c0e577f4e487b7100000000000000000000000000000000000000000000000000000000600052603260045260246000fd5b9060005260206000200154905080600a8381548110612c56577f4e487b7100000000000000000000000000000000000000000000000000000000600052603260045260246000fd5b906000526020600020018190555081600b600083815260200190815260200160002081905550600b600085815260200190815260200160002060009055600a805480612ccb577f4e487b7100000000000000000000000000000000000000000000000000000000600052603160045260246000fd5b6001900381819060005260206000200160009055905550505050565b6000612cf28361113e565b905081600860008573ffffffffffffffffffffffffffffffffffffffff1673ffffffffffffffffffffffffffffffffffffffff168152602001908152602001600020600083815260200190815260200160002081905550806009600084815260200190815260200160002081905550505050565b60007f01ffc9a7000000000000000000000000000000000000000000000000000000007bffffffffffffffffffffffffffffffffffffffffffffffffffffffff1916827bffffffffffffffffffffffffffffffffffffffffffffffffffffffff1916149050919050565b828054612ddc90613ce7565b90600052602060002090601f016020900481019282612dfe5760008555612e45565b82601f10612e1757805160ff1916838001178555612e45565b82800160010185558215612e45579182015b82811115612e44578251825591602001919060010190612e29565b5b509050612e529190612e56565b5090565b5b80821115612e6f576000816000905550600101612e57565b5090565b6000612e86612e8184613a52565b613a2d565b905082815260208101848484011115612e9e57600080fd5b612ea9848285613ca5565b509392505050565b6000612ec4612ebf84613a83565b613a2d565b905082815260208101848484011115612edc57600080fd5b612ee7848285613ca5565b509392505050565b600081359050612efe81614369565b92915050565b600081359050612f1381614380565b92915050565b600081359050612f2881614397565b92915050565b600081519050612f3d81614397565b92915050565b600082601f830112612f5457600080fd5b8135612f64848260208601612e73565b91505092915050565b600082601f830112612f7e57600080fd5b8135612f8e848260208601612eb1565b91505092915050565b600081359050612fa6816143ae565b92915050565b600081359050612fbb816143c5565b92915050565b600060208284031215612fd357600080fd5b6000612fe184828501612eef565b91505092915050565b60008060408385031215612ffd57600080fd5b600061300b85828601612eef565b925050602061301c85828601612eef565b9150509250929050565b60008060006060848603121561303b57600080fd5b600061304986828701612eef565b935050602061305a86828701612eef565b925050604061306b86828701612f97565b9150509250925092565b6000806000806080858703121561308b57600080fd5b600061309987828801612eef565b94505060206130aa87828801612eef565b93505060406130bb87828801612f97565b925050606085013567ffffffffffffffff8111156130d857600080fd5b6130e487828801612f43565b91505092959194509250565b6000806040838503121561310357600080fd5b600061311185828601612eef565b925050602061312285828601612f04565b9150509250929050565b6000806040838503121561313f57600080fd5b600061314d85828601612eef565b925050602061315e85828601612f97565b9150509250929050565b6000806040838503121561317b57600080fd5b600061318985828601612eef565b925050602061319a85828601612fac565b9150509250929050565b6000602082840312156131b657600080fd5b60006131c484828501612f19565b91505092915050565b6000602082840312156131df57600080fd5b60006131ed84828501612f2e565b91505092915050565b60006020828403121561320857600080fd5b600082013567ffffffffffffffff81111561322257600080fd5b61322e84828501612f6d565b91505092915050565b60006020828403121561324957600080fd5b600061325784828501612f97565b91505092915050565b6000806040838503121561327357600080fd5b600061328185828601612f97565b925050602061329285828601612f97565b9150509250929050565b6132a581613c0c565b82525050565b6132b481613c1e565b82525050565b60006132c582613ab4565b6132cf8185613aca565b93506132df818560208601613cb4565b6132e881613e30565b840191505092915050565b60006132fe82613abf565b6133088185613adb565b9350613318818560208601613cb4565b61332181613e30565b840191505092915050565b600061333782613abf565b6133418185613aec565b9350613351818560208601613cb4565b80840191505092915050565b600061336a601483613adb565b915061337582613e41565b602082019050919050565b600061338d602b83613adb565b915061339882613e6a565b604082019050919050565b60006133b0603283613adb565b91506133bb82613eb9565b604082019050919050565b60006133d3602683613adb565b91506133de82613f08565b604082019050919050565b60006133f6602583613adb565b915061340182613f57565b604082019050919050565b6000613419601c83613adb565b915061342482613fa6565b602082019050919050565b600061343c602483613adb565b915061344782613fcf565b604082019050919050565b600061345f601983613adb565b915061346a8261401e565b602082019050919050565b6000613482601283613adb565b915061348d82614047565b602082019050919050565b60006134a5601083613adb565b91506134b082614070565b602082019050919050565b60006134c8602983613adb565b91506134d382614099565b604082019050919050565b60006134eb603e83613adb565b91506134f6826140e8565b604082019050919050565b600061350e602083613adb565b915061351982614137565b602082019050919050565b6000613531602083613adb565b915061353c82614160565b602082019050919050565b6000613554600d83613adb565b915061355f82614189565b602082019050919050565b6000613577601883613adb565b9150613582826141b2565b602082019050919050565b600061359a602183613adb565b91506135a5826141db565b604082019050919050565b60006135bd602c83613adb565b91506135c88261422a565b604082019050919050565b60006135e0602a83613adb565b91506135eb82614279565b604082019050919050565b6000613603602e83613adb565b915061360e826142c8565b604082019050919050565b6000613626601f83613adb565b915061363182614317565b602082019050919050565b6000613649601983613adb565b915061365482614340565b602082019050919050565b61366881613c76565b82525050565b600061367a828461332c565b915081905092915050565b600060208201905061369a600083018461329c565b92915050565b60006080820190506136b5600083018761329c565b6136c2602083018661329c565b6136cf604083018561365f565b81810360608301526136e181846132ba565b905095945050505050565b6000604082019050613701600083018561329c565b61370e602083018461365f565b9392505050565b600060208201905061372a60008301846132ab565b92915050565b6000602082019050818103600083015261374a81846132f3565b905092915050565b6000602082019050818103600083015261376b8161335d565b9050919050565b6000602082019050818103600083015261378b81613380565b9050919050565b600060208201905081810360008301526137ab816133a3565b9050919050565b600060208201905081810360008301526137cb816133c6565b9050919050565b600060208201905081810360008301526137eb816133e9565b9050919050565b6000602082019050818103600083015261380b8161340c565b9050919050565b6000602082019050818103600083015261382b8161342f565b9050919050565b6000602082019050818103600083015261384b81613452565b9050919050565b6000602082019050818103600083015261386b81613475565b9050919050565b6000602082019050818103600083015261388b81613498565b9050919050565b600060208201905081810360008301526138ab816134bb565b9050919050565b600060208201905081810360008301526138cb816134de565b9050919050565b600060208201905081810360008301526138eb81613501565b9050919050565b6000602082019050818103600083015261390b81613524565b9050919050565b6000602082019050818103600083015261392b81613547565b9050919050565b6000602082019050818103600083015261394b8161356a565b9050919050565b6000602082019050818103600083015261396b8161358d565b9050919050565b6000602082019050818103600083015261398b816135b0565b9050919050565b600060208201905081810360008301526139ab816135d3565b9050919050565b600060208201905081810360008301526139cb816135f6565b9050919050565b600060208201905081810360008301526139eb81613619565b9050919050565b60006020820190508181036000830152613a0b8161363c565b9050919050565b6000602082019050613a27600083018461365f565b92915050565b6000613a37613a48565b9050613a438282613d19565b919050565b6000604051905090565b600067ffffffffffffffff821115613a6d57613a6c613e01565b5b613a7682613e30565b9050602081019050919050565b600067ffffffffffffffff821115613a9e57613a9d613e01565b5b613aa782613e30565b9050602081019050919050565b600081519050919050565b600081519050919050565b600082825260208201905092915050565b600082825260208201905092915050565b600081905092915050565b6000613b0282613c76565b9150613b0d83613c76565b9250827fffffffffffffffffffffffffffffffffffffffffffffffffffffffffffffffff03821115613b4257613b41613d74565b5b828201905092915050565b6000613b5882613c76565b9150613b6383613c76565b925082613b7357613b72613da3565b5b828204905092915050565b6000613b8982613c76565b9150613b9483613c76565b9250817fffffffffffffffffffffffffffffffffffffffffffffffffffffffffffffffff0483118215151615613bcd57613bcc613d74565b5b828202905092915050565b6000613be382613c76565b9150613bee83613c76565b925082821015613c0157613c00613d74565b5b828203905092915050565b6000613c1782613c56565b9050919050565b60008115159050919050565b60007fffffffff0000000000000000000000000000000000000000000000000000000082169050919050565b600073ffffffffffffffffffffffffffffffffffffffff82169050919050565b6000819050919050565b600060ff82169050919050565b60006bffffffffffffffffffffffff82169050919050565b82818337600083830152505050565b60005b83811015613cd2578082015181840152602081019050613cb7565b83811115613ce1576000848401525b50505050565b60006002820490506001821680613cff57607f821691505b60208210811415613d1357613d12613dd2565b5b50919050565b613d2282613e30565b810181811067ffffffffffffffff82111715613d4157613d40613e01565b5b80604052505050565b6000613d5582613c80565b915060ff821415613d6957613d68613d74565b5b600182019050919050565b7f4e487b7100000000000000000000000000000000000000000000000000000000600052601160045260246000fd5b7f4e487b7100000000000000000000000000000000000000000000000000000000600052601260045260246000fd5b7f4e487b7100000000000000000000000000000000000000000000000000000000600052602260045260246000fd5b7f4e487b7100000000000000000000000000000000000000000000000000000000600052604160045260246000fd5b6000601f19601f8301169050919050565b7f5061757361626c653a206e6f7420706175736564000000000000000000000000600082015250565b7f455243373231456e756d657261626c653a206f776e657220696e646578206f7560008201527f74206f6620626f756e6473000000000000000000000000000000000000000000602082015250565b7f4552433732313a207472616e7366657220746f206e6f6e20455243373231526560008201527f63656976657220696d706c656d656e7465720000000000000000000000000000602082015250565b7f4f776e61626c653a206e6577206f776e657220697320746865207a65726f206160008201527f6464726573730000000000000000000000000000000000000000000000000000602082015250565b7f4552433732313a207472616e736665722066726f6d20696e636f72726563742060008201527f6f776e6572000000000000000000000000000000000000000000000000000000602082015250565b7f4552433732313a20746f6b656e20616c7265616479206d696e74656400000000600082015250565b7f4552433732313a207472616e7366657220746f20746865207a65726f2061646460008201527f7265737300000000000000000000000000000000000000000000000000000000602082015250565b7f4552433732313a20617070726f766520746f2063616c6c657200000000000000600082015250565b7f4e6f7420656e6f7567682062616c616e63650000000000000000000000000000600082015250565b7f5061757361626c653a2070617573656400000000000000000000000000000000600082015250565b7f4552433732313a2061646472657373207a65726f206973206e6f74206120766160008201527f6c6964206f776e65720000000000000000000000000000000000000000000000602082015250565b7f4552433732313a20617070726f76652063616c6c6572206973206e6f7420746f60008201527f6b656e206f776e6572206e6f7220617070726f76656420666f7220616c6c0000602082015250565b7f4552433732313a206d696e7420746f20746865207a65726f2061646472657373600082015250565b7f4f776e61626c653a2063616c6c6572206973206e6f7420746865206f776e6572600082015250565b7f4f7574206f6620737570706c7900000000000000000000000000000000000000600082015250565b7f4552433732313a20696e76616c696420746f6b656e2049440000000000000000600082015250565b7f4552433732313a20617070726f76616c20746f2063757272656e74206f776e6560008201527f7200000000000000000000000000000000000000000000000000000000000000602082015250565b7f455243373231456e756d657261626c653a20676c6f62616c20696e646578206f60008201527f7574206f6620626f756e64730000000000000000000000000000000000000000602082015250565b7f455243323938313a20726f79616c7479206665652077696c6c2065786365656460008201527f2073616c65507269636500000000000000000000000000000000000000000000602082015250565b7f4552433732313a2063616c6c6572206973206e6f7420746f6b656e206f776e6560008201527f72206e6f7220617070726f766564000000000000000000000000000000000000602082015250565b7f5265656e7472616e637947756172643a207265656e7472616e742063616c6c00600082015250565b7f455243323938313a20696e76616c696420726563656976657200000000000000600082015250565b61437281613c0c565b811461437d57600080fd5b50565b61438981613c1e565b811461439457600080fd5b50565b6143a081613c2a565b81146143ab57600080fd5b50565b6143b781613c76565b81146143c257600080fd5b50565b6143ce81613c8d565b81146143d957600080fd5b5056fe68747470733a2f2f676174657761792e70696e6174612e636c6f75642f697066732f516d4e75665772654c68377766344c6561743270787a6739326d5169364d36636a573736377061666f445343684a2f636f6e74726163745f6d657461646174612e6a736f6ea2646970667358221220c70eb4290672efe04407d59ab9a12f46a9ef0adf3654bcb48b5a8936ed2885f364736f6c6343000804003368747470733a2f2f676174657761792e70696e6174612e636c6f75642f697066732f516d52766e685972556165484c4638685365524e546454566e354a5448617335655a6b3857793252627a77524171",
  "linkReferences": {},
  "deployedLinkReferences": {}
}