{
  "_format": "hh-sol-artifact-1",
  "contractName": "Bike",
  "sourceName": "contracts/Bike.sol",
  "abi": [
    {
      "inputs": [
        {
          "internalType": "address",
          "name": "owner",
          "type": "address"
        },
        {
          "internalType": "uint256",
          "name": "_supply",
          "type": "uint256"
        }
      ],
      "stateMutability": "nonpayable",
      "type": "constructor"
    },
    {
      "anonymous": false,
      "inputs": [
        {
          "indexed": true,
          "internalType": "address",
          "name": "owner",
          "type": "address"
        },
        {
          "indexed": true,
          "internalType": "address",
          "name": "approved",
          "type": "address"
        },
        {
          "indexed": true,
          "internalType": "uint256",
          "name": "tokenId",
          "type": "uint256"
        }
      ],
      "name": "Approval",
      "type": "event"
    },
    {
      "anonymous": false,
      "inputs": [
        {
          "indexed": true,
          "internalType": "address",
          "name": "owner",
          "type": "address"
        },
        {
          "indexed": true,
          "internalType": "address",
          "name": "operator",
          "type": "address"
        },
        {
          "indexed": false,
          "internalType": "bool",
          "name": "approved",
          "type": "bool"
        }
      ],
      "name": "ApprovalForAll",
      "type": "event"
    },
    {
      "anonymous": false,
      "inputs": [
        {
          "indexed": true,
          "internalType": "address",
          "name": "previousOwner",
          "type": "address"
        },
        {
          "indexed": true,
          "internalType": "address",
          "name": "newOwner",
          "type": "address"
        }
      ],
      "name": "OwnershipTransferred",
      "type": "event"
    },
    {
      "anonymous": false,
      "inputs": [
        {
          "indexed": false,
          "internalType": "address",
          "name": "account",
          "type": "address"
        }
      ],
      "name": "Paused",
      "type": "event"
    },
    {
      "anonymous": false,
      "inputs": [
        {
          "indexed": true,
          "internalType": "address",
          "name": "from",
          "type": "address"
        },
        {
          "indexed": true,
          "internalType": "address",
          "name": "to",
          "type": "address"
        },
        {
          "indexed": true,
          "internalType": "uint256",
          "name": "tokenId",
          "type": "uint256"
        }
      ],
      "name": "Transfer",
      "type": "event"
    },
    {
      "anonymous": false,
      "inputs": [
        {
          "indexed": false,
          "internalType": "address",
          "name": "account",
          "type": "address"
        }
      ],
      "name": "Unpaused",
      "type": "event"
    },
    {
      "inputs": [
        {
          "internalType": "address",
          "name": "to",
          "type": "address"
        },
        {
          "internalType": "uint256",
          "name": "tokenId",
          "type": "uint256"
        }
      ],
      "name": "approve",
      "outputs": [],
      "stateMutability": "nonpayable",
      "type": "function"
    },
    {
      "inputs": [
        {
          "internalType": "address",
          "name": "owner",
          "type": "address"
        }
      ],
      "name": "balanceOf",
      "outputs": [
        {
          "internalType": "uint256",
          "name": "",
          "type": "uint256"
        }
      ],
      "stateMutability": "view",
      "type": "function"
    },
    {
      "inputs": [
        {
          "internalType": "uint256",
          "name": "tokenId",
          "type": "uint256"
        }
      ],
      "name": "burn",
      "outputs": [],
      "stateMutability": "nonpayable",
      "type": "function"
    },
    {
      "inputs": [],
      "name": "contractURI",
      "outputs": [
        {
          "internalType": "string",
          "name": "",
          "type": "string"
        }
      ],
      "stateMutability": "pure",
      "type": "function"
    },
    {
      "inputs": [
        {
          "internalType": "uint256",
          "name": "tokenId",
          "type": "uint256"
        }
      ],
      "name": "getApproved",
      "outputs": [
        {
          "internalType": "address",
          "name": "",
          "type": "address"
        }
      ],
      "stateMutability": "view",
      "type": "function"
    },
    {
      "inputs": [],
      "name": "getFee",
      "outputs": [
        {
          "internalType": "uint256",
          "name": "",
          "type": "uint256"
        }
      ],
      "stateMutability": "view",
      "type": "function"
    },
    {
      "inputs": [
        {
          "internalType": "address",
          "name": "owner",
          "type": "address"
        },
        {
          "internalType": "address",
          "name": "operator",
          "type": "address"
        }
      ],
      "name": "isApprovedForAll",
      "outputs": [
        {
          "internalType": "bool",
          "name": "",
          "type": "bool"
        }
      ],
      "stateMutability": "view",
      "type": "function"
    },
    {
      "inputs": [],
      "name": "name",
      "outputs": [
        {
          "internalType": "string",
          "name": "",
          "type": "string"
        }
      ],
      "stateMutability": "view",
      "type": "function"
    },
    {
      "inputs": [],
      "name": "owner",
      "outputs": [
        {
          "internalType": "address",
          "name": "",
          "type": "address"
        }
      ],
      "stateMutability": "view",
      "type": "function"
    },
    {
      "inputs": [
        {
          "internalType": "uint256",
          "name": "tokenId",
          "type": "uint256"
        }
      ],
      "name": "ownerOf",
      "outputs": [
        {
          "internalType": "address",
          "name": "",
          "type": "address"
        }
      ],
      "stateMutability": "view",
      "type": "function"
    },
    {
      "inputs": [],
      "name": "pause",
      "outputs": [],
      "stateMutability": "nonpayable",
      "type": "function"
    },
    {
      "inputs": [],
      "name": "paused",
      "outputs": [
        {
          "internalType": "bool",
          "name": "",
          "type": "bool"
        }
      ],
      "stateMutability": "view",
      "type": "function"
    },
    {
      "inputs": [],
      "name": "renounceOwnership",
      "outputs": [],
      "stateMutability": "nonpayable",
      "type": "function"
    },
    {
      "inputs": [
        {
          "internalType": "uint256",
          "name": "_tokenId",
          "type": "uint256"
        },
        {
          "internalType": "uint256",
          "name": "_salePrice",
          "type": "uint256"
        }
      ],
      "name": "royaltyInfo",
      "outputs": [
        {
          "internalType": "address",
          "name": "",
          "type": "address"
        },
        {
          "internalType": "uint256",
          "name": "",
          "type": "uint256"
        }
      ],
      "stateMutability": "view",
      "type": "function"
    },
    {
      "inputs": [
        {
          "internalType": "address",
          "name": "to",
          "type": "address"
        }
      ],
      "name": "safeMint",
      "outputs": [],
      "stateMutability": "payable",
      "type": "function"
    },
    {
      "inputs": [
        {
          "internalType": "address",
          "name": "to",
          "type": "address"
        },
        {
          "internalType": "uint256",
          "name": "amount",
          "type": "uint256"
        }
      ],
      "name": "safeMintMany",
      "outputs": [],
      "stateMutability": "payable",
      "type": "function"
    },
    {
      "inputs": [
        {
          "internalType": "address",
          "name": "from",
          "type": "address"
        },
        {
          "internalType": "address",
          "name": "to",
          "type": "address"
        },
        {
          "internalType": "uint256",
          "name": "tokenId",
          "type": "uint256"
        }
      ],
      "name": "safeTransferFrom",
      "outputs": [],
      "stateMutability": "nonpayable",
      "type": "function"
    },
    {
      "inputs": [
        {
          "internalType": "address",
          "name": "from",
          "type": "address"
        },
        {
          "internalType": "address",
          "name": "to",
          "type": "address"
        },
        {
          "internalType": "uint256",
          "name": "tokenId",
          "type": "uint256"
        },
        {
          "internalType": "bytes",
          "name": "data",
          "type": "bytes"
        }
      ],
      "name": "safeTransferFrom",
      "outputs": [],
      "stateMutability": "nonpayable",
      "type": "function"
    },
    {
      "inputs": [
        {
          "internalType": "address",
          "name": "operator",
          "type": "address"
        },
        {
          "internalType": "bool",
          "name": "approved",
          "type": "bool"
        }
      ],
      "name": "setApprovalForAll",
      "outputs": [],
      "stateMutability": "nonpayable",
      "type": "function"
    },
    {
      "inputs": [
        {
          "internalType": "string",
          "name": "newBaseURI",
          "type": "string"
        }
      ],
      "name": "setBaseURI",
      "outputs": [],
      "stateMutability": "nonpayable",
      "type": "function"
    },
    {
      "inputs": [
        {
          "internalType": "address",
          "name": "receiver",
          "type": "address"
        },
        {
          "internalType": "uint96",
          "name": "feeNumerator",
          "type": "uint96"
        }
      ],
      "name": "setDefaultRoyalty",
      "outputs": [],
      "stateMutability": "nonpayable",
      "type": "function"
    },
    {
      "inputs": [
        {
          "internalType": "uint256",
          "name": "fee",
          "type": "uint256"
        }
      ],
      "name": "setFee",
      "outputs": [],
      "stateMutability": "nonpayable",
      "type": "function"
    },
    {
      "inputs": [
        {
          "internalType": "uint256",
          "name": "newSupply",
          "type": "uint256"
        }
      ],
      "name": "setTotalSupply",
      "outputs": [],
      "stateMutability": "nonpayable",
      "type": "function"
    },
    {
      "inputs": [],
      "name": "supply",
      "outputs": [
        {
          "internalType": "uint256",
          "name": "",
          "type": "uint256"
        }
      ],
      "stateMutability": "view",
      "type": "function"
    },
    {
      "inputs": [
        {
          "internalType": "bytes4",
          "name": "interfaceId",
          "type": "bytes4"
        }
      ],
      "name": "supportsInterface",
      "outputs": [
        {
          "internalType": "bool",
          "name": "",
          "type": "bool"
        }
      ],
      "stateMutability": "view",
      "type": "function"
    },
    {
      "inputs": [],
      "name": "symbol",
      "outputs": [
        {
          "internalType": "string",
          "name": "",
          "type": "string"
        }
      ],
      "stateMutability": "view",
      "type": "function"
    },
    {
      "inputs": [
        {
          "internalType": "uint256",
          "name": "index",
          "type": "uint256"
        }
      ],
      "name": "tokenByIndex",
      "outputs": [
        {
          "internalType": "uint256",
          "name": "",
          "type": "uint256"
        }
      ],
      "stateMutability": "view",
      "type": "function"
    },
    {
      "inputs": [
        {
          "internalType": "address",
          "name": "owner",
          "type": "address"
        },
        {
          "internalType": "uint256",
          "name": "index",
          "type": "uint256"
        }
      ],
      "name": "tokenOfOwnerByIndex",
      "outputs": [
        {
          "internalType": "uint256",
          "name": "",
          "type": "uint256"
        }
      ],
      "stateMutability": "view",
      "type": "function"
    },
    {
      "inputs": [
        {
          "internalType": "uint256",
          "name": "tokenId",
          "type": "uint256"
        }
      ],
      "name": "tokenURI",
      "outputs": [
        {
          "internalType": "string",
          "name": "",
          "type": "string"
        }
      ],
      "stateMutability": "view",
      "type": "function"
    },
    {
      "inputs": [],
      "name": "totalSupply",
      "outputs": [
        {
          "internalType": "uint256",
          "name": "",
          "type": "uint256"
        }
      ],
      "stateMutability": "view",
      "type": "function"
    },
    {
      "inputs": [
        {
          "internalType": "address",
          "name": "from",
          "type": "address"
        },
        {
          "internalType": "address",
          "name": "to",
          "type": "address"
        },
        {
          "internalType": "uint256",
          "name": "tokenId",
          "type": "uint256"
        }
      ],
      "name": "transferFrom",
      "outputs": [],
      "stateMutability": "nonpayable",
      "type": "function"
    },
    {
      "inputs": [
        {
          "internalType": "address",
          "name": "newOwner",
          "type": "address"
        }
      ],
      "name": "transferOwnership",
      "outputs": [],
      "stateMutability": "nonpayable",
      "type": "function"
    },
    {
      "inputs": [],
      "name": "unpause",
      "outputs": [],
      "stateMutability": "nonpayable",
      "type": "function"
    }
  ],
  "bytecode": "0x6080604052662386f26fc10000600f553480156200001c57600080fd5b506040516200471838038062004718833981810160405281019062000042919062000320565b6040518060400160405280600481526020017f42696b65000000000000000000000000000000000000000000000000000000008152506040518060400160405280600481526020017f42494b45000000000000000000000000000000000000000000000000000000008152508160029080519060200190620000c692919062000242565b508060039080519060200190620000df92919062000242565b5050506000600c60006101000a81548160ff0219169083151502179055506200011d620001116200017460201b60201c565b6200017c60201b60201c565b62000133826200017c60201b6200146a1760201c565b604051806080016040528060508152602001620046c860509139600e90805190602001906200016492919062000242565b5080601081905550505062000438565b600033905090565b6000600c60019054906101000a900473ffffffffffffffffffffffffffffffffffffffff16905081600c60016101000a81548173ffffffffffffffffffffffffffffffffffffffff021916908373ffffffffffffffffffffffffffffffffffffffff1602179055508173ffffffffffffffffffffffffffffffffffffffff168173ffffffffffffffffffffffffffffffffffffffff167f8be0079c531659141344cd1fd0a4f28419497f9722a3daafe3b4186f6b6457e060405160405180910390a35050565b82805462000250906200039f565b90600052602060002090601f016020900481019282620002745760008555620002c0565b82601f106200028f57805160ff1916838001178555620002c0565b82800160010185558215620002c0579182015b82811115620002bf578251825591602001919060010190620002a2565b5b509050620002cf9190620002d3565b5090565b5b80821115620002ee576000816000905550600101620002d4565b5090565b600081519050620003038162000404565b92915050565b6000815190506200031a816200041e565b92915050565b600080604083850312156200033457600080fd5b60006200034485828601620002f2565b9250506020620003578582860162000309565b9150509250929050565b60006200036e8262000375565b9050919050565b600073ffffffffffffffffffffffffffffffffffffffff82169050919050565b6000819050919050565b60006002820490506001821680620003b857607f821691505b60208210811415620003cf57620003ce620003d5565b5b50919050565b7f4e487b7100000000000000000000000000000000000000000000000000000000600052602260045260246000fd5b6200040f8162000361565b81146200041b57600080fd5b50565b620004298162000395565b81146200043557600080fd5b50565b61428080620004486000396000f3fe6080604052600436106101ee5760003560e01c80635c975abb1161010d57806395d89b41116100a0578063ced72f871161006f578063ced72f87146106cc578063e8a3d485146106f7578063e985e9c514610722578063f2fde38b1461075f578063f7ea7a3d14610788576101ee565b806395d89b4114610612578063a22cb4651461063d578063b88d4fde14610666578063c87b56dd1461068f576101ee565b8063715018a6116100dc578063715018a61461059d5780638456cb59146105b45780638da5cb5b146105cb5780638fe4a245146105f6576101ee565b80635c975abb146104cf5780636352211e146104fa57806369fe0e2d1461053757806370a0823114610560576101ee565b80632a55205a1161018557806342842e0e1161015457806342842e0e1461041757806342966c68146104405780634f6ccce71461046957806355f804b3146104a6576101ee565b80632a55205a146103695780632f745c59146103a75780633f4ba83a146103e457806340d097c3146103fb576101ee565b8063081812fc116101c1578063081812fc146102af578063095ea7b3146102ec57806318160ddd1461031557806323b872dd14610340576101ee565b806301ffc9a7146101f357806304634d8d14610230578063047fc9aa1461025957806306fdde0314610284575b600080fd5b3480156101ff57600080fd5b5061021a60048036038101906102159190613017565b6107b1565b6040516102279190613565565b60405180910390f35b34801561023c57600080fd5b5061025760048036038101906102529190612fdb565b6107c3565b005b34801561026557600080fd5b5061026e6107d9565b60405161027b9190613842565b60405180910390f35b34801561029057600080fd5b506102996107df565b6040516102a69190613580565b60405180910390f35b3480156102bb57600080fd5b506102d660048036038101906102d191906130aa565b610871565b6040516102e391906134d5565b60405180910390f35b3480156102f857600080fd5b50610313600480360381019061030e9190612f9f565b6108b7565b005b34801561032157600080fd5b5061032a6109cf565b6040516103379190613842565b60405180910390f35b34801561034c57600080fd5b5061036760048036038101906103629190612e99565b6109dc565b005b34801561037557600080fd5b50610390600480360381019061038b91906130d3565b610a3c565b60405161039e92919061353c565b60405180910390f35b3480156103b357600080fd5b506103ce60048036038101906103c99190612f9f565b610c27565b6040516103db9190613842565b60405180910390f35b3480156103f057600080fd5b506103f9610ccc565b005b61041560048036038101906104109190612e34565b610cde565b005b34801561042357600080fd5b5061043e60048036038101906104399190612e99565b610d8e565b005b34801561044c57600080fd5b50610467600480360381019061046291906130aa565b610dae565b005b34801561047557600080fd5b50610490600480360381019061048b91906130aa565b610e0a565b60405161049d9190613842565b60405180910390f35b3480156104b257600080fd5b506104cd60048036038101906104c89190613069565b610ea1565b005b3480156104db57600080fd5b506104e4610ec3565b6040516104f19190613565565b60405180910390f35b34801561050657600080fd5b50610521600480360381019061051c91906130aa565b610eda565b60405161052e91906134d5565b60405180910390f35b34801561054357600080fd5b5061055e600480360381019061055991906130aa565b610f8c565b005b34801561056c57600080fd5b5061058760048036038101906105829190612e34565b610fb1565b6040516105949190613842565b60405180910390f35b3480156105a957600080fd5b506105b2611069565b005b3480156105c057600080fd5b506105c961107d565b005b3480156105d757600080fd5b506105e061108f565b6040516105ed91906134d5565b60405180910390f35b610610600480360381019061060b9190612f9f565b6110b9565b005b34801561061e57600080fd5b506106276111ae565b6040516106349190613580565b60405180910390f35b34801561064957600080fd5b50610664600480360381019061065f9190612f63565b611240565b005b34801561067257600080fd5b5061068d60048036038101906106889190612ee8565b611256565b005b34801561069b57600080fd5b506106b660048036038101906106b191906130aa565b6112b8565b6040516106c39190613580565b60405180910390f35b3480156106d857600080fd5b506106e1611316565b6040516106ee9190613842565b60405180910390f35b34801561070357600080fd5b5061070c611320565b6040516107199190613580565b60405180910390f35b34801561072e57600080fd5b5061074960048036038101906107449190612e5d565b611340565b6040516107569190613565565b60405180910390f35b34801561076b57600080fd5b5061078660048036038101906107819190612e34565b6113d4565b005b34801561079457600080fd5b506107af60048036038101906107aa91906130aa565b611458565b005b60006107bc82611530565b9050919050565b6107cb611542565b6107d582826115c0565b5050565b60105481565b6060600280546107ee90613b17565b80601f016020809104026020016040519081016040528092919081815260200182805461081a90613b17565b80156108675780601f1061083c57610100808354040283529160200191610867565b820191906000526020600020905b81548152906001019060200180831161084a57829003601f168201915b5050505050905090565b600061087c82611755565b6006600083815260200190815260200160002060009054906101000a900473ffffffffffffffffffffffffffffffffffffffff169050919050565b60006108c282610eda565b90508073ffffffffffffffffffffffffffffffffffffffff168373ffffffffffffffffffffffffffffffffffffffff161415610933576040517f08c379a000000000000000000000000000000000000000000000000000000000815260040161092a906137a2565b60405180910390fd5b8073ffffffffffffffffffffffffffffffffffffffff166109526117a0565b73ffffffffffffffffffffffffffffffffffffffff16148061098157506109808161097b6117a0565b611340565b5b6109c0576040517f08c379a00000000000000000000000000000000000000000000000000000000081526004016109b790613702565b60405180910390fd5b6109ca83836117a8565b505050565b6000600a80549050905090565b6109ed6109e76117a0565b82611861565b610a2c576040517f08c379a0000000000000000000000000000000000000000000000000000000008152600401610a2390613802565b60405180910390fd5b610a378383836118f6565b505050565b6000806000600160008681526020019081526020016000206040518060400160405290816000820160009054906101000a900473ffffffffffffffffffffffffffffffffffffffff1673ffffffffffffffffffffffffffffffffffffffff1673ffffffffffffffffffffffffffffffffffffffff1681526020016000820160149054906101000a90046bffffffffffffffffffffffff166bffffffffffffffffffffffff166bffffffffffffffffffffffff16815250509050600073ffffffffffffffffffffffffffffffffffffffff16816000015173ffffffffffffffffffffffffffffffffffffffff161415610bd25760006040518060400160405290816000820160009054906101000a900473ffffffffffffffffffffffffffffffffffffffff1673ffffffffffffffffffffffffffffffffffffffff1673ffffffffffffffffffffffffffffffffffffffff1681526020016000820160149054906101000a90046bffffffffffffffffffffffff166bffffffffffffffffffffffff166bffffffffffffffffffffffff168152505090505b6000610bdc611b5d565b6bffffffffffffffffffffffff1682602001516bffffffffffffffffffffffff1686610c0891906139ae565b610c12919061397d565b90508160000151819350935050509250929050565b6000610c3283610fb1565b8210610c73576040517f08c379a0000000000000000000000000000000000000000000000000000000008152600401610c6a906135c2565b60405180910390fd5b600860008473ffffffffffffffffffffffffffffffffffffffff1673ffffffffffffffffffffffffffffffffffffffff168152602001908152602001600020600083815260200190815260200160002054905092915050565b610cd4611542565b610cdc611b67565b565b610ce8600d611bca565b6000610cf4600d611be0565b9050601054811115610d3b576040517f08c379a0000000000000000000000000000000000000000000000000000000008152600401610d3290613762565b60405180910390fd5b600f54341015610d80576040517f08c379a0000000000000000000000000000000000000000000000000000000008152600401610d77906136a2565b60405180910390fd5b610d8a8282611bee565b5050565b610da983838360405180602001604052806000815250611256565b505050565b610dbf610db96117a0565b82611861565b610dfe576040517f08c379a0000000000000000000000000000000000000000000000000000000008152600401610df590613802565b60405180910390fd5b610e0781611c0c565b50565b6000610e146109cf565b8210610e55576040517f08c379a0000000000000000000000000000000000000000000000000000000008152600401610e4c906137c2565b60405180910390fd5b600a8281548110610e8f577f4e487b7100000000000000000000000000000000000000000000000000000000600052603260045260246000fd5b90600052602060002001549050919050565b610ea9611542565b80600e9080519060200190610ebf929190612c43565b5050565b6000600c60009054906101000a900460ff16905090565b6000806004600084815260200190815260200160002060009054906101000a900473ffffffffffffffffffffffffffffffffffffffff169050600073ffffffffffffffffffffffffffffffffffffffff168173ffffffffffffffffffffffffffffffffffffffff161415610f83576040517f08c379a0000000000000000000000000000000000000000000000000000000008152600401610f7a90613782565b60405180910390fd5b80915050919050565b610f94611542565b67016345785d8a000081610fa891906139ae565b600f8190555050565b60008073ffffffffffffffffffffffffffffffffffffffff168273ffffffffffffffffffffffffffffffffffffffff161415611022576040517f08c379a0000000000000000000000000000000000000000000000000000000008152600401611019906136e2565b60405180910390fd5b600560008373ffffffffffffffffffffffffffffffffffffffff1673ffffffffffffffffffffffffffffffffffffffff168152602001908152602001600020549050919050565b611071611542565b61107b600061146a565b565b611085611542565b61108d611c18565b565b6000600c60019054906101000a900473ffffffffffffffffffffffffffffffffffffffff16905090565b601054816110c7600d611be0565b6110d19190613927565b1115611112576040517f08c379a000000000000000000000000000000000000000000000000000000000815260040161110990613762565b60405180910390fd5b600f548161112091906139ae565b341015611162576040517f08c379a0000000000000000000000000000000000000000000000000000000008152600401611159906136a2565b60405180910390fd5b600080600090505b828160ff1610156111a85761117f600d611bca565b611189600d611be0565b91506111958483611bee565b80806111a090613b7a565b91505061116a565b50505050565b6060600380546111bd90613b17565b80601f01602080910402602001604051908101604052809291908181526020018280546111e990613b17565b80156112365780601f1061120b57610100808354040283529160200191611236565b820191906000526020600020905b81548152906001019060200180831161121957829003601f168201915b5050505050905090565b61125261124b6117a0565b8383611c7b565b5050565b6112676112616117a0565b83611861565b6112a6576040517f08c379a000000000000000000000000000000000000000000000000000000000815260040161129d90613802565b60405180910390fd5b6112b284848484611de8565b50505050565b60606112c382611755565b60006112cd611e44565b905060008151116112ed576040518060200160405280600081525061130e565b806040516020016112fe91906134be565b6040516020818303038152906040525b915050919050565b6000600f54905090565b60606040518060a00160405280606781526020016141e460679139905090565b6000600760008473ffffffffffffffffffffffffffffffffffffffff1673ffffffffffffffffffffffffffffffffffffffff16815260200190815260200160002060008373ffffffffffffffffffffffffffffffffffffffff1673ffffffffffffffffffffffffffffffffffffffff16815260200190815260200160002060009054906101000a900460ff16905092915050565b6113dc611542565b600073ffffffffffffffffffffffffffffffffffffffff168173ffffffffffffffffffffffffffffffffffffffff16141561144c576040517f08c379a000000000000000000000000000000000000000000000000000000000815260040161144390613602565b60405180910390fd5b6114558161146a565b50565b611460611542565b8060108190555050565b6000600c60019054906101000a900473ffffffffffffffffffffffffffffffffffffffff16905081600c60016101000a81548173ffffffffffffffffffffffffffffffffffffffff021916908373ffffffffffffffffffffffffffffffffffffffff1602179055508173ffffffffffffffffffffffffffffffffffffffff168173ffffffffffffffffffffffffffffffffffffffff167f8be0079c531659141344cd1fd0a4f28419497f9722a3daafe3b4186f6b6457e060405160405180910390a35050565b600061153b82611ed6565b9050919050565b61154a6117a0565b73ffffffffffffffffffffffffffffffffffffffff1661156861108f565b73ffffffffffffffffffffffffffffffffffffffff16146115be576040517f08c379a00000000000000000000000000000000000000000000000000000000081526004016115b590613742565b60405180910390fd5b565b6115c8611b5d565b6bffffffffffffffffffffffff16816bffffffffffffffffffffffff161115611626576040517f08c379a000000000000000000000000000000000000000000000000000000000815260040161161d906137e2565b60405180910390fd5b600073ffffffffffffffffffffffffffffffffffffffff168273ffffffffffffffffffffffffffffffffffffffff161415611696576040517f08c379a000000000000000000000000000000000000000000000000000000000815260040161168d90613822565b60405180910390fd5b60405180604001604052808373ffffffffffffffffffffffffffffffffffffffff168152602001826bffffffffffffffffffffffff168152506000808201518160000160006101000a81548173ffffffffffffffffffffffffffffffffffffffff021916908373ffffffffffffffffffffffffffffffffffffffff16021790555060208201518160000160146101000a8154816bffffffffffffffffffffffff02191690836bffffffffffffffffffffffff1602179055509050505050565b61175e81611f50565b61179d576040517f08c379a000000000000000000000000000000000000000000000000000000000815260040161179490613782565b60405180910390fd5b50565b600033905090565b816006600083815260200190815260200160002060006101000a81548173ffffffffffffffffffffffffffffffffffffffff021916908373ffffffffffffffffffffffffffffffffffffffff160217905550808273ffffffffffffffffffffffffffffffffffffffff1661181b83610eda565b73ffffffffffffffffffffffffffffffffffffffff167f8c5be1e5ebec7d5bd14f71427d1e84f3dd0314c0f7b2291e5b200ac8c7c3b92560405160405180910390a45050565b60008061186d83610eda565b90508073ffffffffffffffffffffffffffffffffffffffff168473ffffffffffffffffffffffffffffffffffffffff1614806118af57506118ae8185611340565b5b806118ed57508373ffffffffffffffffffffffffffffffffffffffff166118d584610871565b73ffffffffffffffffffffffffffffffffffffffff16145b91505092915050565b8273ffffffffffffffffffffffffffffffffffffffff1661191682610eda565b73ffffffffffffffffffffffffffffffffffffffff161461196c576040517f08c379a000000000000000000000000000000000000000000000000000000000815260040161196390613622565b60405180910390fd5b600073ffffffffffffffffffffffffffffffffffffffff168273ffffffffffffffffffffffffffffffffffffffff1614156119dc576040517f08c379a00000000000000000000000000000000000000000000000000000000081526004016119d390613662565b60405180910390fd5b6119e7838383611fbc565b6119f26000826117a8565b6001600560008573ffffffffffffffffffffffffffffffffffffffff1673ffffffffffffffffffffffffffffffffffffffff1681526020019081526020016000206000828254611a429190613a08565b925050819055506001600560008473ffffffffffffffffffffffffffffffffffffffff1673ffffffffffffffffffffffffffffffffffffffff1681526020019081526020016000206000828254611a999190613927565b92505081905550816004600083815260200190815260200160002060006101000a81548173ffffffffffffffffffffffffffffffffffffffff021916908373ffffffffffffffffffffffffffffffffffffffff160217905550808273ffffffffffffffffffffffffffffffffffffffff168473ffffffffffffffffffffffffffffffffffffffff167fddf252ad1be2c89b69c2b068fc378daa952ba7f163c4a11628f55a4df523b3ef60405160405180910390a4611b58838383611fd4565b505050565b6000612710905090565b611b6f611fd9565b6000600c60006101000a81548160ff0219169083151502179055507f5db9ee0a495bf2e6ff9c91a7834c1ba4fdd244a5e8aa4e537bd38aeae4b073aa611bb36117a0565b604051611bc091906134d5565b60405180910390a1565b6001816000016000828254019250508190555050565b600081600001549050919050565b611c08828260405180602001604052806000815250612022565b5050565b611c158161207d565b50565b611c20612092565b6001600c60006101000a81548160ff0219169083151502179055507f62e78cea01bee320cd4e420270b5ea74000d11b0c9f74754ebdbfc544b05a258611c646117a0565b604051611c7191906134d5565b60405180910390a1565b8173ffffffffffffffffffffffffffffffffffffffff168373ffffffffffffffffffffffffffffffffffffffff161415611cea576040517f08c379a0000000000000000000000000000000000000000000000000000000008152600401611ce190613682565b60405180910390fd5b80600760008573ffffffffffffffffffffffffffffffffffffffff1673ffffffffffffffffffffffffffffffffffffffff16815260200190815260200160002060008473ffffffffffffffffffffffffffffffffffffffff1673ffffffffffffffffffffffffffffffffffffffff16815260200190815260200160002060006101000a81548160ff0219169083151502179055508173ffffffffffffffffffffffffffffffffffffffff168373ffffffffffffffffffffffffffffffffffffffff167f17307eab39ab6107e8899845ad3d59bd9653f200f220920489ca2b5937696c3183604051611ddb9190613565565b60405180910390a3505050565b611df38484846118f6565b611dff848484846120dc565b611e3e576040517f08c379a0000000000000000000000000000000000000000000000000000000008152600401611e35906135e2565b60405180910390fd5b50505050565b6060600e8054611e5390613b17565b80601f0160208091040260200160405190810160405280929190818152602001828054611e7f90613b17565b8015611ecc5780601f10611ea157610100808354040283529160200191611ecc565b820191906000526020600020905b815481529060010190602001808311611eaf57829003601f168201915b5050505050905090565b60007f780e9d63000000000000000000000000000000000000000000000000000000007bffffffffffffffffffffffffffffffffffffffffffffffffffffffff1916827bffffffffffffffffffffffffffffffffffffffffffffffffffffffff19161480611f495750611f4882612273565b5b9050919050565b60008073ffffffffffffffffffffffffffffffffffffffff166004600084815260200190815260200160002060009054906101000a900473ffffffffffffffffffffffffffffffffffffffff1673ffffffffffffffffffffffffffffffffffffffff1614159050919050565b611fc4612092565b611fcf838383612355565b505050565b505050565b611fe1610ec3565b612020576040517f08c379a0000000000000000000000000000000000000000000000000000000008152600401612017906135a2565b60405180910390fd5b565b61202c8383612469565b61203960008484846120dc565b612078576040517f08c379a000000000000000000000000000000000000000000000000000000000815260040161206f906135e2565b60405180910390fd5b505050565b61208681612643565b61208f81612760565b50565b61209a610ec3565b156120da576040517f08c379a00000000000000000000000000000000000000000000000000000000081526004016120d1906136c2565b60405180910390fd5b565b60006120fd8473ffffffffffffffffffffffffffffffffffffffff166127bf565b15612266578373ffffffffffffffffffffffffffffffffffffffff1663150b7a026121266117a0565b8786866040518563ffffffff1660e01b815260040161214894939291906134f0565b602060405180830381600087803b15801561216257600080fd5b505af192505050801561219357506040513d601f19601f820116820180604052508101906121909190613040565b60015b612216573d80600081146121c3576040519150601f19603f3d011682016040523d82523d6000602084013e6121c8565b606091505b5060008151141561220e576040517f08c379a0000000000000000000000000000000000000000000000000000000008152600401612205906135e2565b60405180910390fd5b805181602001fd5b63150b7a0260e01b7bffffffffffffffffffffffffffffffffffffffffffffffffffffffff1916817bffffffffffffffffffffffffffffffffffffffffffffffffffffffff19161491505061226b565b600190505b949350505050565b60007f80ac58cd000000000000000000000000000000000000000000000000000000007bffffffffffffffffffffffffffffffffffffffffffffffffffffffff1916827bffffffffffffffffffffffffffffffffffffffffffffffffffffffff1916148061233e57507f5b5e139f000000000000000000000000000000000000000000000000000000007bffffffffffffffffffffffffffffffffffffffffffffffffffffffff1916827bffffffffffffffffffffffffffffffffffffffffffffffffffffffff1916145b8061234e575061234d826127e2565b5b9050919050565b61236083838361285c565b600073ffffffffffffffffffffffffffffffffffffffff168373ffffffffffffffffffffffffffffffffffffffff1614156123a35761239e81612861565b6123e2565b8173ffffffffffffffffffffffffffffffffffffffff168373ffffffffffffffffffffffffffffffffffffffff16146123e1576123e083826128aa565b5b5b600073ffffffffffffffffffffffffffffffffffffffff168273ffffffffffffffffffffffffffffffffffffffff1614156124255761242081612a17565b612464565b8273ffffffffffffffffffffffffffffffffffffffff168273ffffffffffffffffffffffffffffffffffffffff1614612463576124628282612b5a565b5b5b505050565b600073ffffffffffffffffffffffffffffffffffffffff168273ffffffffffffffffffffffffffffffffffffffff1614156124d9576040517f08c379a00000000000000000000000000000000000000000000000000000000081526004016124d090613722565b60405180910390fd5b6124e281611f50565b15612522576040517f08c379a000000000000000000000000000000000000000000000000000000000815260040161251990613642565b60405180910390fd5b61252e60008383611fbc565b6001600560008473ffffffffffffffffffffffffffffffffffffffff1673ffffffffffffffffffffffffffffffffffffffff168152602001908152602001600020600082825461257e9190613927565b92505081905550816004600083815260200190815260200160002060006101000a81548173ffffffffffffffffffffffffffffffffffffffff021916908373ffffffffffffffffffffffffffffffffffffffff160217905550808273ffffffffffffffffffffffffffffffffffffffff16600073ffffffffffffffffffffffffffffffffffffffff167fddf252ad1be2c89b69c2b068fc378daa952ba7f163c4a11628f55a4df523b3ef60405160405180910390a461263f60008383611fd4565b5050565b600061264e82610eda565b905061265c81600084611fbc565b6126676000836117a8565b6001600560008373ffffffffffffffffffffffffffffffffffffffff1673ffffffffffffffffffffffffffffffffffffffff16815260200190815260200160002060008282546126b79190613a08565b925050819055506004600083815260200190815260200160002060006101000a81549073ffffffffffffffffffffffffffffffffffffffff021916905581600073ffffffffffffffffffffffffffffffffffffffff168273ffffffffffffffffffffffffffffffffffffffff167fddf252ad1be2c89b69c2b068fc378daa952ba7f163c4a11628f55a4df523b3ef60405160405180910390a461275c81600084611fd4565b5050565b60016000828152602001908152602001600020600080820160006101000a81549073ffffffffffffffffffffffffffffffffffffffff02191690556000820160146101000a8154906bffffffffffffffffffffffff0219169055505050565b6000808273ffffffffffffffffffffffffffffffffffffffff163b119050919050565b60007f2a55205a000000000000000000000000000000000000000000000000000000007bffffffffffffffffffffffffffffffffffffffffffffffffffffffff1916827bffffffffffffffffffffffffffffffffffffffffffffffffffffffff19161480612855575061285482612bd9565b5b9050919050565b505050565b600a80549050600b600083815260200190815260200160002081905550600a81908060018154018082558091505060019003906000526020600020016000909190919091505550565b600060016128b784610fb1565b6128c19190613a08565b90506000600960008481526020019081526020016000205490508181146129a6576000600860008673ffffffffffffffffffffffffffffffffffffffff1673ffffffffffffffffffffffffffffffffffffffff168152602001908152602001600020600084815260200190815260200160002054905080600860008773ffffffffffffffffffffffffffffffffffffffff1673ffffffffffffffffffffffffffffffffffffffff168152602001908152602001600020600084815260200190815260200160002081905550816009600083815260200190815260200160002081905550505b6009600084815260200190815260200160002060009055600860008573ffffffffffffffffffffffffffffffffffffffff1673ffffffffffffffffffffffffffffffffffffffff16815260200190815260200160002060008381526020019081526020016000206000905550505050565b60006001600a80549050612a2b9190613a08565b90506000600b60008481526020019081526020016000205490506000600a8381548110612a81577f4e487b7100000000000000000000000000000000000000000000000000000000600052603260045260246000fd5b9060005260206000200154905080600a8381548110612ac9577f4e487b7100000000000000000000000000000000000000000000000000000000600052603260045260246000fd5b906000526020600020018190555081600b600083815260200190815260200160002081905550600b600085815260200190815260200160002060009055600a805480612b3e577f4e487b7100000000000000000000000000000000000000000000000000000000600052603160045260246000fd5b6001900381819060005260206000200160009055905550505050565b6000612b6583610fb1565b905081600860008573ffffffffffffffffffffffffffffffffffffffff1673ffffffffffffffffffffffffffffffffffffffff168152602001908152602001600020600083815260200190815260200160002081905550806009600084815260200190815260200160002081905550505050565b60007f01ffc9a7000000000000000000000000000000000000000000000000000000007bffffffffffffffffffffffffffffffffffffffffffffffffffffffff1916827bffffffffffffffffffffffffffffffffffffffffffffffffffffffff1916149050919050565b828054612c4f90613b17565b90600052602060002090601f016020900481019282612c715760008555612cb8565b82601f10612c8a57805160ff1916838001178555612cb8565b82800160010185558215612cb8579182015b82811115612cb7578251825591602001919060010190612c9c565b5b509050612cc59190612cc9565b5090565b5b80821115612ce2576000816000905550600101612cca565b5090565b6000612cf9612cf484613882565b61385d565b905082815260208101848484011115612d1157600080fd5b612d1c848285613ad5565b509392505050565b6000612d37612d32846138b3565b61385d565b905082815260208101848484011115612d4f57600080fd5b612d5a848285613ad5565b509392505050565b600081359050612d7181614170565b92915050565b600081359050612d8681614187565b92915050565b600081359050612d9b8161419e565b92915050565b600081519050612db08161419e565b92915050565b600082601f830112612dc757600080fd5b8135612dd7848260208601612ce6565b91505092915050565b600082601f830112612df157600080fd5b8135612e01848260208601612d24565b91505092915050565b600081359050612e19816141b5565b92915050565b600081359050612e2e816141cc565b92915050565b600060208284031215612e4657600080fd5b6000612e5484828501612d62565b91505092915050565b60008060408385031215612e7057600080fd5b6000612e7e85828601612d62565b9250506020612e8f85828601612d62565b9150509250929050565b600080600060608486031215612eae57600080fd5b6000612ebc86828701612d62565b9350506020612ecd86828701612d62565b9250506040612ede86828701612e0a565b9150509250925092565b60008060008060808587031215612efe57600080fd5b6000612f0c87828801612d62565b9450506020612f1d87828801612d62565b9350506040612f2e87828801612e0a565b925050606085013567ffffffffffffffff811115612f4b57600080fd5b612f5787828801612db6565b91505092959194509250565b60008060408385031215612f7657600080fd5b6000612f8485828601612d62565b9250506020612f9585828601612d77565b9150509250929050565b60008060408385031215612fb257600080fd5b6000612fc085828601612d62565b9250506020612fd185828601612e0a565b9150509250929050565b60008060408385031215612fee57600080fd5b6000612ffc85828601612d62565b925050602061300d85828601612e1f565b9150509250929050565b60006020828403121561302957600080fd5b600061303784828501612d8c565b91505092915050565b60006020828403121561305257600080fd5b600061306084828501612da1565b91505092915050565b60006020828403121561307b57600080fd5b600082013567ffffffffffffffff81111561309557600080fd5b6130a184828501612de0565b91505092915050565b6000602082840312156130bc57600080fd5b60006130ca84828501612e0a565b91505092915050565b600080604083850312156130e657600080fd5b60006130f485828601612e0a565b925050602061310585828601612e0a565b9150509250929050565b61311881613a3c565b82525050565b61312781613a4e565b82525050565b6000613138826138e4565b61314281856138fa565b9350613152818560208601613ae4565b61315b81613c60565b840191505092915050565b6000613171826138ef565b61317b818561390b565b935061318b818560208601613ae4565b61319481613c60565b840191505092915050565b60006131aa826138ef565b6131b4818561391c565b93506131c4818560208601613ae4565b80840191505092915050565b60006131dd60148361390b565b91506131e882613c71565b602082019050919050565b6000613200602b8361390b565b915061320b82613c9a565b604082019050919050565b600061322360328361390b565b915061322e82613ce9565b604082019050919050565b600061324660268361390b565b915061325182613d38565b604082019050919050565b600061326960258361390b565b915061327482613d87565b604082019050919050565b600061328c601c8361390b565b915061329782613dd6565b602082019050919050565b60006132af60248361390b565b91506132ba82613dff565b604082019050919050565b60006132d260198361390b565b91506132dd82613e4e565b602082019050919050565b60006132f560128361390b565b915061330082613e77565b602082019050919050565b600061331860108361390b565b915061332382613ea0565b602082019050919050565b600061333b60298361390b565b915061334682613ec9565b604082019050919050565b600061335e603e8361390b565b915061336982613f18565b604082019050919050565b600061338160208361390b565b915061338c82613f67565b602082019050919050565b60006133a460208361390b565b91506133af82613f90565b602082019050919050565b60006133c7600d8361390b565b91506133d282613fb9565b602082019050919050565b60006133ea60188361390b565b91506133f582613fe2565b602082019050919050565b600061340d60218361390b565b91506134188261400b565b604082019050919050565b6000613430602c8361390b565b915061343b8261405a565b604082019050919050565b6000613453602a8361390b565b915061345e826140a9565b604082019050919050565b6000613476602e8361390b565b9150613481826140f8565b604082019050919050565b600061349960198361390b565b91506134a482614147565b602082019050919050565b6134b881613aa6565b82525050565b60006134ca828461319f565b915081905092915050565b60006020820190506134ea600083018461310f565b92915050565b6000608082019050613505600083018761310f565b613512602083018661310f565b61351f60408301856134af565b8181036060830152613531818461312d565b905095945050505050565b6000604082019050613551600083018561310f565b61355e60208301846134af565b9392505050565b600060208201905061357a600083018461311e565b92915050565b6000602082019050818103600083015261359a8184613166565b905092915050565b600060208201905081810360008301526135bb816131d0565b9050919050565b600060208201905081810360008301526135db816131f3565b9050919050565b600060208201905081810360008301526135fb81613216565b9050919050565b6000602082019050818103600083015261361b81613239565b9050919050565b6000602082019050818103600083015261363b8161325c565b9050919050565b6000602082019050818103600083015261365b8161327f565b9050919050565b6000602082019050818103600083015261367b816132a2565b9050919050565b6000602082019050818103600083015261369b816132c5565b9050919050565b600060208201905081810360008301526136bb816132e8565b9050919050565b600060208201905081810360008301526136db8161330b565b9050919050565b600060208201905081810360008301526136fb8161332e565b9050919050565b6000602082019050818103600083015261371b81613351565b9050919050565b6000602082019050818103600083015261373b81613374565b9050919050565b6000602082019050818103600083015261375b81613397565b9050919050565b6000602082019050818103600083015261377b816133ba565b9050919050565b6000602082019050818103600083015261379b816133dd565b9050919050565b600060208201905081810360008301526137bb81613400565b9050919050565b600060208201905081810360008301526137db81613423565b9050919050565b600060208201905081810360008301526137fb81613446565b9050919050565b6000602082019050818103600083015261381b81613469565b9050919050565b6000602082019050818103600083015261383b8161348c565b9050919050565b600060208201905061385760008301846134af565b92915050565b6000613867613878565b90506138738282613b49565b919050565b6000604051905090565b600067ffffffffffffffff82111561389d5761389c613c31565b5b6138a682613c60565b9050602081019050919050565b600067ffffffffffffffff8211156138ce576138cd613c31565b5b6138d782613c60565b9050602081019050919050565b600081519050919050565b600081519050919050565b600082825260208201905092915050565b600082825260208201905092915050565b600081905092915050565b600061393282613aa6565b915061393d83613aa6565b9250827fffffffffffffffffffffffffffffffffffffffffffffffffffffffffffffffff0382111561397257613971613ba4565b5b828201905092915050565b600061398882613aa6565b915061399383613aa6565b9250826139a3576139a2613bd3565b5b828204905092915050565b60006139b982613aa6565b91506139c483613aa6565b9250817fffffffffffffffffffffffffffffffffffffffffffffffffffffffffffffffff04831182151516156139fd576139fc613ba4565b5b828202905092915050565b6000613a1382613aa6565b9150613a1e83613aa6565b925082821015613a3157613a30613ba4565b5b828203905092915050565b6000613a4782613a86565b9050919050565b60008115159050919050565b60007fffffffff0000000000000000000000000000000000000000000000000000000082169050919050565b600073ffffffffffffffffffffffffffffffffffffffff82169050919050565b6000819050919050565b600060ff82169050919050565b60006bffffffffffffffffffffffff82169050919050565b82818337600083830152505050565b60005b83811015613b02578082015181840152602081019050613ae7565b83811115613b11576000848401525b50505050565b60006002820490506001821680613b2f57607f821691505b60208210811415613b4357613b42613c02565b5b50919050565b613b5282613c60565b810181811067ffffffffffffffff82111715613b7157613b70613c31565b5b80604052505050565b6000613b8582613ab0565b915060ff821415613b9957613b98613ba4565b5b600182019050919050565b7f4e487b7100000000000000000000000000000000000000000000000000000000600052601160045260246000fd5b7f4e487b7100000000000000000000000000000000000000000000000000000000600052601260045260246000fd5b7f4e487b7100000000000000000000000000000000000000000000000000000000600052602260045260246000fd5b7f4e487b7100000000000000000000000000000000000000000000000000000000600052604160045260246000fd5b6000601f19601f8301169050919050565b7f5061757361626c653a206e6f7420706175736564000000000000000000000000600082015250565b7f455243373231456e756d657261626c653a206f776e657220696e646578206f7560008201527f74206f6620626f756e6473000000000000000000000000000000000000000000602082015250565b7f4552433732313a207472616e7366657220746f206e6f6e20455243373231526560008201527f63656976657220696d706c656d656e7465720000000000000000000000000000602082015250565b7f4f776e61626c653a206e6577206f776e657220697320746865207a65726f206160008201527f6464726573730000000000000000000000000000000000000000000000000000602082015250565b7f4552433732313a207472616e736665722066726f6d20696e636f72726563742060008201527f6f776e6572000000000000000000000000000000000000000000000000000000602082015250565b7f4552433732313a20746f6b656e20616c7265616479206d696e74656400000000600082015250565b7f4552433732313a207472616e7366657220746f20746865207a65726f2061646460008201527f7265737300000000000000000000000000000000000000000000000000000000602082015250565b7f4552433732313a20617070726f766520746f2063616c6c657200000000000000600082015250565b7f4e6f7420656e6f7567682062616c616e63650000000000000000000000000000600082015250565b7f5061757361626c653a2070617573656400000000000000000000000000000000600082015250565b7f4552433732313a2061646472657373207a65726f206973206e6f74206120766160008201527f6c6964206f776e65720000000000000000000000000000000000000000000000602082015250565b7f4552433732313a20617070726f76652063616c6c6572206973206e6f7420746f60008201527f6b656e206f776e6572206e6f7220617070726f76656420666f7220616c6c0000602082015250565b7f4552433732313a206d696e7420746f20746865207a65726f2061646472657373600082015250565b7f4f776e61626c653a2063616c6c6572206973206e6f7420746865206f776e6572600082015250565b7f4f7574206f6620737570706c7900000000000000000000000000000000000000600082015250565b7f4552433732313a20696e76616c696420746f6b656e2049440000000000000000600082015250565b7f4552433732313a20617070726f76616c20746f2063757272656e74206f776e6560008201527f7200000000000000000000000000000000000000000000000000000000000000602082015250565b7f455243373231456e756d657261626c653a20676c6f62616c20696e646578206f60008201527f7574206f6620626f756e64730000000000000000000000000000000000000000602082015250565b7f455243323938313a20726f79616c7479206665652077696c6c2065786365656460008201527f2073616c65507269636500000000000000000000000000000000000000000000602082015250565b7f4552433732313a2063616c6c6572206973206e6f7420746f6b656e206f776e6560008201527f72206e6f7220617070726f766564000000000000000000000000000000000000602082015250565b7f455243323938313a20696e76616c696420726563656976657200000000000000600082015250565b61417981613a3c565b811461418457600080fd5b50565b61419081613a4e565b811461419b57600080fd5b50565b6141a781613a5a565b81146141b257600080fd5b50565b6141be81613aa6565b81146141c957600080fd5b50565b6141d581613abd565b81146141e057600080fd5b5056fe68747470733a2f2f676174657761792e70696e6174612e636c6f75642f697066732f516d4e75665772654c68377766344c6561743270787a6739326d5169364d36636a573736377061666f445343684a2f636f6e74726163745f6d657461646174612e6a736f6ea26469706673582212207acabc9e0ef7144950dedb7f3de4cbecd419596968d3aa77574ca4994621e32b64736f6c6343000804003368747470733a2f2f676174657761792e70696e6174612e636c6f75642f697066732f516d52766e685972556165484c4638685365524e546454566e354a5448617335655a6b3857793252627a77524171",
  "linkReferences": {},
  "deployedLinkReferences": {}
}