{
  "_format": "hh-sol-artifact-1",
  "contractName": "Bike",
  "sourceName": "contracts/Bike.sol",
  "abi": [
    {
      "inputs": [
        {
          "internalType": "address",
          "name": "owner",
          "type": "address"
        },
        {
          "internalType": "uint256",
          "name": "_supply",
          "type": "uint256"
        }
      ],
      "stateMutability": "nonpayable",
      "type": "constructor"
    },
    {
      "anonymous": false,
      "inputs": [
        {
          "indexed": true,
          "internalType": "address",
          "name": "owner",
          "type": "address"
        },
        {
          "indexed": true,
          "internalType": "address",
          "name": "approved",
          "type": "address"
        },
        {
          "indexed": true,
          "internalType": "uint256",
          "name": "tokenId",
          "type": "uint256"
        }
      ],
      "name": "Approval",
      "type": "event"
    },
    {
      "anonymous": false,
      "inputs": [
        {
          "indexed": true,
          "internalType": "address",
          "name": "owner",
          "type": "address"
        },
        {
          "indexed": true,
          "internalType": "address",
          "name": "operator",
          "type": "address"
        },
        {
          "indexed": false,
          "internalType": "bool",
          "name": "approved",
          "type": "bool"
        }
      ],
      "name": "ApprovalForAll",
      "type": "event"
    },
    {
      "anonymous": false,
      "inputs": [
        {
          "indexed": true,
          "internalType": "address",
          "name": "previousOwner",
          "type": "address"
        },
        {
          "indexed": true,
          "internalType": "address",
          "name": "newOwner",
          "type": "address"
        }
      ],
      "name": "OwnershipTransferred",
      "type": "event"
    },
    {
      "anonymous": false,
      "inputs": [
        {
          "indexed": false,
          "internalType": "address",
          "name": "account",
          "type": "address"
        }
      ],
      "name": "Paused",
      "type": "event"
    },
    {
      "anonymous": false,
      "inputs": [
        {
          "indexed": true,
          "internalType": "address",
          "name": "from",
          "type": "address"
        },
        {
          "indexed": true,
          "internalType": "address",
          "name": "to",
          "type": "address"
        },
        {
          "indexed": true,
          "internalType": "uint256",
          "name": "tokenId",
          "type": "uint256"
        }
      ],
      "name": "Transfer",
      "type": "event"
    },
    {
      "anonymous": false,
      "inputs": [
        {
          "indexed": false,
          "internalType": "address",
          "name": "account",
          "type": "address"
        }
      ],
      "name": "Unpaused",
      "type": "event"
    },
    {
      "inputs": [
        {
          "internalType": "address",
          "name": "to",
          "type": "address"
        },
        {
          "internalType": "uint256",
          "name": "tokenId",
          "type": "uint256"
        }
      ],
      "name": "approve",
      "outputs": [],
      "stateMutability": "nonpayable",
      "type": "function"
    },
    {
      "inputs": [
        {
          "internalType": "address",
          "name": "owner",
          "type": "address"
        }
      ],
      "name": "balanceOf",
      "outputs": [
        {
          "internalType": "uint256",
          "name": "",
          "type": "uint256"
        }
      ],
      "stateMutability": "view",
      "type": "function"
    },
    {
      "inputs": [],
      "name": "baseURI",
      "outputs": [
        {
          "internalType": "string",
          "name": "",
          "type": "string"
        }
      ],
      "stateMutability": "view",
      "type": "function"
    },
    {
      "inputs": [
        {
          "internalType": "uint256",
          "name": "tokenId",
          "type": "uint256"
        }
      ],
      "name": "burn",
      "outputs": [],
      "stateMutability": "nonpayable",
      "type": "function"
    },
    {
      "inputs": [],
      "name": "contractURI",
      "outputs": [
        {
          "internalType": "string",
          "name": "",
          "type": "string"
        }
      ],
      "stateMutability": "pure",
      "type": "function"
    },
    {
      "inputs": [
        {
          "internalType": "uint256",
          "name": "tokenId",
          "type": "uint256"
        }
      ],
      "name": "getApproved",
      "outputs": [
        {
          "internalType": "address",
          "name": "",
          "type": "address"
        }
      ],
      "stateMutability": "view",
      "type": "function"
    },
    {
      "inputs": [],
      "name": "getFee",
      "outputs": [
        {
          "internalType": "uint256",
          "name": "",
          "type": "uint256"
        }
      ],
      "stateMutability": "view",
      "type": "function"
    },
    {
      "inputs": [
        {
          "internalType": "address",
          "name": "owner",
          "type": "address"
        },
        {
          "internalType": "address",
          "name": "operator",
          "type": "address"
        }
      ],
      "name": "isApprovedForAll",
      "outputs": [
        {
          "internalType": "bool",
          "name": "",
          "type": "bool"
        }
      ],
      "stateMutability": "view",
      "type": "function"
    },
    {
      "inputs": [],
      "name": "name",
      "outputs": [
        {
          "internalType": "string",
          "name": "",
          "type": "string"
        }
      ],
      "stateMutability": "view",
      "type": "function"
    },
    {
      "inputs": [],
      "name": "owner",
      "outputs": [
        {
          "internalType": "address",
          "name": "",
          "type": "address"
        }
      ],
      "stateMutability": "view",
      "type": "function"
    },
    {
      "inputs": [
        {
          "internalType": "uint256",
          "name": "tokenId",
          "type": "uint256"
        }
      ],
      "name": "ownerOf",
      "outputs": [
        {
          "internalType": "address",
          "name": "",
          "type": "address"
        }
      ],
      "stateMutability": "view",
      "type": "function"
    },
    {
      "inputs": [],
      "name": "pause",
      "outputs": [],
      "stateMutability": "nonpayable",
      "type": "function"
    },
    {
      "inputs": [],
      "name": "paused",
      "outputs": [
        {
          "internalType": "bool",
          "name": "",
          "type": "bool"
        }
      ],
      "stateMutability": "view",
      "type": "function"
    },
    {
      "inputs": [],
      "name": "renounceOwnership",
      "outputs": [],
      "stateMutability": "nonpayable",
      "type": "function"
    },
    {
      "inputs": [
        {
          "internalType": "uint256",
          "name": "_tokenId",
          "type": "uint256"
        },
        {
          "internalType": "uint256",
          "name": "_salePrice",
          "type": "uint256"
        }
      ],
      "name": "royaltyInfo",
      "outputs": [
        {
          "internalType": "address",
          "name": "",
          "type": "address"
        },
        {
          "internalType": "uint256",
          "name": "",
          "type": "uint256"
        }
      ],
      "stateMutability": "view",
      "type": "function"
    },
    {
      "inputs": [
        {
          "internalType": "address",
          "name": "to",
          "type": "address"
        }
      ],
      "name": "safeMint",
      "outputs": [],
      "stateMutability": "payable",
      "type": "function"
    },
    {
      "inputs": [
        {
          "internalType": "address",
          "name": "to",
          "type": "address"
        },
        {
          "internalType": "uint256",
          "name": "amount",
          "type": "uint256"
        }
      ],
      "name": "safeMintMany",
      "outputs": [],
      "stateMutability": "payable",
      "type": "function"
    },
    {
      "inputs": [
        {
          "internalType": "address",
          "name": "from",
          "type": "address"
        },
        {
          "internalType": "address",
          "name": "to",
          "type": "address"
        },
        {
          "internalType": "uint256",
          "name": "tokenId",
          "type": "uint256"
        }
      ],
      "name": "safeTransferFrom",
      "outputs": [],
      "stateMutability": "nonpayable",
      "type": "function"
    },
    {
      "inputs": [
        {
          "internalType": "address",
          "name": "from",
          "type": "address"
        },
        {
          "internalType": "address",
          "name": "to",
          "type": "address"
        },
        {
          "internalType": "uint256",
          "name": "tokenId",
          "type": "uint256"
        },
        {
          "internalType": "bytes",
          "name": "data",
          "type": "bytes"
        }
      ],
      "name": "safeTransferFrom",
      "outputs": [],
      "stateMutability": "nonpayable",
      "type": "function"
    },
    {
      "inputs": [
        {
          "internalType": "address",
          "name": "operator",
          "type": "address"
        },
        {
          "internalType": "bool",
          "name": "approved",
          "type": "bool"
        }
      ],
      "name": "setApprovalForAll",
      "outputs": [],
      "stateMutability": "nonpayable",
      "type": "function"
    },
    {
      "inputs": [
        {
          "internalType": "string",
          "name": "newBaseURI",
          "type": "string"
        }
      ],
      "name": "setBaseURI",
      "outputs": [],
      "stateMutability": "nonpayable",
      "type": "function"
    },
    {
      "inputs": [
        {
          "internalType": "address",
          "name": "receiver",
          "type": "address"
        },
        {
          "internalType": "uint96",
          "name": "feeNumerator",
          "type": "uint96"
        }
      ],
      "name": "setDefaultRoyalty",
      "outputs": [],
      "stateMutability": "nonpayable",
      "type": "function"
    },
    {
      "inputs": [
        {
          "internalType": "uint256",
          "name": "fee",
          "type": "uint256"
        }
      ],
      "name": "setFee",
      "outputs": [],
      "stateMutability": "nonpayable",
      "type": "function"
    },
    {
      "inputs": [
        {
          "internalType": "uint256",
          "name": "newSupply",
          "type": "uint256"
        }
      ],
      "name": "setTotalSupply",
      "outputs": [],
      "stateMutability": "nonpayable",
      "type": "function"
    },
    {
      "inputs": [],
      "name": "supply",
      "outputs": [
        {
          "internalType": "uint256",
          "name": "",
          "type": "uint256"
        }
      ],
      "stateMutability": "view",
      "type": "function"
    },
    {
      "inputs": [
        {
          "internalType": "bytes4",
          "name": "interfaceId",
          "type": "bytes4"
        }
      ],
      "name": "supportsInterface",
      "outputs": [
        {
          "internalType": "bool",
          "name": "",
          "type": "bool"
        }
      ],
      "stateMutability": "view",
      "type": "function"
    },
    {
      "inputs": [],
      "name": "symbol",
      "outputs": [
        {
          "internalType": "string",
          "name": "",
          "type": "string"
        }
      ],
      "stateMutability": "view",
      "type": "function"
    },
    {
      "inputs": [
        {
          "internalType": "address",
          "name": "",
          "type": "address"
        },
        {
          "internalType": "uint256",
          "name": "",
          "type": "uint256"
        }
      ],
      "name": "token",
      "outputs": [
        {
          "internalType": "uint256",
          "name": "",
          "type": "uint256"
        }
      ],
      "stateMutability": "view",
      "type": "function"
    },
    {
      "inputs": [
        {
          "internalType": "uint256",
          "name": "index",
          "type": "uint256"
        }
      ],
      "name": "tokenByIndex",
      "outputs": [
        {
          "internalType": "uint256",
          "name": "",
          "type": "uint256"
        }
      ],
      "stateMutability": "view",
      "type": "function"
    },
    {
      "inputs": [
        {
          "internalType": "address",
          "name": "owner",
          "type": "address"
        },
        {
          "internalType": "uint256",
          "name": "index",
          "type": "uint256"
        }
      ],
      "name": "tokenOfOwnerByIndex",
      "outputs": [
        {
          "internalType": "uint256",
          "name": "",
          "type": "uint256"
        }
      ],
      "stateMutability": "view",
      "type": "function"
    },
    {
      "inputs": [
        {
          "internalType": "uint256",
          "name": "tokenId",
          "type": "uint256"
        }
      ],
      "name": "tokenURI",
      "outputs": [
        {
          "internalType": "string",
          "name": "",
          "type": "string"
        }
      ],
      "stateMutability": "view",
      "type": "function"
    },
    {
      "inputs": [],
      "name": "totalSupply",
      "outputs": [
        {
          "internalType": "uint256",
          "name": "",
          "type": "uint256"
        }
      ],
      "stateMutability": "view",
      "type": "function"
    },
    {
      "inputs": [
        {
          "internalType": "address",
          "name": "from",
          "type": "address"
        },
        {
          "internalType": "address",
          "name": "to",
          "type": "address"
        },
        {
          "internalType": "uint256",
          "name": "tokenId",
          "type": "uint256"
        }
      ],
      "name": "transferFrom",
      "outputs": [],
      "stateMutability": "nonpayable",
      "type": "function"
    },
    {
      "inputs": [
        {
          "internalType": "address",
          "name": "newOwner",
          "type": "address"
        }
      ],
      "name": "transferOwnership",
      "outputs": [],
      "stateMutability": "nonpayable",
      "type": "function"
    },
    {
      "inputs": [],
      "name": "unpause",
      "outputs": [],
      "stateMutability": "nonpayable",
      "type": "function"
    },
    {
      "inputs": [],
      "name": "withdraw",
      "outputs": [],
      "stateMutability": "nonpayable",
      "type": "function"
    }
  ],
  "bytecode": "0x6080604052662386f26fc100006010553480156200001c57600080fd5b5060405162004a5e38038062004a5e833981810160405281019062000042919062000328565b6040518060400160405280600481526020017f42696b65000000000000000000000000000000000000000000000000000000008152506040518060400160405280600481526020017f42494b45000000000000000000000000000000000000000000000000000000008152508160029080519060200190620000c69291906200024a565b508060039080519060200190620000df9291906200024a565b5050506000600860006101000a81548160ff0219169083151502179055506200011d620001116200017c60201b60201c565b6200018460201b60201c565b60016009819055506200013b826200018460201b6200173c1760201c565b60405180608001604052806050815260200162004a0e60509139600f90805190602001906200016c9291906200024a565b5080601181905550505062000440565b600033905090565b6000600860019054906101000a900473ffffffffffffffffffffffffffffffffffffffff16905081600860016101000a81548173ffffffffffffffffffffffffffffffffffffffff021916908373ffffffffffffffffffffffffffffffffffffffff1602179055508173ffffffffffffffffffffffffffffffffffffffff168173ffffffffffffffffffffffffffffffffffffffff167f8be0079c531659141344cd1fd0a4f28419497f9722a3daafe3b4186f6b6457e060405160405180910390a35050565b8280546200025890620003a7565b90600052602060002090601f0160209004810192826200027c5760008555620002c8565b82601f106200029757805160ff1916838001178555620002c8565b82800160010185558215620002c8579182015b82811115620002c7578251825591602001919060010190620002aa565b5b509050620002d79190620002db565b5090565b5b80821115620002f6576000816000905550600101620002dc565b5090565b6000815190506200030b816200040c565b92915050565b600081519050620003228162000426565b92915050565b600080604083850312156200033c57600080fd5b60006200034c85828601620002fa565b92505060206200035f8582860162000311565b9150509250929050565b600062000376826200037d565b9050919050565b600073ffffffffffffffffffffffffffffffffffffffff82169050919050565b6000819050919050565b60006002820490506001821680620003c057607f821691505b60208210811415620003d757620003d6620003dd565b5b50919050565b7f4e487b7100000000000000000000000000000000000000000000000000000000600052602260045260246000fd5b620004178162000369565b81146200042357600080fd5b50565b62000431816200039d565b81146200043d57600080fd5b50565b6145be80620004506000396000f3fe60806040526004361061020f5760003560e01c80636352211e1161011857806395d89b41116100a0578063ced72f871161006f578063ced72f871461076c578063e8a3d48514610797578063e985e9c5146107c2578063f2fde38b146107ff578063f7ea7a3d146108285761020f565b806395d89b41146106b2578063a22cb465146106dd578063b88d4fde14610706578063c87b56dd1461072f5761020f565b806370a08231116100e757806370a0823114610600578063715018a61461063d5780638456cb59146106545780638da5cb5b1461066b5780638fe4a245146106965761020f565b80636352211e1461053257806369fe0e2d1461056f5780636c0360eb146105985780636f457683146105c35761020f565b80632f745c591161019b57806342842e0e1161016a57806342842e0e1461044f57806342966c68146104785780634f6ccce7146104a157806355f804b3146104de5780635c975abb146105075761020f565b80632f745c59146103c85780633ccfd60b146104055780633f4ba83a1461041c57806340d097c3146104335761020f565b8063081812fc116101e2578063081812fc146102d0578063095ea7b31461030d57806318160ddd1461033657806323b872dd146103615780632a55205a1461038a5761020f565b806301ffc9a71461021457806304634d8d14610251578063047fc9aa1461027a57806306fdde03146102a5575b600080fd5b34801561022057600080fd5b5061023b600480360381019061023691906132e9565b610851565b604051610248919061385a565b60405180910390f35b34801561025d57600080fd5b50610278600480360381019061027391906132ad565b610863565b005b34801561028657600080fd5b5061028f610879565b60405161029c9190613b57565b60405180910390f35b3480156102b157600080fd5b506102ba61087f565b6040516102c79190613875565b60405180910390f35b3480156102dc57600080fd5b506102f760048036038101906102f2919061337c565b610911565b60405161030491906137ca565b60405180910390f35b34801561031957600080fd5b50610334600480360381019061032f9190613271565b610957565b005b34801561034257600080fd5b5061034b610a6f565b6040516103589190613b57565b60405180910390f35b34801561036d57600080fd5b506103886004803603810190610383919061316b565b610a7c565b005b34801561039657600080fd5b506103b160048036038101906103ac91906133a5565b610adc565b6040516103bf929190613831565b60405180910390f35b3480156103d457600080fd5b506103ef60048036038101906103ea9190613271565b610cc7565b6040516103fc9190613b57565b60405180910390f35b34801561041157600080fd5b5061041a610d6c565b005b34801561042857600080fd5b50610431610e13565b005b61044d60048036038101906104489190613106565b610e25565b005b34801561045b57600080fd5b506104766004803603810190610471919061316b565b610f3b565b005b34801561048457600080fd5b5061049f600480360381019061049a919061337c565b610f5b565b005b3480156104ad57600080fd5b506104c860048036038101906104c3919061337c565b610fb7565b6040516104d59190613b57565b60405180910390f35b3480156104ea57600080fd5b506105056004803603810190610500919061333b565b61104e565b005b34801561051357600080fd5b5061051c611070565b604051610529919061385a565b60405180910390f35b34801561053e57600080fd5b506105596004803603810190610554919061337c565b611087565b60405161056691906137ca565b60405180910390f35b34801561057b57600080fd5b506105966004803603810190610591919061337c565b611139565b005b3480156105a457600080fd5b506105ad61115e565b6040516105ba9190613875565b60405180910390f35b3480156105cf57600080fd5b506105ea60048036038101906105e59190613271565b6111ec565b6040516105f79190613b57565b60405180910390f35b34801561060c57600080fd5b5061062760048036038101906106229190613106565b61121d565b6040516106349190613b57565b60405180910390f35b34801561064957600080fd5b506106526112d5565b005b34801561066057600080fd5b506106696112e9565b005b34801561067757600080fd5b506106806112fb565b60405161068d91906137ca565b60405180910390f35b6106b060048036038101906106ab9190613271565b611325565b005b3480156106be57600080fd5b506106c7611480565b6040516106d49190613875565b60405180910390f35b3480156106e957600080fd5b5061070460048036038101906106ff9190613235565b611512565b005b34801561071257600080fd5b5061072d600480360381019061072891906131ba565b611528565b005b34801561073b57600080fd5b506107566004803603810190610751919061337c565b61158a565b6040516107639190613875565b60405180910390f35b34801561077857600080fd5b506107816115e8565b60405161078e9190613b57565b60405180910390f35b3480156107a357600080fd5b506107ac6115f2565b6040516107b99190613875565b60405180910390f35b3480156107ce57600080fd5b506107e960048036038101906107e4919061312f565b611612565b6040516107f6919061385a565b60405180910390f35b34801561080b57600080fd5b5061082660048036038101906108219190613106565b6116a6565b005b34801561083457600080fd5b5061084f600480360381019061084a919061337c565b61172a565b005b600061085c82611802565b9050919050565b61086b61187c565b61087582826118fa565b5050565b60115481565b60606002805461088e90613e2c565b80601f01602080910402602001604051908101604052809291908181526020018280546108ba90613e2c565b80156109075780601f106108dc57610100808354040283529160200191610907565b820191906000526020600020905b8154815290600101906020018083116108ea57829003601f168201915b5050505050905090565b600061091c82611a8f565b6006600083815260200190815260200160002060009054906101000a900473ffffffffffffffffffffffffffffffffffffffff169050919050565b600061096282611087565b90508073ffffffffffffffffffffffffffffffffffffffff168373ffffffffffffffffffffffffffffffffffffffff1614156109d3576040517f08c379a00000000000000000000000000000000000000000000000000000000081526004016109ca90613a97565b60405180910390fd5b8073ffffffffffffffffffffffffffffffffffffffff166109f2611ada565b73ffffffffffffffffffffffffffffffffffffffff161480610a215750610a2081610a1b611ada565b611612565b5b610a60576040517f08c379a0000000000000000000000000000000000000000000000000000000008152600401610a57906139f7565b60405180910390fd5b610a6a8383611ae2565b505050565b6000600c80549050905090565b610a8d610a87611ada565b82611b9b565b610acc576040517f08c379a0000000000000000000000000000000000000000000000000000000008152600401610ac390613af7565b60405180910390fd5b610ad7838383611c30565b505050565b6000806000600160008681526020019081526020016000206040518060400160405290816000820160009054906101000a900473ffffffffffffffffffffffffffffffffffffffff1673ffffffffffffffffffffffffffffffffffffffff1673ffffffffffffffffffffffffffffffffffffffff1681526020016000820160149054906101000a90046bffffffffffffffffffffffff166bffffffffffffffffffffffff166bffffffffffffffffffffffff16815250509050600073ffffffffffffffffffffffffffffffffffffffff16816000015173ffffffffffffffffffffffffffffffffffffffff161415610c725760006040518060400160405290816000820160009054906101000a900473ffffffffffffffffffffffffffffffffffffffff1673ffffffffffffffffffffffffffffffffffffffff1673ffffffffffffffffffffffffffffffffffffffff1681526020016000820160149054906101000a90046bffffffffffffffffffffffff166bffffffffffffffffffffffff166bffffffffffffffffffffffff168152505090505b6000610c7c611e97565b6bffffffffffffffffffffffff1682602001516bffffffffffffffffffffffff1686610ca89190613cc3565b610cb29190613c92565b90508160000151819350935050509250929050565b6000610cd28361121d565b8210610d13576040517f08c379a0000000000000000000000000000000000000000000000000000000008152600401610d0a906138b7565b60405180910390fd5b600a60008473ffffffffffffffffffffffffffffffffffffffff1673ffffffffffffffffffffffffffffffffffffffff168152602001908152602001600020600083815260200190815260200160002054905092915050565b60026009541415610db2576040517f08c379a0000000000000000000000000000000000000000000000000000000008152600401610da990613b17565b60405180910390fd5b6002600981905550610dc261187c565b3373ffffffffffffffffffffffffffffffffffffffff166108fc479081150290604051600060405180830381858888f19350505050158015610e08573d6000803e3d6000fd5b506001600981905550565b610e1b61187c565b610e23611ea1565b565b610e2f600e611f04565b6000610e3b600e611f1a565b9050601154811115610e82576040517f08c379a0000000000000000000000000000000000000000000000000000000008152600401610e7990613a57565b60405180910390fd5b601054341015610ec7576040517f08c379a0000000000000000000000000000000000000000000000000000000008152600401610ebe90613997565b60405180910390fd5b610ed18282611f28565b601260008373ffffffffffffffffffffffffffffffffffffffff1673ffffffffffffffffffffffffffffffffffffffff1681526020019081526020016000208190806001815401808255809150506001900390600052602060002001600090919091909150555050565b610f5683838360405180602001604052806000815250611528565b505050565b610f6c610f66611ada565b82611b9b565b610fab576040517f08c379a0000000000000000000000000000000000000000000000000000000008152600401610fa290613af7565b60405180910390fd5b610fb481611f46565b50565b6000610fc1610a6f565b8210611002576040517f08c379a0000000000000000000000000000000000000000000000000000000008152600401610ff990613ab7565b60405180910390fd5b600c828154811061103c577f4e487b7100000000000000000000000000000000000000000000000000000000600052603260045260246000fd5b90600052602060002001549050919050565b61105661187c565b80600f908051906020019061106c929190612f15565b5050565b6000600860009054906101000a900460ff16905090565b6000806004600084815260200190815260200160002060009054906101000a900473ffffffffffffffffffffffffffffffffffffffff169050600073ffffffffffffffffffffffffffffffffffffffff168173ffffffffffffffffffffffffffffffffffffffff161415611130576040517f08c379a000000000000000000000000000000000000000000000000000000000815260040161112790613a77565b60405180910390fd5b80915050919050565b61114161187c565b67016345785d8a0000816111559190613cc3565b60108190555050565b600f805461116b90613e2c565b80601f016020809104026020016040519081016040528092919081815260200182805461119790613e2c565b80156111e45780601f106111b9576101008083540402835291602001916111e4565b820191906000526020600020905b8154815290600101906020018083116111c757829003601f168201915b505050505081565b6012602052816000526040600020818154811061120857600080fd5b90600052602060002001600091509150505481565b60008073ffffffffffffffffffffffffffffffffffffffff168273ffffffffffffffffffffffffffffffffffffffff16141561128e576040517f08c379a0000000000000000000000000000000000000000000000000000000008152600401611285906139d7565b60405180910390fd5b600560008373ffffffffffffffffffffffffffffffffffffffff1673ffffffffffffffffffffffffffffffffffffffff168152602001908152602001600020549050919050565b6112dd61187c565b6112e7600061173c565b565b6112f161187c565b6112f9611f52565b565b6000600860019054906101000a900473ffffffffffffffffffffffffffffffffffffffff16905090565b60115481611333600e611f1a565b61133d9190613c3c565b111561137e576040517f08c379a000000000000000000000000000000000000000000000000000000000815260040161137590613a57565b60405180910390fd5b6010548161138c9190613cc3565b3410156113ce576040517f08c379a00000000000000000000000000000000000000000000000000000000081526004016113c590613997565b60405180910390fd5b600080600090505b828160ff16101561147a576113eb600e611f04565b6113f5600e611f1a565b91506114018483611f28565b601260008573ffffffffffffffffffffffffffffffffffffffff1673ffffffffffffffffffffffffffffffffffffffff168152602001908152602001600020829080600181540180825580915050600190039060005260206000200160009091909190915055808061147290613e8f565b9150506113d6565b50505050565b60606003805461148f90613e2c565b80601f01602080910402602001604051908101604052809291908181526020018280546114bb90613e2c565b80156115085780601f106114dd57610100808354040283529160200191611508565b820191906000526020600020905b8154815290600101906020018083116114eb57829003601f168201915b5050505050905090565b61152461151d611ada565b8383611fb5565b5050565b611539611533611ada565b83611b9b565b611578576040517f08c379a000000000000000000000000000000000000000000000000000000000815260040161156f90613af7565b60405180910390fd5b61158484848484612122565b50505050565b606061159582611a8f565b600061159f61217e565b905060008151116115bf57604051806020016040528060008152506115e0565b806040516020016115d091906137b3565b6040516020818303038152906040525b915050919050565b6000601054905090565b60606040518060a001604052806067815260200161452260679139905090565b6000600760008473ffffffffffffffffffffffffffffffffffffffff1673ffffffffffffffffffffffffffffffffffffffff16815260200190815260200160002060008373ffffffffffffffffffffffffffffffffffffffff1673ffffffffffffffffffffffffffffffffffffffff16815260200190815260200160002060009054906101000a900460ff16905092915050565b6116ae61187c565b600073ffffffffffffffffffffffffffffffffffffffff168173ffffffffffffffffffffffffffffffffffffffff16141561171e576040517f08c379a0000000000000000000000000000000000000000000000000000000008152600401611715906138f7565b60405180910390fd5b6117278161173c565b50565b61173261187c565b8060118190555050565b6000600860019054906101000a900473ffffffffffffffffffffffffffffffffffffffff16905081600860016101000a81548173ffffffffffffffffffffffffffffffffffffffff021916908373ffffffffffffffffffffffffffffffffffffffff1602179055508173ffffffffffffffffffffffffffffffffffffffff168173ffffffffffffffffffffffffffffffffffffffff167f8be0079c531659141344cd1fd0a4f28419497f9722a3daafe3b4186f6b6457e060405160405180910390a35050565b60007f780e9d63000000000000000000000000000000000000000000000000000000007bffffffffffffffffffffffffffffffffffffffffffffffffffffffff1916827bffffffffffffffffffffffffffffffffffffffffffffffffffffffff19161480611875575061187482612210565b5b9050919050565b611884611ada565b73ffffffffffffffffffffffffffffffffffffffff166118a26112fb565b73ffffffffffffffffffffffffffffffffffffffff16146118f8576040517f08c379a00000000000000000000000000000000000000000000000000000000081526004016118ef90613a37565b60405180910390fd5b565b611902611e97565b6bffffffffffffffffffffffff16816bffffffffffffffffffffffff161115611960576040517f08c379a000000000000000000000000000000000000000000000000000000000815260040161195790613ad7565b60405180910390fd5b600073ffffffffffffffffffffffffffffffffffffffff168273ffffffffffffffffffffffffffffffffffffffff1614156119d0576040517f08c379a00000000000000000000000000000000000000000000000000000000081526004016119c790613b37565b60405180910390fd5b60405180604001604052808373ffffffffffffffffffffffffffffffffffffffff168152602001826bffffffffffffffffffffffff168152506000808201518160000160006101000a81548173ffffffffffffffffffffffffffffffffffffffff021916908373ffffffffffffffffffffffffffffffffffffffff16021790555060208201518160000160146101000a8154816bffffffffffffffffffffffff02191690836bffffffffffffffffffffffff1602179055509050505050565b611a9881612222565b611ad7576040517f08c379a0000000000000000000000000000000000000000000000000000000008152600401611ace90613a77565b60405180910390fd5b50565b600033905090565b816006600083815260200190815260200160002060006101000a81548173ffffffffffffffffffffffffffffffffffffffff021916908373ffffffffffffffffffffffffffffffffffffffff160217905550808273ffffffffffffffffffffffffffffffffffffffff16611b5583611087565b73ffffffffffffffffffffffffffffffffffffffff167f8c5be1e5ebec7d5bd14f71427d1e84f3dd0314c0f7b2291e5b200ac8c7c3b92560405160405180910390a45050565b600080611ba783611087565b90508073ffffffffffffffffffffffffffffffffffffffff168473ffffffffffffffffffffffffffffffffffffffff161480611be95750611be88185611612565b5b80611c2757508373ffffffffffffffffffffffffffffffffffffffff16611c0f84610911565b73ffffffffffffffffffffffffffffffffffffffff16145b91505092915050565b8273ffffffffffffffffffffffffffffffffffffffff16611c5082611087565b73ffffffffffffffffffffffffffffffffffffffff1614611ca6576040517f08c379a0000000000000000000000000000000000000000000000000000000008152600401611c9d90613917565b60405180910390fd5b600073ffffffffffffffffffffffffffffffffffffffff168273ffffffffffffffffffffffffffffffffffffffff161415611d16576040517f08c379a0000000000000000000000000000000000000000000000000000000008152600401611d0d90613957565b60405180910390fd5b611d2183838361228e565b611d2c600082611ae2565b6001600560008573ffffffffffffffffffffffffffffffffffffffff1673ffffffffffffffffffffffffffffffffffffffff1681526020019081526020016000206000828254611d7c9190613d1d565b925050819055506001600560008473ffffffffffffffffffffffffffffffffffffffff1673ffffffffffffffffffffffffffffffffffffffff1681526020019081526020016000206000828254611dd39190613c3c565b92505081905550816004600083815260200190815260200160002060006101000a81548173ffffffffffffffffffffffffffffffffffffffff021916908373ffffffffffffffffffffffffffffffffffffffff160217905550808273ffffffffffffffffffffffffffffffffffffffff168473ffffffffffffffffffffffffffffffffffffffff167fddf252ad1be2c89b69c2b068fc378daa952ba7f163c4a11628f55a4df523b3ef60405160405180910390a4611e928383836122a6565b505050565b6000612710905090565b611ea96122ab565b6000600860006101000a81548160ff0219169083151502179055507f5db9ee0a495bf2e6ff9c91a7834c1ba4fdd244a5e8aa4e537bd38aeae4b073aa611eed611ada565b604051611efa91906137ca565b60405180910390a1565b6001816000016000828254019250508190555050565b600081600001549050919050565b611f428282604051806020016040528060008152506122f4565b5050565b611f4f8161234f565b50565b611f5a612364565b6001600860006101000a81548160ff0219169083151502179055507f62e78cea01bee320cd4e420270b5ea74000d11b0c9f74754ebdbfc544b05a258611f9e611ada565b604051611fab91906137ca565b60405180910390a1565b8173ffffffffffffffffffffffffffffffffffffffff168373ffffffffffffffffffffffffffffffffffffffff161415612024576040517f08c379a000000000000000000000000000000000000000000000000000000000815260040161201b90613977565b60405180910390fd5b80600760008573ffffffffffffffffffffffffffffffffffffffff1673ffffffffffffffffffffffffffffffffffffffff16815260200190815260200160002060008473ffffffffffffffffffffffffffffffffffffffff1673ffffffffffffffffffffffffffffffffffffffff16815260200190815260200160002060006101000a81548160ff0219169083151502179055508173ffffffffffffffffffffffffffffffffffffffff168373ffffffffffffffffffffffffffffffffffffffff167f17307eab39ab6107e8899845ad3d59bd9653f200f220920489ca2b5937696c3183604051612115919061385a565b60405180910390a3505050565b61212d848484611c30565b612139848484846123ae565b612178576040517f08c379a000000000000000000000000000000000000000000000000000000000815260040161216f906138d7565b60405180910390fd5b50505050565b6060600f805461218d90613e2c565b80601f01602080910402602001604051908101604052809291908181526020018280546121b990613e2c565b80156122065780601f106121db57610100808354040283529160200191612206565b820191906000526020600020905b8154815290600101906020018083116121e957829003601f168201915b5050505050905090565b600061221b82612545565b9050919050565b60008073ffffffffffffffffffffffffffffffffffffffff166004600084815260200190815260200160002060009054906101000a900473ffffffffffffffffffffffffffffffffffffffff1673ffffffffffffffffffffffffffffffffffffffff1614159050919050565b612296612364565b6122a1838383612627565b505050565b505050565b6122b3611070565b6122f2576040517f08c379a00000000000000000000000000000000000000000000000000000000081526004016122e990613897565b60405180910390fd5b565b6122fe838361273b565b61230b60008484846123ae565b61234a576040517f08c379a0000000000000000000000000000000000000000000000000000000008152600401612341906138d7565b60405180910390fd5b505050565b61235881612915565b61236181612a32565b50565b61236c611070565b156123ac576040517f08c379a00000000000000000000000000000000000000000000000000000000081526004016123a3906139b7565b60405180910390fd5b565b60006123cf8473ffffffffffffffffffffffffffffffffffffffff16612a91565b15612538578373ffffffffffffffffffffffffffffffffffffffff1663150b7a026123f8611ada565b8786866040518563ffffffff1660e01b815260040161241a94939291906137e5565b602060405180830381600087803b15801561243457600080fd5b505af192505050801561246557506040513d601f19601f820116820180604052508101906124629190613312565b60015b6124e8573d8060008114612495576040519150601f19603f3d011682016040523d82523d6000602084013e61249a565b606091505b506000815114156124e0576040517f08c379a00000000000000000000000000000000000000000000000000000000081526004016124d7906138d7565b60405180910390fd5b805181602001fd5b63150b7a0260e01b7bffffffffffffffffffffffffffffffffffffffffffffffffffffffff1916817bffffffffffffffffffffffffffffffffffffffffffffffffffffffff19161491505061253d565b600190505b949350505050565b60007f80ac58cd000000000000000000000000000000000000000000000000000000007bffffffffffffffffffffffffffffffffffffffffffffffffffffffff1916827bffffffffffffffffffffffffffffffffffffffffffffffffffffffff1916148061261057507f5b5e139f000000000000000000000000000000000000000000000000000000007bffffffffffffffffffffffffffffffffffffffffffffffffffffffff1916827bffffffffffffffffffffffffffffffffffffffffffffffffffffffff1916145b80612620575061261f82612ab4565b5b9050919050565b612632838383612b2e565b600073ffffffffffffffffffffffffffffffffffffffff168373ffffffffffffffffffffffffffffffffffffffff1614156126755761267081612b33565b6126b4565b8173ffffffffffffffffffffffffffffffffffffffff168373ffffffffffffffffffffffffffffffffffffffff16146126b3576126b28382612b7c565b5b5b600073ffffffffffffffffffffffffffffffffffffffff168273ffffffffffffffffffffffffffffffffffffffff1614156126f7576126f281612ce9565b612736565b8273ffffffffffffffffffffffffffffffffffffffff168273ffffffffffffffffffffffffffffffffffffffff1614612735576127348282612e2c565b5b5b505050565b600073ffffffffffffffffffffffffffffffffffffffff168273ffffffffffffffffffffffffffffffffffffffff1614156127ab576040517f08c379a00000000000000000000000000000000000000000000000000000000081526004016127a290613a17565b60405180910390fd5b6127b481612222565b156127f4576040517f08c379a00000000000000000000000000000000000000000000000000000000081526004016127eb90613937565b60405180910390fd5b6128006000838361228e565b6001600560008473ffffffffffffffffffffffffffffffffffffffff1673ffffffffffffffffffffffffffffffffffffffff16815260200190815260200160002060008282546128509190613c3c565b92505081905550816004600083815260200190815260200160002060006101000a81548173ffffffffffffffffffffffffffffffffffffffff021916908373ffffffffffffffffffffffffffffffffffffffff160217905550808273ffffffffffffffffffffffffffffffffffffffff16600073ffffffffffffffffffffffffffffffffffffffff167fddf252ad1be2c89b69c2b068fc378daa952ba7f163c4a11628f55a4df523b3ef60405160405180910390a4612911600083836122a6565b5050565b600061292082611087565b905061292e8160008461228e565b612939600083611ae2565b6001600560008373ffffffffffffffffffffffffffffffffffffffff1673ffffffffffffffffffffffffffffffffffffffff16815260200190815260200160002060008282546129899190613d1d565b925050819055506004600083815260200190815260200160002060006101000a81549073ffffffffffffffffffffffffffffffffffffffff021916905581600073ffffffffffffffffffffffffffffffffffffffff168273ffffffffffffffffffffffffffffffffffffffff167fddf252ad1be2c89b69c2b068fc378daa952ba7f163c4a11628f55a4df523b3ef60405160405180910390a4612a2e816000846122a6565b5050565b60016000828152602001908152602001600020600080820160006101000a81549073ffffffffffffffffffffffffffffffffffffffff02191690556000820160146101000a8154906bffffffffffffffffffffffff0219169055505050565b6000808273ffffffffffffffffffffffffffffffffffffffff163b119050919050565b60007f2a55205a000000000000000000000000000000000000000000000000000000007bffffffffffffffffffffffffffffffffffffffffffffffffffffffff1916827bffffffffffffffffffffffffffffffffffffffffffffffffffffffff19161480612b275750612b2682612eab565b5b9050919050565b505050565b600c80549050600d600083815260200190815260200160002081905550600c81908060018154018082558091505060019003906000526020600020016000909190919091505550565b60006001612b898461121d565b612b939190613d1d565b90506000600b6000848152602001908152602001600020549050818114612c78576000600a60008673ffffffffffffffffffffffffffffffffffffffff1673ffffffffffffffffffffffffffffffffffffffff168152602001908152602001600020600084815260200190815260200160002054905080600a60008773ffffffffffffffffffffffffffffffffffffffff1673ffffffffffffffffffffffffffffffffffffffff16815260200190815260200160002060008481526020019081526020016000208190555081600b600083815260200190815260200160002081905550505b600b600084815260200190815260200160002060009055600a60008573ffffffffffffffffffffffffffffffffffffffff1673ffffffffffffffffffffffffffffffffffffffff16815260200190815260200160002060008381526020019081526020016000206000905550505050565b60006001600c80549050612cfd9190613d1d565b90506000600d60008481526020019081526020016000205490506000600c8381548110612d53577f4e487b7100000000000000000000000000000000000000000000000000000000600052603260045260246000fd5b9060005260206000200154905080600c8381548110612d9b577f4e487b7100000000000000000000000000000000000000000000000000000000600052603260045260246000fd5b906000526020600020018190555081600d600083815260200190815260200160002081905550600d600085815260200190815260200160002060009055600c805480612e10577f4e487b7100000000000000000000000000000000000000000000000000000000600052603160045260246000fd5b6001900381819060005260206000200160009055905550505050565b6000612e378361121d565b905081600a60008573ffffffffffffffffffffffffffffffffffffffff1673ffffffffffffffffffffffffffffffffffffffff16815260200190815260200160002060008381526020019081526020016000208190555080600b600084815260200190815260200160002081905550505050565b60007f01ffc9a7000000000000000000000000000000000000000000000000000000007bffffffffffffffffffffffffffffffffffffffffffffffffffffffff1916827bffffffffffffffffffffffffffffffffffffffffffffffffffffffff1916149050919050565b828054612f2190613e2c565b90600052602060002090601f016020900481019282612f435760008555612f8a565b82601f10612f5c57805160ff1916838001178555612f8a565b82800160010185558215612f8a579182015b82811115612f89578251825591602001919060010190612f6e565b5b509050612f979190612f9b565b5090565b5b80821115612fb4576000816000905550600101612f9c565b5090565b6000612fcb612fc684613b97565b613b72565b905082815260208101848484011115612fe357600080fd5b612fee848285613dea565b509392505050565b600061300961300484613bc8565b613b72565b90508281526020810184848401111561302157600080fd5b61302c848285613dea565b509392505050565b600081359050613043816144ae565b92915050565b600081359050613058816144c5565b92915050565b60008135905061306d816144dc565b92915050565b600081519050613082816144dc565b92915050565b600082601f83011261309957600080fd5b81356130a9848260208601612fb8565b91505092915050565b600082601f8301126130c357600080fd5b81356130d3848260208601612ff6565b91505092915050565b6000813590506130eb816144f3565b92915050565b6000813590506131008161450a565b92915050565b60006020828403121561311857600080fd5b600061312684828501613034565b91505092915050565b6000806040838503121561314257600080fd5b600061315085828601613034565b925050602061316185828601613034565b9150509250929050565b60008060006060848603121561318057600080fd5b600061318e86828701613034565b935050602061319f86828701613034565b92505060406131b0868287016130dc565b9150509250925092565b600080600080608085870312156131d057600080fd5b60006131de87828801613034565b94505060206131ef87828801613034565b9350506040613200878288016130dc565b925050606085013567ffffffffffffffff81111561321d57600080fd5b61322987828801613088565b91505092959194509250565b6000806040838503121561324857600080fd5b600061325685828601613034565b925050602061326785828601613049565b9150509250929050565b6000806040838503121561328457600080fd5b600061329285828601613034565b92505060206132a3858286016130dc565b9150509250929050565b600080604083850312156132c057600080fd5b60006132ce85828601613034565b92505060206132df858286016130f1565b9150509250929050565b6000602082840312156132fb57600080fd5b60006133098482850161305e565b91505092915050565b60006020828403121561332457600080fd5b600061333284828501613073565b91505092915050565b60006020828403121561334d57600080fd5b600082013567ffffffffffffffff81111561336757600080fd5b613373848285016130b2565b91505092915050565b60006020828403121561338e57600080fd5b600061339c848285016130dc565b91505092915050565b600080604083850312156133b857600080fd5b60006133c6858286016130dc565b92505060206133d7858286016130dc565b9150509250929050565b6133ea81613d51565b82525050565b6133f981613d63565b82525050565b600061340a82613bf9565b6134148185613c0f565b9350613424818560208601613df9565b61342d81613f75565b840191505092915050565b600061344382613c04565b61344d8185613c20565b935061345d818560208601613df9565b61346681613f75565b840191505092915050565b600061347c82613c04565b6134868185613c31565b9350613496818560208601613df9565b80840191505092915050565b60006134af601483613c20565b91506134ba82613f86565b602082019050919050565b60006134d2602b83613c20565b91506134dd82613faf565b604082019050919050565b60006134f5603283613c20565b915061350082613ffe565b604082019050919050565b6000613518602683613c20565b91506135238261404d565b604082019050919050565b600061353b602583613c20565b91506135468261409c565b604082019050919050565b600061355e601c83613c20565b9150613569826140eb565b602082019050919050565b6000613581602483613c20565b915061358c82614114565b604082019050919050565b60006135a4601983613c20565b91506135af82614163565b602082019050919050565b60006135c7601283613c20565b91506135d28261418c565b602082019050919050565b60006135ea601083613c20565b91506135f5826141b5565b602082019050919050565b600061360d602983613c20565b9150613618826141de565b604082019050919050565b6000613630603e83613c20565b915061363b8261422d565b604082019050919050565b6000613653602083613c20565b915061365e8261427c565b602082019050919050565b6000613676602083613c20565b9150613681826142a5565b602082019050919050565b6000613699600d83613c20565b91506136a4826142ce565b602082019050919050565b60006136bc601883613c20565b91506136c7826142f7565b602082019050919050565b60006136df602183613c20565b91506136ea82614320565b604082019050919050565b6000613702602c83613c20565b915061370d8261436f565b604082019050919050565b6000613725602a83613c20565b9150613730826143be565b604082019050919050565b6000613748602e83613c20565b91506137538261440d565b604082019050919050565b600061376b601f83613c20565b91506137768261445c565b602082019050919050565b600061378e601983613c20565b915061379982614485565b602082019050919050565b6137ad81613dbb565b82525050565b60006137bf8284613471565b915081905092915050565b60006020820190506137df60008301846133e1565b92915050565b60006080820190506137fa60008301876133e1565b61380760208301866133e1565b61381460408301856137a4565b818103606083015261382681846133ff565b905095945050505050565b600060408201905061384660008301856133e1565b61385360208301846137a4565b9392505050565b600060208201905061386f60008301846133f0565b92915050565b6000602082019050818103600083015261388f8184613438565b905092915050565b600060208201905081810360008301526138b0816134a2565b9050919050565b600060208201905081810360008301526138d0816134c5565b9050919050565b600060208201905081810360008301526138f0816134e8565b9050919050565b600060208201905081810360008301526139108161350b565b9050919050565b600060208201905081810360008301526139308161352e565b9050919050565b6000602082019050818103600083015261395081613551565b9050919050565b6000602082019050818103600083015261397081613574565b9050919050565b6000602082019050818103600083015261399081613597565b9050919050565b600060208201905081810360008301526139b0816135ba565b9050919050565b600060208201905081810360008301526139d0816135dd565b9050919050565b600060208201905081810360008301526139f081613600565b9050919050565b60006020820190508181036000830152613a1081613623565b9050919050565b60006020820190508181036000830152613a3081613646565b9050919050565b60006020820190508181036000830152613a5081613669565b9050919050565b60006020820190508181036000830152613a708161368c565b9050919050565b60006020820190508181036000830152613a90816136af565b9050919050565b60006020820190508181036000830152613ab0816136d2565b9050919050565b60006020820190508181036000830152613ad0816136f5565b9050919050565b60006020820190508181036000830152613af081613718565b9050919050565b60006020820190508181036000830152613b108161373b565b9050919050565b60006020820190508181036000830152613b308161375e565b9050919050565b60006020820190508181036000830152613b5081613781565b9050919050565b6000602082019050613b6c60008301846137a4565b92915050565b6000613b7c613b8d565b9050613b888282613e5e565b919050565b6000604051905090565b600067ffffffffffffffff821115613bb257613bb1613f46565b5b613bbb82613f75565b9050602081019050919050565b600067ffffffffffffffff821115613be357613be2613f46565b5b613bec82613f75565b9050602081019050919050565b600081519050919050565b600081519050919050565b600082825260208201905092915050565b600082825260208201905092915050565b600081905092915050565b6000613c4782613dbb565b9150613c5283613dbb565b9250827fffffffffffffffffffffffffffffffffffffffffffffffffffffffffffffffff03821115613c8757613c86613eb9565b5b828201905092915050565b6000613c9d82613dbb565b9150613ca883613dbb565b925082613cb857613cb7613ee8565b5b828204905092915050565b6000613cce82613dbb565b9150613cd983613dbb565b9250817fffffffffffffffffffffffffffffffffffffffffffffffffffffffffffffffff0483118215151615613d1257613d11613eb9565b5b828202905092915050565b6000613d2882613dbb565b9150613d3383613dbb565b925082821015613d4657613d45613eb9565b5b828203905092915050565b6000613d5c82613d9b565b9050919050565b60008115159050919050565b60007fffffffff0000000000000000000000000000000000000000000000000000000082169050919050565b600073ffffffffffffffffffffffffffffffffffffffff82169050919050565b6000819050919050565b600060ff82169050919050565b60006bffffffffffffffffffffffff82169050919050565b82818337600083830152505050565b60005b83811015613e17578082015181840152602081019050613dfc565b83811115613e26576000848401525b50505050565b60006002820490506001821680613e4457607f821691505b60208210811415613e5857613e57613f17565b5b50919050565b613e6782613f75565b810181811067ffffffffffffffff82111715613e8657613e85613f46565b5b80604052505050565b6000613e9a82613dc5565b915060ff821415613eae57613ead613eb9565b5b600182019050919050565b7f4e487b7100000000000000000000000000000000000000000000000000000000600052601160045260246000fd5b7f4e487b7100000000000000000000000000000000000000000000000000000000600052601260045260246000fd5b7f4e487b7100000000000000000000000000000000000000000000000000000000600052602260045260246000fd5b7f4e487b7100000000000000000000000000000000000000000000000000000000600052604160045260246000fd5b6000601f19601f8301169050919050565b7f5061757361626c653a206e6f7420706175736564000000000000000000000000600082015250565b7f455243373231456e756d657261626c653a206f776e657220696e646578206f7560008201527f74206f6620626f756e6473000000000000000000000000000000000000000000602082015250565b7f4552433732313a207472616e7366657220746f206e6f6e20455243373231526560008201527f63656976657220696d706c656d656e7465720000000000000000000000000000602082015250565b7f4f776e61626c653a206e6577206f776e657220697320746865207a65726f206160008201527f6464726573730000000000000000000000000000000000000000000000000000602082015250565b7f4552433732313a207472616e736665722066726f6d20696e636f72726563742060008201527f6f776e6572000000000000000000000000000000000000000000000000000000602082015250565b7f4552433732313a20746f6b656e20616c7265616479206d696e74656400000000600082015250565b7f4552433732313a207472616e7366657220746f20746865207a65726f2061646460008201527f7265737300000000000000000000000000000000000000000000000000000000602082015250565b7f4552433732313a20617070726f766520746f2063616c6c657200000000000000600082015250565b7f4e6f7420656e6f7567682062616c616e63650000000000000000000000000000600082015250565b7f5061757361626c653a2070617573656400000000000000000000000000000000600082015250565b7f4552433732313a2061646472657373207a65726f206973206e6f74206120766160008201527f6c6964206f776e65720000000000000000000000000000000000000000000000602082015250565b7f4552433732313a20617070726f76652063616c6c6572206973206e6f7420746f60008201527f6b656e206f776e6572206e6f7220617070726f76656420666f7220616c6c0000602082015250565b7f4552433732313a206d696e7420746f20746865207a65726f2061646472657373600082015250565b7f4f776e61626c653a2063616c6c6572206973206e6f7420746865206f776e6572600082015250565b7f4f7574206f6620737570706c7900000000000000000000000000000000000000600082015250565b7f4552433732313a20696e76616c696420746f6b656e2049440000000000000000600082015250565b7f4552433732313a20617070726f76616c20746f2063757272656e74206f776e6560008201527f7200000000000000000000000000000000000000000000000000000000000000602082015250565b7f455243373231456e756d657261626c653a20676c6f62616c20696e646578206f60008201527f7574206f6620626f756e64730000000000000000000000000000000000000000602082015250565b7f455243323938313a20726f79616c7479206665652077696c6c2065786365656460008201527f2073616c65507269636500000000000000000000000000000000000000000000602082015250565b7f4552433732313a2063616c6c6572206973206e6f7420746f6b656e206f776e6560008201527f72206e6f7220617070726f766564000000000000000000000000000000000000602082015250565b7f5265656e7472616e637947756172643a207265656e7472616e742063616c6c00600082015250565b7f455243323938313a20696e76616c696420726563656976657200000000000000600082015250565b6144b781613d51565b81146144c257600080fd5b50565b6144ce81613d63565b81146144d957600080fd5b50565b6144e581613d6f565b81146144f057600080fd5b50565b6144fc81613dbb565b811461450757600080fd5b50565b61451381613dd2565b811461451e57600080fd5b5056fe68747470733a2f2f676174657761792e70696e6174612e636c6f75642f697066732f516d4e75665772654c68377766344c6561743270787a6739326d5169364d36636a573736377061666f445343684a2f636f6e74726163745f6d657461646174612e6a736f6ea264697066735822122017bb1606c788abb2176154b1e16c2693001451f1692de4faee5b0a281fd797fe64736f6c6343000804003368747470733a2f2f676174657761792e70696e6174612e636c6f75642f697066732f516d52766e685972556165484c4638685365524e546454566e354a5448617335655a6b3857793252627a77524171",
  "linkReferences": {},
  "deployedLinkReferences": {}
}