{
  "_format": "hh-sol-artifact-1",
  "contractName": "Bike",
  "sourceName": "contracts/Bike.sol",
  "abi": [
    {
      "inputs": [
        {
          "internalType": "address",
          "name": "owner",
          "type": "address"
        },
        {
          "internalType": "uint256",
          "name": "_supply",
          "type": "uint256"
        }
      ],
      "stateMutability": "nonpayable",
      "type": "constructor"
    },
    {
      "anonymous": false,
      "inputs": [
        {
          "indexed": true,
          "internalType": "address",
          "name": "owner",
          "type": "address"
        },
        {
          "indexed": true,
          "internalType": "address",
          "name": "approved",
          "type": "address"
        },
        {
          "indexed": true,
          "internalType": "uint256",
          "name": "tokenId",
          "type": "uint256"
        }
      ],
      "name": "Approval",
      "type": "event"
    },
    {
      "anonymous": false,
      "inputs": [
        {
          "indexed": true,
          "internalType": "address",
          "name": "owner",
          "type": "address"
        },
        {
          "indexed": true,
          "internalType": "address",
          "name": "operator",
          "type": "address"
        },
        {
          "indexed": false,
          "internalType": "bool",
          "name": "approved",
          "type": "bool"
        }
      ],
      "name": "ApprovalForAll",
      "type": "event"
    },
    {
      "anonymous": false,
      "inputs": [
        {
          "indexed": true,
          "internalType": "address",
          "name": "previousOwner",
          "type": "address"
        },
        {
          "indexed": true,
          "internalType": "address",
          "name": "newOwner",
          "type": "address"
        }
      ],
      "name": "OwnershipTransferred",
      "type": "event"
    },
    {
      "anonymous": false,
      "inputs": [
        {
          "indexed": false,
          "internalType": "address",
          "name": "account",
          "type": "address"
        }
      ],
      "name": "Paused",
      "type": "event"
    },
    {
      "anonymous": false,
      "inputs": [
        {
          "indexed": true,
          "internalType": "address",
          "name": "from",
          "type": "address"
        },
        {
          "indexed": true,
          "internalType": "address",
          "name": "to",
          "type": "address"
        },
        {
          "indexed": true,
          "internalType": "uint256",
          "name": "tokenId",
          "type": "uint256"
        }
      ],
      "name": "Transfer",
      "type": "event"
    },
    {
      "anonymous": false,
      "inputs": [
        {
          "indexed": false,
          "internalType": "address",
          "name": "account",
          "type": "address"
        }
      ],
      "name": "Unpaused",
      "type": "event"
    },
    {
      "inputs": [
        {
          "internalType": "address",
          "name": "to",
          "type": "address"
        },
        {
          "internalType": "uint256",
          "name": "tokenId",
          "type": "uint256"
        }
      ],
      "name": "approve",
      "outputs": [],
      "stateMutability": "nonpayable",
      "type": "function"
    },
    {
      "inputs": [
        {
          "internalType": "address",
          "name": "owner",
          "type": "address"
        }
      ],
      "name": "balanceOf",
      "outputs": [
        {
          "internalType": "uint256",
          "name": "",
          "type": "uint256"
        }
      ],
      "stateMutability": "view",
      "type": "function"
    },
    {
      "inputs": [],
      "name": "baseURI",
      "outputs": [
        {
          "internalType": "string",
          "name": "",
          "type": "string"
        }
      ],
      "stateMutability": "view",
      "type": "function"
    },
    {
      "inputs": [
        {
          "internalType": "uint256",
          "name": "tokenId",
          "type": "uint256"
        }
      ],
      "name": "burn",
      "outputs": [],
      "stateMutability": "nonpayable",
      "type": "function"
    },
    {
      "inputs": [],
      "name": "contractURI",
      "outputs": [
        {
          "internalType": "string",
          "name": "",
          "type": "string"
        }
      ],
      "stateMutability": "pure",
      "type": "function"
    },
    {
      "inputs": [
        {
          "internalType": "uint256",
          "name": "tokenId",
          "type": "uint256"
        }
      ],
      "name": "getApproved",
      "outputs": [
        {
          "internalType": "address",
          "name": "",
          "type": "address"
        }
      ],
      "stateMutability": "view",
      "type": "function"
    },
    {
      "inputs": [],
      "name": "getFee",
      "outputs": [
        {
          "internalType": "uint256",
          "name": "",
          "type": "uint256"
        }
      ],
      "stateMutability": "view",
      "type": "function"
    },
    {
      "inputs": [
        {
          "internalType": "address",
          "name": "owner",
          "type": "address"
        },
        {
          "internalType": "address",
          "name": "operator",
          "type": "address"
        }
      ],
      "name": "isApprovedForAll",
      "outputs": [
        {
          "internalType": "bool",
          "name": "",
          "type": "bool"
        }
      ],
      "stateMutability": "view",
      "type": "function"
    },
    {
      "inputs": [],
      "name": "name",
      "outputs": [
        {
          "internalType": "string",
          "name": "",
          "type": "string"
        }
      ],
      "stateMutability": "view",
      "type": "function"
    },
    {
      "inputs": [],
      "name": "owner",
      "outputs": [
        {
          "internalType": "address",
          "name": "",
          "type": "address"
        }
      ],
      "stateMutability": "view",
      "type": "function"
    },
    {
      "inputs": [
        {
          "internalType": "uint256",
          "name": "tokenId",
          "type": "uint256"
        }
      ],
      "name": "ownerOf",
      "outputs": [
        {
          "internalType": "address",
          "name": "",
          "type": "address"
        }
      ],
      "stateMutability": "view",
      "type": "function"
    },
    {
      "inputs": [],
      "name": "pause",
      "outputs": [],
      "stateMutability": "nonpayable",
      "type": "function"
    },
    {
      "inputs": [],
      "name": "paused",
      "outputs": [
        {
          "internalType": "bool",
          "name": "",
          "type": "bool"
        }
      ],
      "stateMutability": "view",
      "type": "function"
    },
    {
      "inputs": [],
      "name": "renounceOwnership",
      "outputs": [],
      "stateMutability": "nonpayable",
      "type": "function"
    },
    {
      "inputs": [
        {
          "internalType": "uint256",
          "name": "_tokenId",
          "type": "uint256"
        },
        {
          "internalType": "uint256",
          "name": "_salePrice",
          "type": "uint256"
        }
      ],
      "name": "royaltyInfo",
      "outputs": [
        {
          "internalType": "address",
          "name": "",
          "type": "address"
        },
        {
          "internalType": "uint256",
          "name": "",
          "type": "uint256"
        }
      ],
      "stateMutability": "view",
      "type": "function"
    },
    {
      "inputs": [
        {
          "internalType": "address",
          "name": "to",
          "type": "address"
        }
      ],
      "name": "safeMint",
      "outputs": [],
      "stateMutability": "payable",
      "type": "function"
    },
    {
      "inputs": [
        {
          "internalType": "address",
          "name": "to",
          "type": "address"
        },
        {
          "internalType": "uint256",
          "name": "amount",
          "type": "uint256"
        }
      ],
      "name": "safeMintMany",
      "outputs": [],
      "stateMutability": "payable",
      "type": "function"
    },
    {
      "inputs": [
        {
          "internalType": "address",
          "name": "from",
          "type": "address"
        },
        {
          "internalType": "address",
          "name": "to",
          "type": "address"
        },
        {
          "internalType": "uint256",
          "name": "tokenId",
          "type": "uint256"
        }
      ],
      "name": "safeTransferFrom",
      "outputs": [],
      "stateMutability": "nonpayable",
      "type": "function"
    },
    {
      "inputs": [
        {
          "internalType": "address",
          "name": "from",
          "type": "address"
        },
        {
          "internalType": "address",
          "name": "to",
          "type": "address"
        },
        {
          "internalType": "uint256",
          "name": "tokenId",
          "type": "uint256"
        },
        {
          "internalType": "bytes",
          "name": "data",
          "type": "bytes"
        }
      ],
      "name": "safeTransferFrom",
      "outputs": [],
      "stateMutability": "nonpayable",
      "type": "function"
    },
    {
      "inputs": [
        {
          "internalType": "address",
          "name": "operator",
          "type": "address"
        },
        {
          "internalType": "bool",
          "name": "approved",
          "type": "bool"
        }
      ],
      "name": "setApprovalForAll",
      "outputs": [],
      "stateMutability": "nonpayable",
      "type": "function"
    },
    {
      "inputs": [
        {
          "internalType": "string",
          "name": "newBaseURI",
          "type": "string"
        }
      ],
      "name": "setBaseURI",
      "outputs": [],
      "stateMutability": "nonpayable",
      "type": "function"
    },
    {
      "inputs": [
        {
          "internalType": "address",
          "name": "receiver",
          "type": "address"
        },
        {
          "internalType": "uint96",
          "name": "feeNumerator",
          "type": "uint96"
        }
      ],
      "name": "setDefaultRoyalty",
      "outputs": [],
      "stateMutability": "nonpayable",
      "type": "function"
    },
    {
      "inputs": [
        {
          "internalType": "uint256",
          "name": "fee",
          "type": "uint256"
        }
      ],
      "name": "setFee",
      "outputs": [],
      "stateMutability": "nonpayable",
      "type": "function"
    },
    {
      "inputs": [
        {
          "internalType": "uint256",
          "name": "newSupply",
          "type": "uint256"
        }
      ],
      "name": "setTotalSupply",
      "outputs": [],
      "stateMutability": "nonpayable",
      "type": "function"
    },
    {
      "inputs": [],
      "name": "supply",
      "outputs": [
        {
          "internalType": "uint256",
          "name": "",
          "type": "uint256"
        }
      ],
      "stateMutability": "view",
      "type": "function"
    },
    {
      "inputs": [
        {
          "internalType": "bytes4",
          "name": "interfaceId",
          "type": "bytes4"
        }
      ],
      "name": "supportsInterface",
      "outputs": [
        {
          "internalType": "bool",
          "name": "",
          "type": "bool"
        }
      ],
      "stateMutability": "view",
      "type": "function"
    },
    {
      "inputs": [],
      "name": "symbol",
      "outputs": [
        {
          "internalType": "string",
          "name": "",
          "type": "string"
        }
      ],
      "stateMutability": "view",
      "type": "function"
    },
    {
      "inputs": [
        {
          "internalType": "uint256",
          "name": "index",
          "type": "uint256"
        }
      ],
      "name": "tokenByIndex",
      "outputs": [
        {
          "internalType": "uint256",
          "name": "",
          "type": "uint256"
        }
      ],
      "stateMutability": "view",
      "type": "function"
    },
    {
      "inputs": [
        {
          "internalType": "address",
          "name": "owner",
          "type": "address"
        },
        {
          "internalType": "uint256",
          "name": "index",
          "type": "uint256"
        }
      ],
      "name": "tokenOfOwnerByIndex",
      "outputs": [
        {
          "internalType": "uint256",
          "name": "",
          "type": "uint256"
        }
      ],
      "stateMutability": "view",
      "type": "function"
    },
    {
      "inputs": [
        {
          "internalType": "uint256",
          "name": "tokenId",
          "type": "uint256"
        }
      ],
      "name": "tokenURI",
      "outputs": [
        {
          "internalType": "string",
          "name": "",
          "type": "string"
        }
      ],
      "stateMutability": "view",
      "type": "function"
    },
    {
      "inputs": [],
      "name": "totalSupply",
      "outputs": [
        {
          "internalType": "uint256",
          "name": "",
          "type": "uint256"
        }
      ],
      "stateMutability": "view",
      "type": "function"
    },
    {
      "inputs": [
        {
          "internalType": "address",
          "name": "from",
          "type": "address"
        },
        {
          "internalType": "address",
          "name": "to",
          "type": "address"
        },
        {
          "internalType": "uint256",
          "name": "tokenId",
          "type": "uint256"
        }
      ],
      "name": "transferFrom",
      "outputs": [],
      "stateMutability": "nonpayable",
      "type": "function"
    },
    {
      "inputs": [
        {
          "internalType": "address",
          "name": "newOwner",
          "type": "address"
        }
      ],
      "name": "transferOwnership",
      "outputs": [],
      "stateMutability": "nonpayable",
      "type": "function"
    },
    {
      "inputs": [],
      "name": "unpause",
      "outputs": [],
      "stateMutability": "nonpayable",
      "type": "function"
    },
    {
      "inputs": [],
      "name": "withdraw",
      "outputs": [],
      "stateMutability": "nonpayable",
      "type": "function"
    }
  ],
  "bytecode": "0x6080604052662386f26fc10000600f553480156200001c57600080fd5b506040516200484f3803806200484f833981810160405281019062000042919062000320565b6040518060400160405280600481526020017f42696b65000000000000000000000000000000000000000000000000000000008152506040518060400160405280600481526020017f42494b45000000000000000000000000000000000000000000000000000000008152508160029080519060200190620000c692919062000242565b508060039080519060200190620000df92919062000242565b5050506000600c60006101000a81548160ff0219169083151502179055506200011d620001116200017460201b60201c565b6200017c60201b60201c565b62000133826200017c60201b620015a11760201c565b604051806080016040528060508152602001620047ff60509139600e90805190602001906200016492919062000242565b5080601081905550505062000438565b600033905090565b6000600c60019054906101000a900473ffffffffffffffffffffffffffffffffffffffff16905081600c60016101000a81548173ffffffffffffffffffffffffffffffffffffffff021916908373ffffffffffffffffffffffffffffffffffffffff1602179055508173ffffffffffffffffffffffffffffffffffffffff168173ffffffffffffffffffffffffffffffffffffffff167f8be0079c531659141344cd1fd0a4f28419497f9722a3daafe3b4186f6b6457e060405160405180910390a35050565b82805462000250906200039f565b90600052602060002090601f016020900481019282620002745760008555620002c0565b82601f106200028f57805160ff1916838001178555620002c0565b82800160010185558215620002c0579182015b82811115620002bf578251825591602001919060010190620002a2565b5b509050620002cf9190620002d3565b5090565b5b80821115620002ee576000816000905550600101620002d4565b5090565b600081519050620003038162000404565b92915050565b6000815190506200031a816200041e565b92915050565b600080604083850312156200033457600080fd5b60006200034485828601620002f2565b9250506020620003578582860162000309565b9150509250929050565b60006200036e8262000375565b9050919050565b600073ffffffffffffffffffffffffffffffffffffffff82169050919050565b6000819050919050565b60006002820490506001821680620003b857607f821691505b60208210811415620003cf57620003ce620003d5565b5b50919050565b7f4e487b7100000000000000000000000000000000000000000000000000000000600052602260045260246000fd5b6200040f8162000361565b81146200041b57600080fd5b50565b620004298162000395565b81146200043557600080fd5b50565b6143b780620004486000396000f3fe6080604052600436106102045760003560e01c80635c975abb1161011857806395d89b41116100a0578063ced72f871161006f578063ced72f8714610724578063e8a3d4851461074f578063e985e9c51461077a578063f2fde38b146107b7578063f7ea7a3d146107e057610204565b806395d89b411461066a578063a22cb46514610695578063b88d4fde146106be578063c87b56dd146106e757610204565b806370a08231116100e757806370a08231146105b8578063715018a6146105f55780638456cb591461060c5780638da5cb5b146106235780638fe4a2451461064e57610204565b80635c975abb146104fc5780636352211e1461052757806369fe0e2d146105645780636c0360eb1461058d57610204565b80632a55205a1161019b57806340d097c31161016a57806340d097c31461042857806342842e0e1461044457806342966c681461046d5780634f6ccce71461049657806355f804b3146104d357610204565b80632a55205a1461037f5780632f745c59146103bd5780633ccfd60b146103fa5780633f4ba83a1461041157610204565b8063081812fc116101d7578063081812fc146102c5578063095ea7b31461030257806318160ddd1461032b57806323b872dd1461035657610204565b806301ffc9a71461020957806304634d8d14610246578063047fc9aa1461026f57806306fdde031461029a575b600080fd5b34801561021557600080fd5b50610230600480360381019061022b919061314e565b610809565b60405161023d919061369c565b60405180910390f35b34801561025257600080fd5b5061026d60048036038101906102689190613112565b61081b565b005b34801561027b57600080fd5b50610284610831565b6040516102919190613979565b60405180910390f35b3480156102a657600080fd5b506102af610837565b6040516102bc91906136b7565b60405180910390f35b3480156102d157600080fd5b506102ec60048036038101906102e791906131e1565b6108c9565b6040516102f9919061360c565b60405180910390f35b34801561030e57600080fd5b50610329600480360381019061032491906130d6565b61090f565b005b34801561033757600080fd5b50610340610a27565b60405161034d9190613979565b60405180910390f35b34801561036257600080fd5b5061037d60048036038101906103789190612fd0565b610a34565b005b34801561038b57600080fd5b506103a660048036038101906103a1919061320a565b610a94565b6040516103b4929190613673565b60405180910390f35b3480156103c957600080fd5b506103e460048036038101906103df91906130d6565b610c7f565b6040516103f19190613979565b60405180910390f35b34801561040657600080fd5b5061040f610d24565b005b34801561041d57600080fd5b50610426610d75565b005b610442600480360381019061043d9190612f6b565b610d87565b005b34801561045057600080fd5b5061046b60048036038101906104669190612fd0565b610e37565b005b34801561047957600080fd5b50610494600480360381019061048f91906131e1565b610e57565b005b3480156104a257600080fd5b506104bd60048036038101906104b891906131e1565b610eb3565b6040516104ca9190613979565b60405180910390f35b3480156104df57600080fd5b506104fa60048036038101906104f591906131a0565b610f4a565b005b34801561050857600080fd5b50610511610f6c565b60405161051e919061369c565b60405180910390f35b34801561053357600080fd5b5061054e600480360381019061054991906131e1565b610f83565b60405161055b919061360c565b60405180910390f35b34801561057057600080fd5b5061058b600480360381019061058691906131e1565b611035565b005b34801561059957600080fd5b506105a261105a565b6040516105af91906136b7565b60405180910390f35b3480156105c457600080fd5b506105df60048036038101906105da9190612f6b565b6110e8565b6040516105ec9190613979565b60405180910390f35b34801561060157600080fd5b5061060a6111a0565b005b34801561061857600080fd5b506106216111b4565b005b34801561062f57600080fd5b506106386111c6565b604051610645919061360c565b60405180910390f35b610668600480360381019061066391906130d6565b6111f0565b005b34801561067657600080fd5b5061067f6112e5565b60405161068c91906136b7565b60405180910390f35b3480156106a157600080fd5b506106bc60048036038101906106b7919061309a565b611377565b005b3480156106ca57600080fd5b506106e560048036038101906106e0919061301f565b61138d565b005b3480156106f357600080fd5b5061070e600480360381019061070991906131e1565b6113ef565b60405161071b91906136b7565b60405180910390f35b34801561073057600080fd5b5061073961144d565b6040516107469190613979565b60405180910390f35b34801561075b57600080fd5b50610764611457565b60405161077191906136b7565b60405180910390f35b34801561078657600080fd5b506107a1600480360381019061079c9190612f94565b611477565b6040516107ae919061369c565b60405180910390f35b3480156107c357600080fd5b506107de60048036038101906107d99190612f6b565b61150b565b005b3480156107ec57600080fd5b50610807600480360381019061080291906131e1565b61158f565b005b600061081482611667565b9050919050565b610823611679565b61082d82826116f7565b5050565b60105481565b60606002805461084690613c4e565b80601f016020809104026020016040519081016040528092919081815260200182805461087290613c4e565b80156108bf5780601f10610894576101008083540402835291602001916108bf565b820191906000526020600020905b8154815290600101906020018083116108a257829003601f168201915b5050505050905090565b60006108d48261188c565b6006600083815260200190815260200160002060009054906101000a900473ffffffffffffffffffffffffffffffffffffffff169050919050565b600061091a82610f83565b90508073ffffffffffffffffffffffffffffffffffffffff168373ffffffffffffffffffffffffffffffffffffffff16141561098b576040517f08c379a0000000000000000000000000000000000000000000000000000000008152600401610982906138d9565b60405180910390fd5b8073ffffffffffffffffffffffffffffffffffffffff166109aa6118d7565b73ffffffffffffffffffffffffffffffffffffffff1614806109d957506109d8816109d36118d7565b611477565b5b610a18576040517f08c379a0000000000000000000000000000000000000000000000000000000008152600401610a0f90613839565b60405180910390fd5b610a2283836118df565b505050565b6000600a80549050905090565b610a45610a3f6118d7565b82611998565b610a84576040517f08c379a0000000000000000000000000000000000000000000000000000000008152600401610a7b90613939565b60405180910390fd5b610a8f838383611a2d565b505050565b6000806000600160008681526020019081526020016000206040518060400160405290816000820160009054906101000a900473ffffffffffffffffffffffffffffffffffffffff1673ffffffffffffffffffffffffffffffffffffffff1673ffffffffffffffffffffffffffffffffffffffff1681526020016000820160149054906101000a90046bffffffffffffffffffffffff166bffffffffffffffffffffffff166bffffffffffffffffffffffff16815250509050600073ffffffffffffffffffffffffffffffffffffffff16816000015173ffffffffffffffffffffffffffffffffffffffff161415610c2a5760006040518060400160405290816000820160009054906101000a900473ffffffffffffffffffffffffffffffffffffffff1673ffffffffffffffffffffffffffffffffffffffff1673ffffffffffffffffffffffffffffffffffffffff1681526020016000820160149054906101000a90046bffffffffffffffffffffffff166bffffffffffffffffffffffff166bffffffffffffffffffffffff168152505090505b6000610c34611c94565b6bffffffffffffffffffffffff1682602001516bffffffffffffffffffffffff1686610c609190613ae5565b610c6a9190613ab4565b90508160000151819350935050509250929050565b6000610c8a836110e8565b8210610ccb576040517f08c379a0000000000000000000000000000000000000000000000000000000008152600401610cc2906136f9565b60405180910390fd5b600860008473ffffffffffffffffffffffffffffffffffffffff1673ffffffffffffffffffffffffffffffffffffffff168152602001908152602001600020600083815260200190815260200160002054905092915050565b610d2c611679565b3373ffffffffffffffffffffffffffffffffffffffff166108fc479081150290604051600060405180830381858888f19350505050158015610d72573d6000803e3d6000fd5b50565b610d7d611679565b610d85611c9e565b565b610d91600d611d01565b6000610d9d600d611d17565b9050601054811115610de4576040517f08c379a0000000000000000000000000000000000000000000000000000000008152600401610ddb90613899565b60405180910390fd5b600f54341015610e29576040517f08c379a0000000000000000000000000000000000000000000000000000000008152600401610e20906137d9565b60405180910390fd5b610e338282611d25565b5050565b610e528383836040518060200160405280600081525061138d565b505050565b610e68610e626118d7565b82611998565b610ea7576040517f08c379a0000000000000000000000000000000000000000000000000000000008152600401610e9e90613939565b60405180910390fd5b610eb081611d43565b50565b6000610ebd610a27565b8210610efe576040517f08c379a0000000000000000000000000000000000000000000000000000000008152600401610ef5906138f9565b60405180910390fd5b600a8281548110610f38577f4e487b7100000000000000000000000000000000000000000000000000000000600052603260045260246000fd5b90600052602060002001549050919050565b610f52611679565b80600e9080519060200190610f68929190612d7a565b5050565b6000600c60009054906101000a900460ff16905090565b6000806004600084815260200190815260200160002060009054906101000a900473ffffffffffffffffffffffffffffffffffffffff169050600073ffffffffffffffffffffffffffffffffffffffff168173ffffffffffffffffffffffffffffffffffffffff16141561102c576040517f08c379a0000000000000000000000000000000000000000000000000000000008152600401611023906138b9565b60405180910390fd5b80915050919050565b61103d611679565b67016345785d8a0000816110519190613ae5565b600f8190555050565b600e805461106790613c4e565b80601f016020809104026020016040519081016040528092919081815260200182805461109390613c4e565b80156110e05780601f106110b5576101008083540402835291602001916110e0565b820191906000526020600020905b8154815290600101906020018083116110c357829003601f168201915b505050505081565b60008073ffffffffffffffffffffffffffffffffffffffff168273ffffffffffffffffffffffffffffffffffffffff161415611159576040517f08c379a000000000000000000000000000000000000000000000000000000000815260040161115090613819565b60405180910390fd5b600560008373ffffffffffffffffffffffffffffffffffffffff1673ffffffffffffffffffffffffffffffffffffffff168152602001908152602001600020549050919050565b6111a8611679565b6111b260006115a1565b565b6111bc611679565b6111c4611d4f565b565b6000600c60019054906101000a900473ffffffffffffffffffffffffffffffffffffffff16905090565b601054816111fe600d611d17565b6112089190613a5e565b1115611249576040517f08c379a000000000000000000000000000000000000000000000000000000000815260040161124090613899565b60405180910390fd5b600f54816112579190613ae5565b341015611299576040517f08c379a0000000000000000000000000000000000000000000000000000000008152600401611290906137d9565b60405180910390fd5b600080600090505b828160ff1610156112df576112b6600d611d01565b6112c0600d611d17565b91506112cc8483611d25565b80806112d790613cb1565b9150506112a1565b50505050565b6060600380546112f490613c4e565b80601f016020809104026020016040519081016040528092919081815260200182805461132090613c4e565b801561136d5780601f106113425761010080835404028352916020019161136d565b820191906000526020600020905b81548152906001019060200180831161135057829003601f168201915b5050505050905090565b6113896113826118d7565b8383611db2565b5050565b61139e6113986118d7565b83611998565b6113dd576040517f08c379a00000000000000000000000000000000000000000000000000000000081526004016113d490613939565b60405180910390fd5b6113e984848484611f1f565b50505050565b60606113fa8261188c565b6000611404611f7b565b905060008151116114245760405180602001604052806000815250611445565b8060405160200161143591906135f5565b6040516020818303038152906040525b915050919050565b6000600f54905090565b60606040518060a001604052806067815260200161431b60679139905090565b6000600760008473ffffffffffffffffffffffffffffffffffffffff1673ffffffffffffffffffffffffffffffffffffffff16815260200190815260200160002060008373ffffffffffffffffffffffffffffffffffffffff1673ffffffffffffffffffffffffffffffffffffffff16815260200190815260200160002060009054906101000a900460ff16905092915050565b611513611679565b600073ffffffffffffffffffffffffffffffffffffffff168173ffffffffffffffffffffffffffffffffffffffff161415611583576040517f08c379a000000000000000000000000000000000000000000000000000000000815260040161157a90613739565b60405180910390fd5b61158c816115a1565b50565b611597611679565b8060108190555050565b6000600c60019054906101000a900473ffffffffffffffffffffffffffffffffffffffff16905081600c60016101000a81548173ffffffffffffffffffffffffffffffffffffffff021916908373ffffffffffffffffffffffffffffffffffffffff1602179055508173ffffffffffffffffffffffffffffffffffffffff168173ffffffffffffffffffffffffffffffffffffffff167f8be0079c531659141344cd1fd0a4f28419497f9722a3daafe3b4186f6b6457e060405160405180910390a35050565b60006116728261200d565b9050919050565b6116816118d7565b73ffffffffffffffffffffffffffffffffffffffff1661169f6111c6565b73ffffffffffffffffffffffffffffffffffffffff16146116f5576040517f08c379a00000000000000000000000000000000000000000000000000000000081526004016116ec90613879565b60405180910390fd5b565b6116ff611c94565b6bffffffffffffffffffffffff16816bffffffffffffffffffffffff16111561175d576040517f08c379a000000000000000000000000000000000000000000000000000000000815260040161175490613919565b60405180910390fd5b600073ffffffffffffffffffffffffffffffffffffffff168273ffffffffffffffffffffffffffffffffffffffff1614156117cd576040517f08c379a00000000000000000000000000000000000000000000000000000000081526004016117c490613959565b60405180910390fd5b60405180604001604052808373ffffffffffffffffffffffffffffffffffffffff168152602001826bffffffffffffffffffffffff168152506000808201518160000160006101000a81548173ffffffffffffffffffffffffffffffffffffffff021916908373ffffffffffffffffffffffffffffffffffffffff16021790555060208201518160000160146101000a8154816bffffffffffffffffffffffff02191690836bffffffffffffffffffffffff1602179055509050505050565b61189581612087565b6118d4576040517f08c379a00000000000000000000000000000000000000000000000000000000081526004016118cb906138b9565b60405180910390fd5b50565b600033905090565b816006600083815260200190815260200160002060006101000a81548173ffffffffffffffffffffffffffffffffffffffff021916908373ffffffffffffffffffffffffffffffffffffffff160217905550808273ffffffffffffffffffffffffffffffffffffffff1661195283610f83565b73ffffffffffffffffffffffffffffffffffffffff167f8c5be1e5ebec7d5bd14f71427d1e84f3dd0314c0f7b2291e5b200ac8c7c3b92560405160405180910390a45050565b6000806119a483610f83565b90508073ffffffffffffffffffffffffffffffffffffffff168473ffffffffffffffffffffffffffffffffffffffff1614806119e657506119e58185611477565b5b80611a2457508373ffffffffffffffffffffffffffffffffffffffff16611a0c846108c9565b73ffffffffffffffffffffffffffffffffffffffff16145b91505092915050565b8273ffffffffffffffffffffffffffffffffffffffff16611a4d82610f83565b73ffffffffffffffffffffffffffffffffffffffff1614611aa3576040517f08c379a0000000000000000000000000000000000000000000000000000000008152600401611a9a90613759565b60405180910390fd5b600073ffffffffffffffffffffffffffffffffffffffff168273ffffffffffffffffffffffffffffffffffffffff161415611b13576040517f08c379a0000000000000000000000000000000000000000000000000000000008152600401611b0a90613799565b60405180910390fd5b611b1e8383836120f3565b611b296000826118df565b6001600560008573ffffffffffffffffffffffffffffffffffffffff1673ffffffffffffffffffffffffffffffffffffffff1681526020019081526020016000206000828254611b799190613b3f565b925050819055506001600560008473ffffffffffffffffffffffffffffffffffffffff1673ffffffffffffffffffffffffffffffffffffffff1681526020019081526020016000206000828254611bd09190613a5e565b92505081905550816004600083815260200190815260200160002060006101000a81548173ffffffffffffffffffffffffffffffffffffffff021916908373ffffffffffffffffffffffffffffffffffffffff160217905550808273ffffffffffffffffffffffffffffffffffffffff168473ffffffffffffffffffffffffffffffffffffffff167fddf252ad1be2c89b69c2b068fc378daa952ba7f163c4a11628f55a4df523b3ef60405160405180910390a4611c8f83838361210b565b505050565b6000612710905090565b611ca6612110565b6000600c60006101000a81548160ff0219169083151502179055507f5db9ee0a495bf2e6ff9c91a7834c1ba4fdd244a5e8aa4e537bd38aeae4b073aa611cea6118d7565b604051611cf7919061360c565b60405180910390a1565b6001816000016000828254019250508190555050565b600081600001549050919050565b611d3f828260405180602001604052806000815250612159565b5050565b611d4c816121b4565b50565b611d576121c9565b6001600c60006101000a81548160ff0219169083151502179055507f62e78cea01bee320cd4e420270b5ea74000d11b0c9f74754ebdbfc544b05a258611d9b6118d7565b604051611da8919061360c565b60405180910390a1565b8173ffffffffffffffffffffffffffffffffffffffff168373ffffffffffffffffffffffffffffffffffffffff161415611e21576040517f08c379a0000000000000000000000000000000000000000000000000000000008152600401611e18906137b9565b60405180910390fd5b80600760008573ffffffffffffffffffffffffffffffffffffffff1673ffffffffffffffffffffffffffffffffffffffff16815260200190815260200160002060008473ffffffffffffffffffffffffffffffffffffffff1673ffffffffffffffffffffffffffffffffffffffff16815260200190815260200160002060006101000a81548160ff0219169083151502179055508173ffffffffffffffffffffffffffffffffffffffff168373ffffffffffffffffffffffffffffffffffffffff167f17307eab39ab6107e8899845ad3d59bd9653f200f220920489ca2b5937696c3183604051611f12919061369c565b60405180910390a3505050565b611f2a848484611a2d565b611f3684848484612213565b611f75576040517f08c379a0000000000000000000000000000000000000000000000000000000008152600401611f6c90613719565b60405180910390fd5b50505050565b6060600e8054611f8a90613c4e565b80601f0160208091040260200160405190810160405280929190818152602001828054611fb690613c4e565b80156120035780601f10611fd857610100808354040283529160200191612003565b820191906000526020600020905b815481529060010190602001808311611fe657829003601f168201915b5050505050905090565b60007f780e9d63000000000000000000000000000000000000000000000000000000007bffffffffffffffffffffffffffffffffffffffffffffffffffffffff1916827bffffffffffffffffffffffffffffffffffffffffffffffffffffffff19161480612080575061207f826123aa565b5b9050919050565b60008073ffffffffffffffffffffffffffffffffffffffff166004600084815260200190815260200160002060009054906101000a900473ffffffffffffffffffffffffffffffffffffffff1673ffffffffffffffffffffffffffffffffffffffff1614159050919050565b6120fb6121c9565b61210683838361248c565b505050565b505050565b612118610f6c565b612157576040517f08c379a000000000000000000000000000000000000000000000000000000000815260040161214e906136d9565b60405180910390fd5b565b61216383836125a0565b6121706000848484612213565b6121af576040517f08c379a00000000000000000000000000000000000000000000000000000000081526004016121a690613719565b60405180910390fd5b505050565b6121bd8161277a565b6121c681612897565b50565b6121d1610f6c565b15612211576040517f08c379a0000000000000000000000000000000000000000000000000000000008152600401612208906137f9565b60405180910390fd5b565b60006122348473ffffffffffffffffffffffffffffffffffffffff166128f6565b1561239d578373ffffffffffffffffffffffffffffffffffffffff1663150b7a0261225d6118d7565b8786866040518563ffffffff1660e01b815260040161227f9493929190613627565b602060405180830381600087803b15801561229957600080fd5b505af19250505080156122ca57506040513d601f19601f820116820180604052508101906122c79190613177565b60015b61234d573d80600081146122fa576040519150601f19603f3d011682016040523d82523d6000602084013e6122ff565b606091505b50600081511415612345576040517f08c379a000000000000000000000000000000000000000000000000000000000815260040161233c90613719565b60405180910390fd5b805181602001fd5b63150b7a0260e01b7bffffffffffffffffffffffffffffffffffffffffffffffffffffffff1916817bffffffffffffffffffffffffffffffffffffffffffffffffffffffff1916149150506123a2565b600190505b949350505050565b60007f80ac58cd000000000000000000000000000000000000000000000000000000007bffffffffffffffffffffffffffffffffffffffffffffffffffffffff1916827bffffffffffffffffffffffffffffffffffffffffffffffffffffffff1916148061247557507f5b5e139f000000000000000000000000000000000000000000000000000000007bffffffffffffffffffffffffffffffffffffffffffffffffffffffff1916827bffffffffffffffffffffffffffffffffffffffffffffffffffffffff1916145b80612485575061248482612919565b5b9050919050565b612497838383612993565b600073ffffffffffffffffffffffffffffffffffffffff168373ffffffffffffffffffffffffffffffffffffffff1614156124da576124d581612998565b612519565b8173ffffffffffffffffffffffffffffffffffffffff168373ffffffffffffffffffffffffffffffffffffffff16146125185761251783826129e1565b5b5b600073ffffffffffffffffffffffffffffffffffffffff168273ffffffffffffffffffffffffffffffffffffffff16141561255c5761255781612b4e565b61259b565b8273ffffffffffffffffffffffffffffffffffffffff168273ffffffffffffffffffffffffffffffffffffffff161461259a576125998282612c91565b5b5b505050565b600073ffffffffffffffffffffffffffffffffffffffff168273ffffffffffffffffffffffffffffffffffffffff161415612610576040517f08c379a000000000000000000000000000000000000000000000000000000000815260040161260790613859565b60405180910390fd5b61261981612087565b15612659576040517f08c379a000000000000000000000000000000000000000000000000000000000815260040161265090613779565b60405180910390fd5b612665600083836120f3565b6001600560008473ffffffffffffffffffffffffffffffffffffffff1673ffffffffffffffffffffffffffffffffffffffff16815260200190815260200160002060008282546126b59190613a5e565b92505081905550816004600083815260200190815260200160002060006101000a81548173ffffffffffffffffffffffffffffffffffffffff021916908373ffffffffffffffffffffffffffffffffffffffff160217905550808273ffffffffffffffffffffffffffffffffffffffff16600073ffffffffffffffffffffffffffffffffffffffff167fddf252ad1be2c89b69c2b068fc378daa952ba7f163c4a11628f55a4df523b3ef60405160405180910390a46127766000838361210b565b5050565b600061278582610f83565b9050612793816000846120f3565b61279e6000836118df565b6001600560008373ffffffffffffffffffffffffffffffffffffffff1673ffffffffffffffffffffffffffffffffffffffff16815260200190815260200160002060008282546127ee9190613b3f565b925050819055506004600083815260200190815260200160002060006101000a81549073ffffffffffffffffffffffffffffffffffffffff021916905581600073ffffffffffffffffffffffffffffffffffffffff168273ffffffffffffffffffffffffffffffffffffffff167fddf252ad1be2c89b69c2b068fc378daa952ba7f163c4a11628f55a4df523b3ef60405160405180910390a46128938160008461210b565b5050565b60016000828152602001908152602001600020600080820160006101000a81549073ffffffffffffffffffffffffffffffffffffffff02191690556000820160146101000a8154906bffffffffffffffffffffffff0219169055505050565b6000808273ffffffffffffffffffffffffffffffffffffffff163b119050919050565b60007f2a55205a000000000000000000000000000000000000000000000000000000007bffffffffffffffffffffffffffffffffffffffffffffffffffffffff1916827bffffffffffffffffffffffffffffffffffffffffffffffffffffffff1916148061298c575061298b82612d10565b5b9050919050565b505050565b600a80549050600b600083815260200190815260200160002081905550600a81908060018154018082558091505060019003906000526020600020016000909190919091505550565b600060016129ee846110e8565b6129f89190613b3f565b9050600060096000848152602001908152602001600020549050818114612add576000600860008673ffffffffffffffffffffffffffffffffffffffff1673ffffffffffffffffffffffffffffffffffffffff168152602001908152602001600020600084815260200190815260200160002054905080600860008773ffffffffffffffffffffffffffffffffffffffff1673ffffffffffffffffffffffffffffffffffffffff168152602001908152602001600020600084815260200190815260200160002081905550816009600083815260200190815260200160002081905550505b6009600084815260200190815260200160002060009055600860008573ffffffffffffffffffffffffffffffffffffffff1673ffffffffffffffffffffffffffffffffffffffff16815260200190815260200160002060008381526020019081526020016000206000905550505050565b60006001600a80549050612b629190613b3f565b90506000600b60008481526020019081526020016000205490506000600a8381548110612bb8577f4e487b7100000000000000000000000000000000000000000000000000000000600052603260045260246000fd5b9060005260206000200154905080600a8381548110612c00577f4e487b7100000000000000000000000000000000000000000000000000000000600052603260045260246000fd5b906000526020600020018190555081600b600083815260200190815260200160002081905550600b600085815260200190815260200160002060009055600a805480612c75577f4e487b7100000000000000000000000000000000000000000000000000000000600052603160045260246000fd5b6001900381819060005260206000200160009055905550505050565b6000612c9c836110e8565b905081600860008573ffffffffffffffffffffffffffffffffffffffff1673ffffffffffffffffffffffffffffffffffffffff168152602001908152602001600020600083815260200190815260200160002081905550806009600084815260200190815260200160002081905550505050565b60007f01ffc9a7000000000000000000000000000000000000000000000000000000007bffffffffffffffffffffffffffffffffffffffffffffffffffffffff1916827bffffffffffffffffffffffffffffffffffffffffffffffffffffffff1916149050919050565b828054612d8690613c4e565b90600052602060002090601f016020900481019282612da85760008555612def565b82601f10612dc157805160ff1916838001178555612def565b82800160010185558215612def579182015b82811115612dee578251825591602001919060010190612dd3565b5b509050612dfc9190612e00565b5090565b5b80821115612e19576000816000905550600101612e01565b5090565b6000612e30612e2b846139b9565b613994565b905082815260208101848484011115612e4857600080fd5b612e53848285613c0c565b509392505050565b6000612e6e612e69846139ea565b613994565b905082815260208101848484011115612e8657600080fd5b612e91848285613c0c565b509392505050565b600081359050612ea8816142a7565b92915050565b600081359050612ebd816142be565b92915050565b600081359050612ed2816142d5565b92915050565b600081519050612ee7816142d5565b92915050565b600082601f830112612efe57600080fd5b8135612f0e848260208601612e1d565b91505092915050565b600082601f830112612f2857600080fd5b8135612f38848260208601612e5b565b91505092915050565b600081359050612f50816142ec565b92915050565b600081359050612f6581614303565b92915050565b600060208284031215612f7d57600080fd5b6000612f8b84828501612e99565b91505092915050565b60008060408385031215612fa757600080fd5b6000612fb585828601612e99565b9250506020612fc685828601612e99565b9150509250929050565b600080600060608486031215612fe557600080fd5b6000612ff386828701612e99565b935050602061300486828701612e99565b925050604061301586828701612f41565b9150509250925092565b6000806000806080858703121561303557600080fd5b600061304387828801612e99565b945050602061305487828801612e99565b935050604061306587828801612f41565b925050606085013567ffffffffffffffff81111561308257600080fd5b61308e87828801612eed565b91505092959194509250565b600080604083850312156130ad57600080fd5b60006130bb85828601612e99565b92505060206130cc85828601612eae565b9150509250929050565b600080604083850312156130e957600080fd5b60006130f785828601612e99565b925050602061310885828601612f41565b9150509250929050565b6000806040838503121561312557600080fd5b600061313385828601612e99565b925050602061314485828601612f56565b9150509250929050565b60006020828403121561316057600080fd5b600061316e84828501612ec3565b91505092915050565b60006020828403121561318957600080fd5b600061319784828501612ed8565b91505092915050565b6000602082840312156131b257600080fd5b600082013567ffffffffffffffff8111156131cc57600080fd5b6131d884828501612f17565b91505092915050565b6000602082840312156131f357600080fd5b600061320184828501612f41565b91505092915050565b6000806040838503121561321d57600080fd5b600061322b85828601612f41565b925050602061323c85828601612f41565b9150509250929050565b61324f81613b73565b82525050565b61325e81613b85565b82525050565b600061326f82613a1b565b6132798185613a31565b9350613289818560208601613c1b565b61329281613d97565b840191505092915050565b60006132a882613a26565b6132b28185613a42565b93506132c2818560208601613c1b565b6132cb81613d97565b840191505092915050565b60006132e182613a26565b6132eb8185613a53565b93506132fb818560208601613c1b565b80840191505092915050565b6000613314601483613a42565b915061331f82613da8565b602082019050919050565b6000613337602b83613a42565b915061334282613dd1565b604082019050919050565b600061335a603283613a42565b915061336582613e20565b604082019050919050565b600061337d602683613a42565b915061338882613e6f565b604082019050919050565b60006133a0602583613a42565b91506133ab82613ebe565b604082019050919050565b60006133c3601c83613a42565b91506133ce82613f0d565b602082019050919050565b60006133e6602483613a42565b91506133f182613f36565b604082019050919050565b6000613409601983613a42565b915061341482613f85565b602082019050919050565b600061342c601283613a42565b915061343782613fae565b602082019050919050565b600061344f601083613a42565b915061345a82613fd7565b602082019050919050565b6000613472602983613a42565b915061347d82614000565b604082019050919050565b6000613495603e83613a42565b91506134a08261404f565b604082019050919050565b60006134b8602083613a42565b91506134c38261409e565b602082019050919050565b60006134db602083613a42565b91506134e6826140c7565b602082019050919050565b60006134fe600d83613a42565b9150613509826140f0565b602082019050919050565b6000613521601883613a42565b915061352c82614119565b602082019050919050565b6000613544602183613a42565b915061354f82614142565b604082019050919050565b6000613567602c83613a42565b915061357282614191565b604082019050919050565b600061358a602a83613a42565b9150613595826141e0565b604082019050919050565b60006135ad602e83613a42565b91506135b88261422f565b604082019050919050565b60006135d0601983613a42565b91506135db8261427e565b602082019050919050565b6135ef81613bdd565b82525050565b600061360182846132d6565b915081905092915050565b60006020820190506136216000830184613246565b92915050565b600060808201905061363c6000830187613246565b6136496020830186613246565b61365660408301856135e6565b81810360608301526136688184613264565b905095945050505050565b60006040820190506136886000830185613246565b61369560208301846135e6565b9392505050565b60006020820190506136b16000830184613255565b92915050565b600060208201905081810360008301526136d1818461329d565b905092915050565b600060208201905081810360008301526136f281613307565b9050919050565b600060208201905081810360008301526137128161332a565b9050919050565b600060208201905081810360008301526137328161334d565b9050919050565b6000602082019050818103600083015261375281613370565b9050919050565b6000602082019050818103600083015261377281613393565b9050919050565b60006020820190508181036000830152613792816133b6565b9050919050565b600060208201905081810360008301526137b2816133d9565b9050919050565b600060208201905081810360008301526137d2816133fc565b9050919050565b600060208201905081810360008301526137f28161341f565b9050919050565b6000602082019050818103600083015261381281613442565b9050919050565b6000602082019050818103600083015261383281613465565b9050919050565b6000602082019050818103600083015261385281613488565b9050919050565b60006020820190508181036000830152613872816134ab565b9050919050565b60006020820190508181036000830152613892816134ce565b9050919050565b600060208201905081810360008301526138b2816134f1565b9050919050565b600060208201905081810360008301526138d281613514565b9050919050565b600060208201905081810360008301526138f281613537565b9050919050565b600060208201905081810360008301526139128161355a565b9050919050565b600060208201905081810360008301526139328161357d565b9050919050565b60006020820190508181036000830152613952816135a0565b9050919050565b60006020820190508181036000830152613972816135c3565b9050919050565b600060208201905061398e60008301846135e6565b92915050565b600061399e6139af565b90506139aa8282613c80565b919050565b6000604051905090565b600067ffffffffffffffff8211156139d4576139d3613d68565b5b6139dd82613d97565b9050602081019050919050565b600067ffffffffffffffff821115613a0557613a04613d68565b5b613a0e82613d97565b9050602081019050919050565b600081519050919050565b600081519050919050565b600082825260208201905092915050565b600082825260208201905092915050565b600081905092915050565b6000613a6982613bdd565b9150613a7483613bdd565b9250827fffffffffffffffffffffffffffffffffffffffffffffffffffffffffffffffff03821115613aa957613aa8613cdb565b5b828201905092915050565b6000613abf82613bdd565b9150613aca83613bdd565b925082613ada57613ad9613d0a565b5b828204905092915050565b6000613af082613bdd565b9150613afb83613bdd565b9250817fffffffffffffffffffffffffffffffffffffffffffffffffffffffffffffffff0483118215151615613b3457613b33613cdb565b5b828202905092915050565b6000613b4a82613bdd565b9150613b5583613bdd565b925082821015613b6857613b67613cdb565b5b828203905092915050565b6000613b7e82613bbd565b9050919050565b60008115159050919050565b60007fffffffff0000000000000000000000000000000000000000000000000000000082169050919050565b600073ffffffffffffffffffffffffffffffffffffffff82169050919050565b6000819050919050565b600060ff82169050919050565b60006bffffffffffffffffffffffff82169050919050565b82818337600083830152505050565b60005b83811015613c39578082015181840152602081019050613c1e565b83811115613c48576000848401525b50505050565b60006002820490506001821680613c6657607f821691505b60208210811415613c7a57613c79613d39565b5b50919050565b613c8982613d97565b810181811067ffffffffffffffff82111715613ca857613ca7613d68565b5b80604052505050565b6000613cbc82613be7565b915060ff821415613cd057613ccf613cdb565b5b600182019050919050565b7f4e487b7100000000000000000000000000000000000000000000000000000000600052601160045260246000fd5b7f4e487b7100000000000000000000000000000000000000000000000000000000600052601260045260246000fd5b7f4e487b7100000000000000000000000000000000000000000000000000000000600052602260045260246000fd5b7f4e487b7100000000000000000000000000000000000000000000000000000000600052604160045260246000fd5b6000601f19601f8301169050919050565b7f5061757361626c653a206e6f7420706175736564000000000000000000000000600082015250565b7f455243373231456e756d657261626c653a206f776e657220696e646578206f7560008201527f74206f6620626f756e6473000000000000000000000000000000000000000000602082015250565b7f4552433732313a207472616e7366657220746f206e6f6e20455243373231526560008201527f63656976657220696d706c656d656e7465720000000000000000000000000000602082015250565b7f4f776e61626c653a206e6577206f776e657220697320746865207a65726f206160008201527f6464726573730000000000000000000000000000000000000000000000000000602082015250565b7f4552433732313a207472616e736665722066726f6d20696e636f72726563742060008201527f6f776e6572000000000000000000000000000000000000000000000000000000602082015250565b7f4552433732313a20746f6b656e20616c7265616479206d696e74656400000000600082015250565b7f4552433732313a207472616e7366657220746f20746865207a65726f2061646460008201527f7265737300000000000000000000000000000000000000000000000000000000602082015250565b7f4552433732313a20617070726f766520746f2063616c6c657200000000000000600082015250565b7f4e6f7420656e6f7567682062616c616e63650000000000000000000000000000600082015250565b7f5061757361626c653a2070617573656400000000000000000000000000000000600082015250565b7f4552433732313a2061646472657373207a65726f206973206e6f74206120766160008201527f6c6964206f776e65720000000000000000000000000000000000000000000000602082015250565b7f4552433732313a20617070726f76652063616c6c6572206973206e6f7420746f60008201527f6b656e206f776e6572206e6f7220617070726f76656420666f7220616c6c0000602082015250565b7f4552433732313a206d696e7420746f20746865207a65726f2061646472657373600082015250565b7f4f776e61626c653a2063616c6c6572206973206e6f7420746865206f776e6572600082015250565b7f4f7574206f6620737570706c7900000000000000000000000000000000000000600082015250565b7f4552433732313a20696e76616c696420746f6b656e2049440000000000000000600082015250565b7f4552433732313a20617070726f76616c20746f2063757272656e74206f776e6560008201527f7200000000000000000000000000000000000000000000000000000000000000602082015250565b7f455243373231456e756d657261626c653a20676c6f62616c20696e646578206f60008201527f7574206f6620626f756e64730000000000000000000000000000000000000000602082015250565b7f455243323938313a20726f79616c7479206665652077696c6c2065786365656460008201527f2073616c65507269636500000000000000000000000000000000000000000000602082015250565b7f4552433732313a2063616c6c6572206973206e6f7420746f6b656e206f776e6560008201527f72206e6f7220617070726f766564000000000000000000000000000000000000602082015250565b7f455243323938313a20696e76616c696420726563656976657200000000000000600082015250565b6142b081613b73565b81146142bb57600080fd5b50565b6142c781613b85565b81146142d257600080fd5b50565b6142de81613b91565b81146142e957600080fd5b50565b6142f581613bdd565b811461430057600080fd5b50565b61430c81613bf4565b811461431757600080fd5b5056fe68747470733a2f2f676174657761792e70696e6174612e636c6f75642f697066732f516d4e75665772654c68377766344c6561743270787a6739326d5169364d36636a573736377061666f445343684a2f636f6e74726163745f6d657461646174612e6a736f6ea264697066735822122058b43471639d23446d679c78b108b77a289e194e76bb94e9ca7f5f6f3f2c5e2964736f6c6343000804003368747470733a2f2f676174657761792e70696e6174612e636c6f75642f697066732f516d52766e685972556165484c4638685365524e546454566e354a5448617335655a6b3857793252627a77524171",
  "linkReferences": {},
  "deployedLinkReferences": {}
}