{
  "_format": "hh-sol-artifact-1",
  "contractName": "Bike",
  "sourceName": "contracts/Bike.sol",
  "abi": [
    {
      "inputs": [
        {
          "internalType": "address",
          "name": "owner",
          "type": "address"
        }
      ],
      "stateMutability": "nonpayable",
      "type": "constructor"
    },
    {
      "anonymous": false,
      "inputs": [
        {
          "indexed": true,
          "internalType": "address",
          "name": "owner",
          "type": "address"
        },
        {
          "indexed": true,
          "internalType": "address",
          "name": "approved",
          "type": "address"
        },
        {
          "indexed": true,
          "internalType": "uint256",
          "name": "tokenId",
          "type": "uint256"
        }
      ],
      "name": "Approval",
      "type": "event"
    },
    {
      "anonymous": false,
      "inputs": [
        {
          "indexed": true,
          "internalType": "address",
          "name": "owner",
          "type": "address"
        },
        {
          "indexed": true,
          "internalType": "address",
          "name": "operator",
          "type": "address"
        },
        {
          "indexed": false,
          "internalType": "bool",
          "name": "approved",
          "type": "bool"
        }
      ],
      "name": "ApprovalForAll",
      "type": "event"
    },
    {
      "anonymous": false,
      "inputs": [
        {
          "indexed": true,
          "internalType": "address",
          "name": "previousOwner",
          "type": "address"
        },
        {
          "indexed": true,
          "internalType": "address",
          "name": "newOwner",
          "type": "address"
        }
      ],
      "name": "OwnershipTransferred",
      "type": "event"
    },
    {
      "anonymous": false,
      "inputs": [
        {
          "indexed": false,
          "internalType": "address",
          "name": "account",
          "type": "address"
        }
      ],
      "name": "Paused",
      "type": "event"
    },
    {
      "anonymous": false,
      "inputs": [
        {
          "indexed": true,
          "internalType": "address",
          "name": "from",
          "type": "address"
        },
        {
          "indexed": true,
          "internalType": "address",
          "name": "to",
          "type": "address"
        },
        {
          "indexed": true,
          "internalType": "uint256",
          "name": "tokenId",
          "type": "uint256"
        }
      ],
      "name": "Transfer",
      "type": "event"
    },
    {
      "anonymous": false,
      "inputs": [
        {
          "indexed": false,
          "internalType": "address",
          "name": "account",
          "type": "address"
        }
      ],
      "name": "Unpaused",
      "type": "event"
    },
    {
      "inputs": [
        {
          "internalType": "string",
          "name": "_itemName",
          "type": "string"
        },
        {
          "internalType": "uint256",
          "name": "_quantity",
          "type": "uint256"
        }
      ],
      "name": "addAmountToken",
      "outputs": [],
      "stateMutability": "nonpayable",
      "type": "function"
    },
    {
      "inputs": [
        {
          "internalType": "address",
          "name": "to",
          "type": "address"
        },
        {
          "internalType": "uint256",
          "name": "tokenId",
          "type": "uint256"
        }
      ],
      "name": "approve",
      "outputs": [],
      "stateMutability": "nonpayable",
      "type": "function"
    },
    {
      "inputs": [
        {
          "internalType": "address",
          "name": "owner",
          "type": "address"
        }
      ],
      "name": "balanceOf",
      "outputs": [
        {
          "internalType": "uint256",
          "name": "",
          "type": "uint256"
        }
      ],
      "stateMutability": "view",
      "type": "function"
    },
    {
      "inputs": [],
      "name": "baseURI",
      "outputs": [
        {
          "internalType": "string",
          "name": "",
          "type": "string"
        }
      ],
      "stateMutability": "view",
      "type": "function"
    },
    {
      "inputs": [
        {
          "internalType": "uint256",
          "name": "tokenId",
          "type": "uint256"
        }
      ],
      "name": "burn",
      "outputs": [],
      "stateMutability": "nonpayable",
      "type": "function"
    },
    {
      "inputs": [],
      "name": "contractURI",
      "outputs": [
        {
          "internalType": "string",
          "name": "",
          "type": "string"
        }
      ],
      "stateMutability": "pure",
      "type": "function"
    },
    {
      "inputs": [
        {
          "internalType": "uint256",
          "name": "tokenId",
          "type": "uint256"
        }
      ],
      "name": "getApproved",
      "outputs": [
        {
          "internalType": "address",
          "name": "",
          "type": "address"
        }
      ],
      "stateMutability": "view",
      "type": "function"
    },
    {
      "inputs": [],
      "name": "getFee",
      "outputs": [
        {
          "internalType": "uint256",
          "name": "",
          "type": "uint256"
        }
      ],
      "stateMutability": "view",
      "type": "function"
    },
    {
      "inputs": [
        {
          "internalType": "address",
          "name": "owner",
          "type": "address"
        },
        {
          "internalType": "address",
          "name": "operator",
          "type": "address"
        }
      ],
      "name": "isApprovedForAll",
      "outputs": [
        {
          "internalType": "bool",
          "name": "",
          "type": "bool"
        }
      ],
      "stateMutability": "view",
      "type": "function"
    },
    {
      "inputs": [
        {
          "internalType": "string",
          "name": "",
          "type": "string"
        }
      ],
      "name": "itemIdToId",
      "outputs": [
        {
          "internalType": "uint256",
          "name": "",
          "type": "uint256"
        }
      ],
      "stateMutability": "view",
      "type": "function"
    },
    {
      "inputs": [
        {
          "internalType": "string",
          "name": "",
          "type": "string"
        }
      ],
      "name": "itemNameToAmount",
      "outputs": [
        {
          "internalType": "uint256",
          "name": "",
          "type": "uint256"
        }
      ],
      "stateMutability": "view",
      "type": "function"
    },
    {
      "inputs": [
        {
          "internalType": "uint256",
          "name": "",
          "type": "uint256"
        }
      ],
      "name": "items",
      "outputs": [
        {
          "internalType": "uint256",
          "name": "id",
          "type": "uint256"
        },
        {
          "internalType": "uint256",
          "name": "count",
          "type": "uint256"
        },
        {
          "internalType": "string",
          "name": "name",
          "type": "string"
        },
        {
          "internalType": "uint256",
          "name": "quantity",
          "type": "uint256"
        }
      ],
      "stateMutability": "view",
      "type": "function"
    },
    {
      "inputs": [],
      "name": "name",
      "outputs": [
        {
          "internalType": "string",
          "name": "",
          "type": "string"
        }
      ],
      "stateMutability": "view",
      "type": "function"
    },
    {
      "inputs": [],
      "name": "owner",
      "outputs": [
        {
          "internalType": "address",
          "name": "",
          "type": "address"
        }
      ],
      "stateMutability": "view",
      "type": "function"
    },
    {
      "inputs": [
        {
          "internalType": "uint256",
          "name": "tokenId",
          "type": "uint256"
        }
      ],
      "name": "ownerOf",
      "outputs": [
        {
          "internalType": "address",
          "name": "",
          "type": "address"
        }
      ],
      "stateMutability": "view",
      "type": "function"
    },
    {
      "inputs": [],
      "name": "pause",
      "outputs": [],
      "stateMutability": "nonpayable",
      "type": "function"
    },
    {
      "inputs": [],
      "name": "paused",
      "outputs": [
        {
          "internalType": "bool",
          "name": "",
          "type": "bool"
        }
      ],
      "stateMutability": "view",
      "type": "function"
    },
    {
      "inputs": [],
      "name": "renounceOwnership",
      "outputs": [],
      "stateMutability": "nonpayable",
      "type": "function"
    },
    {
      "inputs": [
        {
          "internalType": "uint256",
          "name": "_tokenId",
          "type": "uint256"
        },
        {
          "internalType": "uint256",
          "name": "_salePrice",
          "type": "uint256"
        }
      ],
      "name": "royaltyInfo",
      "outputs": [
        {
          "internalType": "address",
          "name": "",
          "type": "address"
        },
        {
          "internalType": "uint256",
          "name": "",
          "type": "uint256"
        }
      ],
      "stateMutability": "view",
      "type": "function"
    },
    {
      "inputs": [
        {
          "internalType": "uint256",
          "name": "index",
          "type": "uint256"
        },
        {
          "internalType": "address",
          "name": "to",
          "type": "address"
        },
        {
          "internalType": "uint256",
          "name": "amount",
          "type": "uint256"
        }
      ],
      "name": "safeMintMany",
      "outputs": [],
      "stateMutability": "payable",
      "type": "function"
    },
    {
      "inputs": [
        {
          "internalType": "address",
          "name": "from",
          "type": "address"
        },
        {
          "internalType": "address",
          "name": "to",
          "type": "address"
        },
        {
          "internalType": "uint256",
          "name": "tokenId",
          "type": "uint256"
        }
      ],
      "name": "safeTransferFrom",
      "outputs": [],
      "stateMutability": "nonpayable",
      "type": "function"
    },
    {
      "inputs": [
        {
          "internalType": "address",
          "name": "from",
          "type": "address"
        },
        {
          "internalType": "address",
          "name": "to",
          "type": "address"
        },
        {
          "internalType": "uint256",
          "name": "tokenId",
          "type": "uint256"
        },
        {
          "internalType": "bytes",
          "name": "data",
          "type": "bytes"
        }
      ],
      "name": "safeTransferFrom",
      "outputs": [],
      "stateMutability": "nonpayable",
      "type": "function"
    },
    {
      "inputs": [
        {
          "internalType": "address",
          "name": "operator",
          "type": "address"
        },
        {
          "internalType": "bool",
          "name": "approved",
          "type": "bool"
        }
      ],
      "name": "setApprovalForAll",
      "outputs": [],
      "stateMutability": "nonpayable",
      "type": "function"
    },
    {
      "inputs": [
        {
          "internalType": "string",
          "name": "newBaseURI",
          "type": "string"
        }
      ],
      "name": "setBaseURI",
      "outputs": [],
      "stateMutability": "nonpayable",
      "type": "function"
    },
    {
      "inputs": [
        {
          "internalType": "address",
          "name": "receiver",
          "type": "address"
        },
        {
          "internalType": "uint96",
          "name": "feeNumerator",
          "type": "uint96"
        }
      ],
      "name": "setDefaultRoyalty",
      "outputs": [],
      "stateMutability": "nonpayable",
      "type": "function"
    },
    {
      "inputs": [
        {
          "internalType": "uint256",
          "name": "fee",
          "type": "uint256"
        }
      ],
      "name": "setFee",
      "outputs": [],
      "stateMutability": "nonpayable",
      "type": "function"
    },
    {
      "inputs": [
        {
          "internalType": "bytes4",
          "name": "interfaceId",
          "type": "bytes4"
        }
      ],
      "name": "supportsInterface",
      "outputs": [
        {
          "internalType": "bool",
          "name": "",
          "type": "bool"
        }
      ],
      "stateMutability": "view",
      "type": "function"
    },
    {
      "inputs": [],
      "name": "symbol",
      "outputs": [
        {
          "internalType": "string",
          "name": "",
          "type": "string"
        }
      ],
      "stateMutability": "view",
      "type": "function"
    },
    {
      "inputs": [
        {
          "internalType": "uint256",
          "name": "index",
          "type": "uint256"
        }
      ],
      "name": "tokenByIndex",
      "outputs": [
        {
          "internalType": "uint256",
          "name": "",
          "type": "uint256"
        }
      ],
      "stateMutability": "view",
      "type": "function"
    },
    {
      "inputs": [
        {
          "internalType": "address",
          "name": "owner",
          "type": "address"
        },
        {
          "internalType": "uint256",
          "name": "index",
          "type": "uint256"
        }
      ],
      "name": "tokenOfOwnerByIndex",
      "outputs": [
        {
          "internalType": "uint256",
          "name": "",
          "type": "uint256"
        }
      ],
      "stateMutability": "view",
      "type": "function"
    },
    {
      "inputs": [
        {
          "internalType": "uint256",
          "name": "tokenId",
          "type": "uint256"
        }
      ],
      "name": "tokenURI",
      "outputs": [
        {
          "internalType": "string",
          "name": "",
          "type": "string"
        }
      ],
      "stateMutability": "view",
      "type": "function"
    },
    {
      "inputs": [],
      "name": "totalSupply",
      "outputs": [
        {
          "internalType": "uint256",
          "name": "",
          "type": "uint256"
        }
      ],
      "stateMutability": "view",
      "type": "function"
    },
    {
      "inputs": [
        {
          "internalType": "address",
          "name": "from",
          "type": "address"
        },
        {
          "internalType": "address",
          "name": "to",
          "type": "address"
        },
        {
          "internalType": "uint256",
          "name": "tokenId",
          "type": "uint256"
        }
      ],
      "name": "transferFrom",
      "outputs": [],
      "stateMutability": "nonpayable",
      "type": "function"
    },
    {
      "inputs": [
        {
          "internalType": "address",
          "name": "newOwner",
          "type": "address"
        }
      ],
      "name": "transferOwnership",
      "outputs": [],
      "stateMutability": "nonpayable",
      "type": "function"
    },
    {
      "inputs": [],
      "name": "unpause",
      "outputs": [],
      "stateMutability": "nonpayable",
      "type": "function"
    },
    {
      "inputs": [],
      "name": "withdraw",
      "outputs": [],
      "stateMutability": "nonpayable",
      "type": "function"
    }
  ],
  "bytecode": "0x6080604052662386f26fc100006012556040518060400160405280600581526020017f2e6a736f6e000000000000000000000000000000000000000000000000000000815250601390805190602001906200005c92919062000290565b503480156200006a57600080fd5b506040516200535c3803806200535c833981810160405281019062000090919062000357565b6040518060400160405280600481526020017f42696b65000000000000000000000000000000000000000000000000000000008152506040518060400160405280600481526020017f42494b450000000000000000000000000000000000000000000000000000000081525081600290805190602001906200011492919062000290565b5080600390805190602001906200012d92919062000290565b5050506000600860006101000a81548160ff0219169083151502179055506200016b6200015f620001c260201b60201c565b620001ca60201b60201c565b60016009819055506200018981620001ca60201b620019061760201c565b6040518060800160405280605181526020016200530b6051913960119080519060200190620001ba92919062000290565b505062000436565b600033905090565b6000600860019054906101000a900473ffffffffffffffffffffffffffffffffffffffff16905081600860016101000a81548173ffffffffffffffffffffffffffffffffffffffff021916908373ffffffffffffffffffffffffffffffffffffffff1602179055508173ffffffffffffffffffffffffffffffffffffffff168173ffffffffffffffffffffffffffffffffffffffff167f8be0079c531659141344cd1fd0a4f28419497f9722a3daafe3b4186f6b6457e060405160405180910390a35050565b8280546200029e90620003b7565b90600052602060002090601f016020900481019282620002c257600085556200030e565b82601f10620002dd57805160ff19168380011785556200030e565b828001600101855582156200030e579182015b828111156200030d578251825591602001919060010190620002f0565b5b5090506200031d919062000321565b5090565b5b808211156200033c57600081600090555060010162000322565b5090565b60008151905062000351816200041c565b92915050565b6000602082840312156200036a57600080fd5b60006200037a8482850162000340565b91505092915050565b6000620003908262000397565b9050919050565b600073ffffffffffffffffffffffffffffffffffffffff82169050919050565b60006002820490506001821680620003d057607f821691505b60208210811415620003e757620003e6620003ed565b5b50919050565b7f4e487b7100000000000000000000000000000000000000000000000000000000600052602260045260246000fd5b620004278162000383565b81146200043357600080fd5b50565b614ec580620004466000396000f3fe60806040526004361061020f5760003560e01c80636352211e1161011857806395d89b41116100a0578063c87b56dd1161006f578063c87b56dd1461078e578063ced72f87146107cb578063e8a3d485146107f6578063e985e9c514610821578063f2fde38b1461085e5761020f565b806395d89b41146106d1578063a22cb465146106fc578063b88d4fde14610725578063bfb231d21461074e5761020f565b8063715018a6116100e7578063715018a6146106125780637de2cafc146106295780638456cb59146106525780638c30215b146106695780638da5cb5b146106a65761020f565b80636352211e1461054457806369fe0e2d146105815780636c0360eb146105aa57806370a08231146105d55761020f565b80632f745c591161019b57806342966c681161016a57806342966c681461046e578063435b17c6146104975780634f6ccce7146104b357806355f804b3146104f05780635c975abb146105195761020f565b80632f745c59146103da5780633ccfd60b146104175780633f4ba83a1461042e57806342842e0e146104455761020f565b8063095ea7b3116101e2578063095ea7b3146102e257806318160ddd1461030b578063197465fe1461033657806323b872dd146103735780632a55205a1461039c5761020f565b806301ffc9a71461021457806304634d8d1461025157806306fdde031461027a578063081812fc146102a5575b600080fd5b34801561022057600080fd5b5061023b600480360381019061023691906138e2565b610887565b6040516102489190614004565b60405180910390f35b34801561025d57600080fd5b50610278600480360381019061027391906138a6565b610899565b005b34801561028657600080fd5b5061028f6108af565b60405161029c919061401f565b60405180910390f35b3480156102b157600080fd5b506102cc60048036038101906102c791906139c9565b610941565b6040516102d99190613f74565b60405180910390f35b3480156102ee57600080fd5b506103096004803603810190610304919061386a565b610987565b005b34801561031757600080fd5b50610320610a9f565b60405161032d9190614321565b60405180910390f35b34801561034257600080fd5b5061035d60048036038101906103589190613934565b610aac565b60405161036a9190614321565b60405180910390f35b34801561037f57600080fd5b5061039a60048036038101906103959190613764565b610ada565b005b3480156103a857600080fd5b506103c360048036038101906103be9190613a41565b610b3a565b6040516103d1929190613fdb565b60405180910390f35b3480156103e657600080fd5b5061040160048036038101906103fc919061386a565b610d25565b60405161040e9190614321565b60405180910390f35b34801561042357600080fd5b5061042c610dca565b005b34801561043a57600080fd5b50610443610e71565b005b34801561045157600080fd5b5061046c60048036038101906104679190613764565b610e83565b005b34801561047a57600080fd5b50610495600480360381019061049091906139c9565b610ea3565b005b6104b160048036038101906104ac91906139f2565b610eff565b005b3480156104bf57600080fd5b506104da60048036038101906104d591906139c9565b6111c0565b6040516104e79190614321565b60405180910390f35b3480156104fc57600080fd5b5061051760048036038101906105129190613934565b611257565b005b34801561052557600080fd5b5061052e611279565b60405161053b9190614004565b60405180910390f35b34801561055057600080fd5b5061056b600480360381019061056691906139c9565b611290565b6040516105789190613f74565b60405180910390f35b34801561058d57600080fd5b506105a860048036038101906105a391906139c9565b611342565b005b3480156105b657600080fd5b506105bf611367565b6040516105cc919061401f565b60405180910390f35b3480156105e157600080fd5b506105fc60048036038101906105f791906136ff565b6113f5565b6040516106099190614321565b60405180910390f35b34801561061e57600080fd5b506106276114ad565b005b34801561063557600080fd5b50610650600480360381019061064b9190613975565b6114c1565b005b34801561065e57600080fd5b50610667611576565b005b34801561067557600080fd5b50610690600480360381019061068b9190613934565b611588565b60405161069d9190614321565b60405180910390f35b3480156106b257600080fd5b506106bb6115b6565b6040516106c89190613f74565b60405180910390f35b3480156106dd57600080fd5b506106e66115e0565b6040516106f3919061401f565b60405180910390f35b34801561070857600080fd5b50610723600480360381019061071e919061382e565b611672565b005b34801561073157600080fd5b5061074c600480360381019061074791906137b3565b611688565b005b34801561075a57600080fd5b50610775600480360381019061077091906139c9565b6116ea565b604051610785949392919061433c565b60405180910390f35b34801561079a57600080fd5b506107b560048036038101906107b091906139c9565b6117b2565b6040516107c2919061401f565b60405180910390f35b3480156107d757600080fd5b506107e06117c4565b6040516107ed9190614321565b60405180910390f35b34801561080257600080fd5b5061080b6117ce565b604051610818919061401f565b60405180910390f35b34801561082d57600080fd5b5061084860048036038101906108439190613728565b6117ee565b6040516108559190614004565b60405180910390f35b34801561086a57600080fd5b50610885600480360381019061088091906136ff565b611882565b005b6000610892826119cc565b9050919050565b6108a1611a46565b6108ab8282611ac4565b5050565b6060600280546108be90614657565b80601f01602080910402602001604051908101604052809291908181526020018280546108ea90614657565b80156109375780601f1061090c57610100808354040283529160200191610937565b820191906000526020600020905b81548152906001019060200180831161091a57829003601f168201915b5050505050905090565b600061094c82611c59565b6006600083815260200190815260200160002060009054906101000a900473ffffffffffffffffffffffffffffffffffffffff169050919050565b600061099282611290565b90508073ffffffffffffffffffffffffffffffffffffffff168373ffffffffffffffffffffffffffffffffffffffff161415610a03576040517f08c379a00000000000000000000000000000000000000000000000000000000081526004016109fa90614261565b60405180910390fd5b8073ffffffffffffffffffffffffffffffffffffffff16610a22611ca4565b73ffffffffffffffffffffffffffffffffffffffff161480610a515750610a5081610a4b611ca4565b6117ee565b5b610a90576040517f08c379a0000000000000000000000000000000000000000000000000000000008152600401610a87906141c1565b60405180910390fd5b610a9a8383611cac565b505050565b6000600c80549050905090565b6015818051602081018201805184825260208301602085012081835280955050505050506000915090505481565b610aeb610ae5611ca4565b82611d65565b610b2a576040517f08c379a0000000000000000000000000000000000000000000000000000000008152600401610b21906142c1565b60405180910390fd5b610b35838383611dfa565b505050565b6000806000600160008681526020019081526020016000206040518060400160405290816000820160009054906101000a900473ffffffffffffffffffffffffffffffffffffffff1673ffffffffffffffffffffffffffffffffffffffff1673ffffffffffffffffffffffffffffffffffffffff1681526020016000820160149054906101000a90046bffffffffffffffffffffffff166bffffffffffffffffffffffff166bffffffffffffffffffffffff16815250509050600073ffffffffffffffffffffffffffffffffffffffff16816000015173ffffffffffffffffffffffffffffffffffffffff161415610cd05760006040518060400160405290816000820160009054906101000a900473ffffffffffffffffffffffffffffffffffffffff1673ffffffffffffffffffffffffffffffffffffffff1673ffffffffffffffffffffffffffffffffffffffff1681526020016000820160149054906101000a90046bffffffffffffffffffffffff166bffffffffffffffffffffffff166bffffffffffffffffffffffff168152505090505b6000610cda612061565b6bffffffffffffffffffffffff1682602001516bffffffffffffffffffffffff1686610d0691906144ee565b610d1091906144bd565b90508160000151819350935050509250929050565b6000610d30836113f5565b8210610d71576040517f08c379a0000000000000000000000000000000000000000000000000000000008152600401610d6890614061565b60405180910390fd5b600a60008473ffffffffffffffffffffffffffffffffffffffff1673ffffffffffffffffffffffffffffffffffffffff168152602001908152602001600020600083815260200190815260200160002054905092915050565b60026009541415610e10576040517f08c379a0000000000000000000000000000000000000000000000000000000008152600401610e07906142e1565b60405180910390fd5b6002600981905550610e20611a46565b3373ffffffffffffffffffffffffffffffffffffffff166108fc479081150290604051600060405180830381858888f19350505050158015610e66573d6000803e3d6000fd5b506001600981905550565b610e79611a46565b610e8161206b565b565b610e9e83838360405180602001604052806000815250611688565b505050565b610eb4610eae611ca4565b82611d65565b610ef3576040517f08c379a0000000000000000000000000000000000000000000000000000000008152600401610eea906142c1565b60405180910390fd5b610efc816120ce565b50565b60148381548110610f39577f4e487b7100000000000000000000000000000000000000000000000000000000600052603260045260246000fd5b906000526020600020906004020160030154811115610f8d576040517f08c379a0000000000000000000000000000000000000000000000000000000008152600401610f8490614221565b60405180910390fd5b60125481610f9b91906144ee565b341015610fdd576040517f08c379a0000000000000000000000000000000000000000000000000000000008152600401610fd490614141565b60405180910390fd5b6060600080600090505b838160ff16101561115657610ffc600f6120da565b611006600f6120f0565b9150600160148781548110611044577f4e487b7100000000000000000000000000000000000000000000000000000000600052603260045260246000fd5b906000526020600020906004020160010160008282546110649190614467565b92505081905550601486815481106110a5577f4e487b7100000000000000000000000000000000000000000000000000000000600052603260045260246000fd5b906000526020600020906004020160020161110a601488815481106110f3577f4e487b7100000000000000000000000000000000000000000000000000000000600052603260045260246000fd5b9060005260206000209060040201600101546120fe565b601360405160200161111e93929190613f38565b604051602081830303815290604052925061113985836122ab565b61114382846122c9565b808061114e90614703565b915050610fe7565b508260148681548110611192577f4e487b7100000000000000000000000000000000000000000000000000000000600052603260045260246000fd5b906000526020600020906004020160030160008282546111b29190614548565b925050819055505050505050565b60006111ca610a9f565b821061120b576040517f08c379a000000000000000000000000000000000000000000000000000000000815260040161120290614281565b60405180910390fd5b600c8281548110611245577f4e487b7100000000000000000000000000000000000000000000000000000000600052603260045260246000fd5b90600052602060002001549050919050565b61125f611a46565b80601190805190602001906112759291906134ce565b5050565b6000600860009054906101000a900460ff16905090565b6000806004600084815260200190815260200160002060009054906101000a900473ffffffffffffffffffffffffffffffffffffffff169050600073ffffffffffffffffffffffffffffffffffffffff168173ffffffffffffffffffffffffffffffffffffffff161415611339576040517f08c379a000000000000000000000000000000000000000000000000000000000815260040161133090614241565b60405180910390fd5b80915050919050565b61134a611a46565b67016345785d8a00008161135e91906144ee565b60128190555050565b6011805461137490614657565b80601f01602080910402602001604051908101604052809291908181526020018280546113a090614657565b80156113ed5780601f106113c2576101008083540402835291602001916113ed565b820191906000526020600020905b8154815290600101906020018083116113d057829003601f168201915b505050505081565b60008073ffffffffffffffffffffffffffffffffffffffff168273ffffffffffffffffffffffffffffffffffffffff161415611466576040517f08c379a000000000000000000000000000000000000000000000000000000000815260040161145d90614181565b60405180910390fd5b600560008373ffffffffffffffffffffffffffffffffffffffff1673ffffffffffffffffffffffffffffffffffffffff168152602001908152602001600020549050919050565b6114b5611a46565b6114bf6000611906565b565b6114c9611a46565b60006114d560106120f0565b905060006040518060800160405280838152602001600081526020018581526020018481525090506014819080600181540180825580915050600190039060005260206000209060040201600090919091909150600082015181600001556020820151816001015560408201518160020190805190602001906115599291906134ce565b5060608201518160030155505061157060106120da565b50505050565b61157e611a46565b61158661233d565b565b6016818051602081018201805184825260208301602085012081835280955050505050506000915090505481565b6000600860019054906101000a900473ffffffffffffffffffffffffffffffffffffffff16905090565b6060600380546115ef90614657565b80601f016020809104026020016040519081016040528092919081815260200182805461161b90614657565b80156116685780601f1061163d57610100808354040283529160200191611668565b820191906000526020600020905b81548152906001019060200180831161164b57829003601f168201915b5050505050905090565b61168461167d611ca4565b83836123a0565b5050565b611699611693611ca4565b83611d65565b6116d8576040517f08c379a00000000000000000000000000000000000000000000000000000000081526004016116cf906142c1565b60405180910390fd5b6116e48484848461250d565b50505050565b601481815481106116fa57600080fd5b906000526020600020906004020160009150905080600001549080600101549080600201805461172990614657565b80601f016020809104026020016040519081016040528092919081815260200182805461175590614657565b80156117a25780601f10611777576101008083540402835291602001916117a2565b820191906000526020600020905b81548152906001019060200180831161178557829003601f168201915b5050505050908060030154905084565b60606117bd82612569565b9050919050565b6000601254905090565b6060604051806080016040528060518152602001614e3f60519139905090565b6000600760008473ffffffffffffffffffffffffffffffffffffffff1673ffffffffffffffffffffffffffffffffffffffff16815260200190815260200160002060008373ffffffffffffffffffffffffffffffffffffffff1673ffffffffffffffffffffffffffffffffffffffff16815260200190815260200160002060009054906101000a900460ff16905092915050565b61188a611a46565b600073ffffffffffffffffffffffffffffffffffffffff168173ffffffffffffffffffffffffffffffffffffffff1614156118fa576040517f08c379a00000000000000000000000000000000000000000000000000000000081526004016118f1906140a1565b60405180910390fd5b61190381611906565b50565b6000600860019054906101000a900473ffffffffffffffffffffffffffffffffffffffff16905081600860016101000a81548173ffffffffffffffffffffffffffffffffffffffff021916908373ffffffffffffffffffffffffffffffffffffffff1602179055508173ffffffffffffffffffffffffffffffffffffffff168173ffffffffffffffffffffffffffffffffffffffff167f8be0079c531659141344cd1fd0a4f28419497f9722a3daafe3b4186f6b6457e060405160405180910390a35050565b60007f780e9d63000000000000000000000000000000000000000000000000000000007bffffffffffffffffffffffffffffffffffffffffffffffffffffffff1916827bffffffffffffffffffffffffffffffffffffffffffffffffffffffff19161480611a3f5750611a3e8261267c565b5b9050919050565b611a4e611ca4565b73ffffffffffffffffffffffffffffffffffffffff16611a6c6115b6565b73ffffffffffffffffffffffffffffffffffffffff1614611ac2576040517f08c379a0000000000000000000000000000000000000000000000000000000008152600401611ab990614201565b60405180910390fd5b565b611acc612061565b6bffffffffffffffffffffffff16816bffffffffffffffffffffffff161115611b2a576040517f08c379a0000000000000000000000000000000000000000000000000000000008152600401611b21906142a1565b60405180910390fd5b600073ffffffffffffffffffffffffffffffffffffffff168273ffffffffffffffffffffffffffffffffffffffff161415611b9a576040517f08c379a0000000000000000000000000000000000000000000000000000000008152600401611b9190614301565b60405180910390fd5b60405180604001604052808373ffffffffffffffffffffffffffffffffffffffff168152602001826bffffffffffffffffffffffff168152506000808201518160000160006101000a81548173ffffffffffffffffffffffffffffffffffffffff021916908373ffffffffffffffffffffffffffffffffffffffff16021790555060208201518160000160146101000a8154816bffffffffffffffffffffffff02191690836bffffffffffffffffffffffff1602179055509050505050565b611c628161268e565b611ca1576040517f08c379a0000000000000000000000000000000000000000000000000000000008152600401611c9890614241565b60405180910390fd5b50565b600033905090565b816006600083815260200190815260200160002060006101000a81548173ffffffffffffffffffffffffffffffffffffffff021916908373ffffffffffffffffffffffffffffffffffffffff160217905550808273ffffffffffffffffffffffffffffffffffffffff16611d1f83611290565b73ffffffffffffffffffffffffffffffffffffffff167f8c5be1e5ebec7d5bd14f71427d1e84f3dd0314c0f7b2291e5b200ac8c7c3b92560405160405180910390a45050565b600080611d7183611290565b90508073ffffffffffffffffffffffffffffffffffffffff168473ffffffffffffffffffffffffffffffffffffffff161480611db35750611db281856117ee565b5b80611df157508373ffffffffffffffffffffffffffffffffffffffff16611dd984610941565b73ffffffffffffffffffffffffffffffffffffffff16145b91505092915050565b8273ffffffffffffffffffffffffffffffffffffffff16611e1a82611290565b73ffffffffffffffffffffffffffffffffffffffff1614611e70576040517f08c379a0000000000000000000000000000000000000000000000000000000008152600401611e67906140c1565b60405180910390fd5b600073ffffffffffffffffffffffffffffffffffffffff168273ffffffffffffffffffffffffffffffffffffffff161415611ee0576040517f08c379a0000000000000000000000000000000000000000000000000000000008152600401611ed790614101565b60405180910390fd5b611eeb8383836126fa565b611ef6600082611cac565b6001600560008573ffffffffffffffffffffffffffffffffffffffff1673ffffffffffffffffffffffffffffffffffffffff1681526020019081526020016000206000828254611f469190614548565b925050819055506001600560008473ffffffffffffffffffffffffffffffffffffffff1673ffffffffffffffffffffffffffffffffffffffff1681526020019081526020016000206000828254611f9d9190614467565b92505081905550816004600083815260200190815260200160002060006101000a81548173ffffffffffffffffffffffffffffffffffffffff021916908373ffffffffffffffffffffffffffffffffffffffff160217905550808273ffffffffffffffffffffffffffffffffffffffff168473ffffffffffffffffffffffffffffffffffffffff167fddf252ad1be2c89b69c2b068fc378daa952ba7f163c4a11628f55a4df523b3ef60405160405180910390a461205c838383612712565b505050565b6000612710905090565b612073612717565b6000600860006101000a81548160ff0219169083151502179055507f5db9ee0a495bf2e6ff9c91a7834c1ba4fdd244a5e8aa4e537bd38aeae4b073aa6120b7611ca4565b6040516120c49190613f74565b60405180910390a1565b6120d781612760565b50565b6001816000016000828254019250508190555050565b600081600001549050919050565b60606000821415612146576040518060400160405280600181526020017f300000000000000000000000000000000000000000000000000000000000000081525090506122a6565b600082905060005b60008214612178578080612161906146ba565b915050600a8261217191906144bd565b915061214e565b60008167ffffffffffffffff8111156121ba577f4e487b7100000000000000000000000000000000000000000000000000000000600052604160045260246000fd5b6040519080825280601f01601f1916602001820160405280156121ec5781602001600182028036833780820191505090505b5090505b6000851461229f576001826122059190614548565b9150600a85612214919061472d565b60306122209190614467565b60f81b81838151811061225c577f4e487b7100000000000000000000000000000000000000000000000000000000600052603260045260246000fd5b60200101907effffffffffffffffffffffffffffffffffffffffffffffffffffffffffffff1916908160001a905350600a8561229891906144bd565b94506121f0565b8093505050505b919050565b6122c58282604051806020016040528060008152506127b3565b5050565b6122d28261268e565b612311576040517f08c379a0000000000000000000000000000000000000000000000000000000008152600401612308906141a1565b60405180910390fd5b80600e600084815260200190815260200160002090805190602001906123389291906134ce565b505050565b61234561280e565b6001600860006101000a81548160ff0219169083151502179055507f62e78cea01bee320cd4e420270b5ea74000d11b0c9f74754ebdbfc544b05a258612389611ca4565b6040516123969190613f74565b60405180910390a1565b8173ffffffffffffffffffffffffffffffffffffffff168373ffffffffffffffffffffffffffffffffffffffff16141561240f576040517f08c379a000000000000000000000000000000000000000000000000000000000815260040161240690614121565b60405180910390fd5b80600760008573ffffffffffffffffffffffffffffffffffffffff1673ffffffffffffffffffffffffffffffffffffffff16815260200190815260200160002060008473ffffffffffffffffffffffffffffffffffffffff1673ffffffffffffffffffffffffffffffffffffffff16815260200190815260200160002060006101000a81548160ff0219169083151502179055508173ffffffffffffffffffffffffffffffffffffffff168373ffffffffffffffffffffffffffffffffffffffff167f17307eab39ab6107e8899845ad3d59bd9653f200f220920489ca2b5937696c31836040516125009190614004565b60405180910390a3505050565b612518848484611dfa565b61252484848484612858565b612563576040517f08c379a000000000000000000000000000000000000000000000000000000000815260040161255a90614081565b60405180910390fd5b50505050565b606061257482611c59565b6000600e6000848152602001908152602001600020805461259490614657565b80601f01602080910402602001604051908101604052809291908181526020018280546125c090614657565b801561260d5780601f106125e25761010080835404028352916020019161260d565b820191906000526020600020905b8154815290600101906020018083116125f057829003601f168201915b50505050509050600061261e6129ef565b9050600081511415612634578192505050612677565b600082511115612669578082604051602001612651929190613f14565b60405160208183030381529060405292505050612677565b61267284612a81565b925050505b919050565b600061268782612ae9565b9050919050565b60008073ffffffffffffffffffffffffffffffffffffffff166004600084815260200190815260200160002060009054906101000a900473ffffffffffffffffffffffffffffffffffffffff1673ffffffffffffffffffffffffffffffffffffffff1614159050919050565b61270261280e565b61270d838383612bcb565b505050565b505050565b61271f611279565b61275e576040517f08c379a000000000000000000000000000000000000000000000000000000000815260040161275590614041565b60405180910390fd5b565b61276981612cdf565b6000600e6000838152602001908152602001600020805461278990614657565b9050146127b057600e600082815260200190815260200160002060006127af9190613554565b5b50565b6127bd8383612cf4565b6127ca6000848484612858565b612809576040517f08c379a000000000000000000000000000000000000000000000000000000000815260040161280090614081565b60405180910390fd5b505050565b612816611279565b15612856576040517f08c379a000000000000000000000000000000000000000000000000000000000815260040161284d90614161565b60405180910390fd5b565b60006128798473ffffffffffffffffffffffffffffffffffffffff16612ece565b156129e2578373ffffffffffffffffffffffffffffffffffffffff1663150b7a026128a2611ca4565b8786866040518563ffffffff1660e01b81526004016128c49493929190613f8f565b602060405180830381600087803b1580156128de57600080fd5b505af192505050801561290f57506040513d601f19601f8201168201806040525081019061290c919061390b565b60015b612992573d806000811461293f576040519150601f19603f3d011682016040523d82523d6000602084013e612944565b606091505b5060008151141561298a576040517f08c379a000000000000000000000000000000000000000000000000000000000815260040161298190614081565b60405180910390fd5b805181602001fd5b63150b7a0260e01b7bffffffffffffffffffffffffffffffffffffffffffffffffffffffff1916817bffffffffffffffffffffffffffffffffffffffffffffffffffffffff1916149150506129e7565b600190505b949350505050565b6060601180546129fe90614657565b80601f0160208091040260200160405190810160405280929190818152602001828054612a2a90614657565b8015612a775780601f10612a4c57610100808354040283529160200191612a77565b820191906000526020600020905b815481529060010190602001808311612a5a57829003601f168201915b5050505050905090565b6060612a8c82611c59565b6000612a966129ef565b90506000815111612ab65760405180602001604052806000815250612ae1565b80612ac0846120fe565b604051602001612ad1929190613f14565b6040516020818303038152906040525b915050919050565b60007f80ac58cd000000000000000000000000000000000000000000000000000000007bffffffffffffffffffffffffffffffffffffffffffffffffffffffff1916827bffffffffffffffffffffffffffffffffffffffffffffffffffffffff19161480612bb457507f5b5e139f000000000000000000000000000000000000000000000000000000007bffffffffffffffffffffffffffffffffffffffffffffffffffffffff1916827bffffffffffffffffffffffffffffffffffffffffffffffffffffffff1916145b80612bc45750612bc382612ef1565b5b9050919050565b612bd6838383612f6b565b600073ffffffffffffffffffffffffffffffffffffffff168373ffffffffffffffffffffffffffffffffffffffff161415612c1957612c1481612f70565b612c58565b8173ffffffffffffffffffffffffffffffffffffffff168373ffffffffffffffffffffffffffffffffffffffff1614612c5757612c568382612fb9565b5b5b600073ffffffffffffffffffffffffffffffffffffffff168273ffffffffffffffffffffffffffffffffffffffff161415612c9b57612c9681613126565b612cda565b8273ffffffffffffffffffffffffffffffffffffffff168273ffffffffffffffffffffffffffffffffffffffff1614612cd957612cd88282613269565b5b5b505050565b612ce8816132e8565b612cf181613405565b50565b600073ffffffffffffffffffffffffffffffffffffffff168273ffffffffffffffffffffffffffffffffffffffff161415612d64576040517f08c379a0000000000000000000000000000000000000000000000000000000008152600401612d5b906141e1565b60405180910390fd5b612d6d8161268e565b15612dad576040517f08c379a0000000000000000000000000000000000000000000000000000000008152600401612da4906140e1565b60405180910390fd5b612db9600083836126fa565b6001600560008473ffffffffffffffffffffffffffffffffffffffff1673ffffffffffffffffffffffffffffffffffffffff1681526020019081526020016000206000828254612e099190614467565b92505081905550816004600083815260200190815260200160002060006101000a81548173ffffffffffffffffffffffffffffffffffffffff021916908373ffffffffffffffffffffffffffffffffffffffff160217905550808273ffffffffffffffffffffffffffffffffffffffff16600073ffffffffffffffffffffffffffffffffffffffff167fddf252ad1be2c89b69c2b068fc378daa952ba7f163c4a11628f55a4df523b3ef60405160405180910390a4612eca60008383612712565b5050565b6000808273ffffffffffffffffffffffffffffffffffffffff163b119050919050565b60007f2a55205a000000000000000000000000000000000000000000000000000000007bffffffffffffffffffffffffffffffffffffffffffffffffffffffff1916827bffffffffffffffffffffffffffffffffffffffffffffffffffffffff19161480612f645750612f6382613464565b5b9050919050565b505050565b600c80549050600d600083815260200190815260200160002081905550600c81908060018154018082558091505060019003906000526020600020016000909190919091505550565b60006001612fc6846113f5565b612fd09190614548565b90506000600b60008481526020019081526020016000205490508181146130b5576000600a60008673ffffffffffffffffffffffffffffffffffffffff1673ffffffffffffffffffffffffffffffffffffffff168152602001908152602001600020600084815260200190815260200160002054905080600a60008773ffffffffffffffffffffffffffffffffffffffff1673ffffffffffffffffffffffffffffffffffffffff16815260200190815260200160002060008481526020019081526020016000208190555081600b600083815260200190815260200160002081905550505b600b600084815260200190815260200160002060009055600a60008573ffffffffffffffffffffffffffffffffffffffff1673ffffffffffffffffffffffffffffffffffffffff16815260200190815260200160002060008381526020019081526020016000206000905550505050565b60006001600c8054905061313a9190614548565b90506000600d60008481526020019081526020016000205490506000600c8381548110613190577f4e487b7100000000000000000000000000000000000000000000000000000000600052603260045260246000fd5b9060005260206000200154905080600c83815481106131d8577f4e487b7100000000000000000000000000000000000000000000000000000000600052603260045260246000fd5b906000526020600020018190555081600d600083815260200190815260200160002081905550600d600085815260200190815260200160002060009055600c80548061324d577f4e487b7100000000000000000000000000000000000000000000000000000000600052603160045260246000fd5b6001900381819060005260206000200160009055905550505050565b6000613274836113f5565b905081600a60008573ffffffffffffffffffffffffffffffffffffffff1673ffffffffffffffffffffffffffffffffffffffff16815260200190815260200160002060008381526020019081526020016000208190555080600b600084815260200190815260200160002081905550505050565b60006132f382611290565b9050613301816000846126fa565b61330c600083611cac565b6001600560008373ffffffffffffffffffffffffffffffffffffffff1673ffffffffffffffffffffffffffffffffffffffff168152602001908152602001600020600082825461335c9190614548565b925050819055506004600083815260200190815260200160002060006101000a81549073ffffffffffffffffffffffffffffffffffffffff021916905581600073ffffffffffffffffffffffffffffffffffffffff168273ffffffffffffffffffffffffffffffffffffffff167fddf252ad1be2c89b69c2b068fc378daa952ba7f163c4a11628f55a4df523b3ef60405160405180910390a461340181600084612712565b5050565b60016000828152602001908152602001600020600080820160006101000a81549073ffffffffffffffffffffffffffffffffffffffff02191690556000820160146101000a8154906bffffffffffffffffffffffff0219169055505050565b60007f01ffc9a7000000000000000000000000000000000000000000000000000000007bffffffffffffffffffffffffffffffffffffffffffffffffffffffff1916827bffffffffffffffffffffffffffffffffffffffffffffffffffffffff1916149050919050565b8280546134da90614657565b90600052602060002090601f0160209004810192826134fc5760008555613543565b82601f1061351557805160ff1916838001178555613543565b82800160010185558215613543579182015b82811115613542578251825591602001919060010190613527565b5b5090506135509190613594565b5090565b50805461356090614657565b6000825580601f106135725750613591565b601f0160209004906000526020600020908101906135909190613594565b5b50565b5b808211156135ad576000816000905550600101613595565b5090565b60006135c46135bf846143ad565b614388565b9050828152602081018484840111156135dc57600080fd5b6135e7848285614615565b509392505050565b60006136026135fd846143de565b614388565b90508281526020810184848401111561361a57600080fd5b613625848285614615565b509392505050565b60008135905061363c81614dcb565b92915050565b60008135905061365181614de2565b92915050565b60008135905061366681614df9565b92915050565b60008151905061367b81614df9565b92915050565b600082601f83011261369257600080fd5b81356136a28482602086016135b1565b91505092915050565b600082601f8301126136bc57600080fd5b81356136cc8482602086016135ef565b91505092915050565b6000813590506136e481614e10565b92915050565b6000813590506136f981614e27565b92915050565b60006020828403121561371157600080fd5b600061371f8482850161362d565b91505092915050565b6000806040838503121561373b57600080fd5b60006137498582860161362d565b925050602061375a8582860161362d565b9150509250929050565b60008060006060848603121561377957600080fd5b60006137878682870161362d565b93505060206137988682870161362d565b92505060406137a9868287016136d5565b9150509250925092565b600080600080608085870312156137c957600080fd5b60006137d78782880161362d565b94505060206137e88782880161362d565b93505060406137f9878288016136d5565b925050606085013567ffffffffffffffff81111561381657600080fd5b61382287828801613681565b91505092959194509250565b6000806040838503121561384157600080fd5b600061384f8582860161362d565b925050602061386085828601613642565b9150509250929050565b6000806040838503121561387d57600080fd5b600061388b8582860161362d565b925050602061389c858286016136d5565b9150509250929050565b600080604083850312156138b957600080fd5b60006138c78582860161362d565b92505060206138d8858286016136ea565b9150509250929050565b6000602082840312156138f457600080fd5b600061390284828501613657565b91505092915050565b60006020828403121561391d57600080fd5b600061392b8482850161366c565b91505092915050565b60006020828403121561394657600080fd5b600082013567ffffffffffffffff81111561396057600080fd5b61396c848285016136ab565b91505092915050565b6000806040838503121561398857600080fd5b600083013567ffffffffffffffff8111156139a257600080fd5b6139ae858286016136ab565b92505060206139bf858286016136d5565b9150509250929050565b6000602082840312156139db57600080fd5b60006139e9848285016136d5565b91505092915050565b600080600060608486031215613a0757600080fd5b6000613a15868287016136d5565b9350506020613a268682870161362d565b9250506040613a37868287016136d5565b9150509250925092565b60008060408385031215613a5457600080fd5b6000613a62858286016136d5565b9250506020613a73858286016136d5565b9150509250929050565b613a868161457c565b82525050565b613a958161458e565b82525050565b6000613aa682614424565b613ab0818561443a565b9350613ac0818560208601614624565b613ac98161481a565b840191505092915050565b6000613adf8261442f565b613ae9818561444b565b9350613af9818560208601614624565b613b028161481a565b840191505092915050565b6000613b188261442f565b613b22818561445c565b9350613b32818560208601614624565b80840191505092915050565b60008154613b4b81614657565b613b55818661445c565b94506001821660008114613b705760018114613b8157613bb4565b60ff19831686528186019350613bb4565b613b8a8561440f565b60005b83811015613bac57815481890152600182019150602081019050613b8d565b838801955050505b50505092915050565b6000613bca60148361444b565b9150613bd58261482b565b602082019050919050565b6000613bed602b8361444b565b9150613bf882614854565b604082019050919050565b6000613c1060328361444b565b9150613c1b826148a3565b604082019050919050565b6000613c3360268361444b565b9150613c3e826148f2565b604082019050919050565b6000613c5660258361444b565b9150613c6182614941565b604082019050919050565b6000613c79601c8361444b565b9150613c8482614990565b602082019050919050565b6000613c9c60248361444b565b9150613ca7826149b9565b604082019050919050565b6000613cbf60198361444b565b9150613cca82614a08565b602082019050919050565b6000613ce260128361444b565b9150613ced82614a31565b602082019050919050565b6000613d0560108361444b565b9150613d1082614a5a565b602082019050919050565b6000613d2860298361444b565b9150613d3382614a83565b604082019050919050565b6000613d4b602e8361444b565b9150613d5682614ad2565b604082019050919050565b6000613d6e603e8361444b565b9150613d7982614b21565b604082019050919050565b6000613d9160208361444b565b9150613d9c82614b70565b602082019050919050565b6000613db460208361444b565b9150613dbf82614b99565b602082019050919050565b6000613dd7600d8361444b565b9150613de282614bc2565b602082019050919050565b6000613dfa60188361444b565b9150613e0582614beb565b602082019050919050565b6000613e1d60218361444b565b9150613e2882614c14565b604082019050919050565b6000613e4060018361445c565b9150613e4b82614c63565b600182019050919050565b6000613e63602c8361444b565b9150613e6e82614c8c565b604082019050919050565b6000613e86602a8361444b565b9150613e9182614cdb565b604082019050919050565b6000613ea9602e8361444b565b9150613eb482614d2a565b604082019050919050565b6000613ecc601f8361444b565b9150613ed782614d79565b602082019050919050565b6000613eef60198361444b565b9150613efa82614da2565b602082019050919050565b613f0e816145e6565b82525050565b6000613f208285613b0d565b9150613f2c8284613b0d565b91508190509392505050565b6000613f448286613b3e565b9150613f4f82613e33565b9150613f5b8285613b0d565b9150613f678284613b3e565b9150819050949350505050565b6000602082019050613f896000830184613a7d565b92915050565b6000608082019050613fa46000830187613a7d565b613fb16020830186613a7d565b613fbe6040830185613f05565b8181036060830152613fd08184613a9b565b905095945050505050565b6000604082019050613ff06000830185613a7d565b613ffd6020830184613f05565b9392505050565b60006020820190506140196000830184613a8c565b92915050565b600060208201905081810360008301526140398184613ad4565b905092915050565b6000602082019050818103600083015261405a81613bbd565b9050919050565b6000602082019050818103600083015261407a81613be0565b9050919050565b6000602082019050818103600083015261409a81613c03565b9050919050565b600060208201905081810360008301526140ba81613c26565b9050919050565b600060208201905081810360008301526140da81613c49565b9050919050565b600060208201905081810360008301526140fa81613c6c565b9050919050565b6000602082019050818103600083015261411a81613c8f565b9050919050565b6000602082019050818103600083015261413a81613cb2565b9050919050565b6000602082019050818103600083015261415a81613cd5565b9050919050565b6000602082019050818103600083015261417a81613cf8565b9050919050565b6000602082019050818103600083015261419a81613d1b565b9050919050565b600060208201905081810360008301526141ba81613d3e565b9050919050565b600060208201905081810360008301526141da81613d61565b9050919050565b600060208201905081810360008301526141fa81613d84565b9050919050565b6000602082019050818103600083015261421a81613da7565b9050919050565b6000602082019050818103600083015261423a81613dca565b9050919050565b6000602082019050818103600083015261425a81613ded565b9050919050565b6000602082019050818103600083015261427a81613e10565b9050919050565b6000602082019050818103600083015261429a81613e56565b9050919050565b600060208201905081810360008301526142ba81613e79565b9050919050565b600060208201905081810360008301526142da81613e9c565b9050919050565b600060208201905081810360008301526142fa81613ebf565b9050919050565b6000602082019050818103600083015261431a81613ee2565b9050919050565b60006020820190506143366000830184613f05565b92915050565b60006080820190506143516000830187613f05565b61435e6020830186613f05565b81810360408301526143708185613ad4565b905061437f6060830184613f05565b95945050505050565b60006143926143a3565b905061439e8282614689565b919050565b6000604051905090565b600067ffffffffffffffff8211156143c8576143c76147eb565b5b6143d18261481a565b9050602081019050919050565b600067ffffffffffffffff8211156143f9576143f86147eb565b5b6144028261481a565b9050602081019050919050565b60008190508160005260206000209050919050565b600081519050919050565b600081519050919050565b600082825260208201905092915050565b600082825260208201905092915050565b600081905092915050565b6000614472826145e6565b915061447d836145e6565b9250827fffffffffffffffffffffffffffffffffffffffffffffffffffffffffffffffff038211156144b2576144b161475e565b5b828201905092915050565b60006144c8826145e6565b91506144d3836145e6565b9250826144e3576144e261478d565b5b828204905092915050565b60006144f9826145e6565b9150614504836145e6565b9250817fffffffffffffffffffffffffffffffffffffffffffffffffffffffffffffffff048311821515161561453d5761453c61475e565b5b828202905092915050565b6000614553826145e6565b915061455e836145e6565b9250828210156145715761457061475e565b5b828203905092915050565b6000614587826145c6565b9050919050565b60008115159050919050565b60007fffffffff0000000000000000000000000000000000000000000000000000000082169050919050565b600073ffffffffffffffffffffffffffffffffffffffff82169050919050565b6000819050919050565b600060ff82169050919050565b60006bffffffffffffffffffffffff82169050919050565b82818337600083830152505050565b60005b83811015614642578082015181840152602081019050614627565b83811115614651576000848401525b50505050565b6000600282049050600182168061466f57607f821691505b60208210811415614683576146826147bc565b5b50919050565b6146928261481a565b810181811067ffffffffffffffff821117156146b1576146b06147eb565b5b80604052505050565b60006146c5826145e6565b91507fffffffffffffffffffffffffffffffffffffffffffffffffffffffffffffffff8214156146f8576146f761475e565b5b600182019050919050565b600061470e826145f0565b915060ff8214156147225761472161475e565b5b600182019050919050565b6000614738826145e6565b9150614743836145e6565b9250826147535761475261478d565b5b828206905092915050565b7f4e487b7100000000000000000000000000000000000000000000000000000000600052601160045260246000fd5b7f4e487b7100000000000000000000000000000000000000000000000000000000600052601260045260246000fd5b7f4e487b7100000000000000000000000000000000000000000000000000000000600052602260045260246000fd5b7f4e487b7100000000000000000000000000000000000000000000000000000000600052604160045260246000fd5b6000601f19601f8301169050919050565b7f5061757361626c653a206e6f7420706175736564000000000000000000000000600082015250565b7f455243373231456e756d657261626c653a206f776e657220696e646578206f7560008201527f74206f6620626f756e6473000000000000000000000000000000000000000000602082015250565b7f4552433732313a207472616e7366657220746f206e6f6e20455243373231526560008201527f63656976657220696d706c656d656e7465720000000000000000000000000000602082015250565b7f4f776e61626c653a206e6577206f776e657220697320746865207a65726f206160008201527f6464726573730000000000000000000000000000000000000000000000000000602082015250565b7f4552433732313a207472616e736665722066726f6d20696e636f72726563742060008201527f6f776e6572000000000000000000000000000000000000000000000000000000602082015250565b7f4552433732313a20746f6b656e20616c7265616479206d696e74656400000000600082015250565b7f4552433732313a207472616e7366657220746f20746865207a65726f2061646460008201527f7265737300000000000000000000000000000000000000000000000000000000602082015250565b7f4552433732313a20617070726f766520746f2063616c6c657200000000000000600082015250565b7f4e6f7420656e6f7567682062616c616e63650000000000000000000000000000600082015250565b7f5061757361626c653a2070617573656400000000000000000000000000000000600082015250565b7f4552433732313a2061646472657373207a65726f206973206e6f74206120766160008201527f6c6964206f776e65720000000000000000000000000000000000000000000000602082015250565b7f45524337323155524953746f726167653a2055524920736574206f66206e6f6e60008201527f6578697374656e7420746f6b656e000000000000000000000000000000000000602082015250565b7f4552433732313a20617070726f76652063616c6c6572206973206e6f7420746f60008201527f6b656e206f776e6572206e6f7220617070726f76656420666f7220616c6c0000602082015250565b7f4552433732313a206d696e7420746f20746865207a65726f2061646472657373600082015250565b7f4f776e61626c653a2063616c6c6572206973206e6f7420746865206f776e6572600082015250565b7f4f7574206f6620737570706c7900000000000000000000000000000000000000600082015250565b7f4552433732313a20696e76616c696420746f6b656e2049440000000000000000600082015250565b7f4552433732313a20617070726f76616c20746f2063757272656e74206f776e6560008201527f7200000000000000000000000000000000000000000000000000000000000000602082015250565b7f5f00000000000000000000000000000000000000000000000000000000000000600082015250565b7f455243373231456e756d657261626c653a20676c6f62616c20696e646578206f60008201527f7574206f6620626f756e64730000000000000000000000000000000000000000602082015250565b7f455243323938313a20726f79616c7479206665652077696c6c2065786365656460008201527f2073616c65507269636500000000000000000000000000000000000000000000602082015250565b7f4552433732313a2063616c6c6572206973206e6f7420746f6b656e206f776e6560008201527f72206e6f7220617070726f766564000000000000000000000000000000000000602082015250565b7f5265656e7472616e637947756172643a207265656e7472616e742063616c6c00600082015250565b7f455243323938313a20696e76616c696420726563656976657200000000000000600082015250565b614dd48161457c565b8114614ddf57600080fd5b50565b614deb8161458e565b8114614df657600080fd5b50565b614e028161459a565b8114614e0d57600080fd5b50565b614e19816145e6565b8114614e2457600080fd5b50565b614e30816145fd565b8114614e3b57600080fd5b5056fe68747470733a2f2f676174657761792e70696e6174612e636c6f75642f697066732f516d4e75665772654c68377766344c6561743270787a6739326d5169364d36636a573736377061666f445343684a2fa2646970667358221220c3ca1f5295b5004a6bc35e51c9376bb882c0563bd14abaf8fc8254883a691f2564736f6c6343000804003368747470733a2f2f676174657761792e70696e6174612e636c6f75642f697066732f516d4e56744846714265514475356769796339727a7841507a5235796875757732686f47764679504252645278752f",
  "linkReferences": {},
  "deployedLinkReferences": {}
}