{
  "_format": "hh-sol-artifact-1",
  "contractName": "Bike",
  "sourceName": "contracts/Bike.sol",
  "abi": [
    {
      "inputs": [
        {
          "internalType": "address",
          "name": "owner",
          "type": "address"
        }
      ],
      "stateMutability": "nonpayable",
      "type": "constructor"
    },
    {
      "anonymous": false,
      "inputs": [
        {
          "indexed": true,
          "internalType": "address",
          "name": "owner",
          "type": "address"
        },
        {
          "indexed": true,
          "internalType": "address",
          "name": "approved",
          "type": "address"
        },
        {
          "indexed": true,
          "internalType": "uint256",
          "name": "tokenId",
          "type": "uint256"
        }
      ],
      "name": "Approval",
      "type": "event"
    },
    {
      "anonymous": false,
      "inputs": [
        {
          "indexed": true,
          "internalType": "address",
          "name": "owner",
          "type": "address"
        },
        {
          "indexed": true,
          "internalType": "address",
          "name": "operator",
          "type": "address"
        },
        {
          "indexed": false,
          "internalType": "bool",
          "name": "approved",
          "type": "bool"
        }
      ],
      "name": "ApprovalForAll",
      "type": "event"
    },
    {
      "anonymous": false,
      "inputs": [
        {
          "indexed": true,
          "internalType": "address",
          "name": "previousOwner",
          "type": "address"
        },
        {
          "indexed": true,
          "internalType": "address",
          "name": "newOwner",
          "type": "address"
        }
      ],
      "name": "OwnershipTransferred",
      "type": "event"
    },
    {
      "anonymous": false,
      "inputs": [
        {
          "indexed": false,
          "internalType": "address",
          "name": "account",
          "type": "address"
        }
      ],
      "name": "Paused",
      "type": "event"
    },
    {
      "anonymous": false,
      "inputs": [
        {
          "indexed": true,
          "internalType": "address",
          "name": "from",
          "type": "address"
        },
        {
          "indexed": true,
          "internalType": "address",
          "name": "to",
          "type": "address"
        },
        {
          "indexed": true,
          "internalType": "uint256",
          "name": "tokenId",
          "type": "uint256"
        }
      ],
      "name": "Transfer",
      "type": "event"
    },
    {
      "anonymous": false,
      "inputs": [
        {
          "indexed": false,
          "internalType": "address",
          "name": "account",
          "type": "address"
        }
      ],
      "name": "Unpaused",
      "type": "event"
    },
    {
      "inputs": [
        {
          "internalType": "string",
          "name": "_itemName",
          "type": "string"
        },
        {
          "internalType": "uint256",
          "name": "_quantity",
          "type": "uint256"
        }
      ],
      "name": "addAmountToken",
      "outputs": [],
      "stateMutability": "nonpayable",
      "type": "function"
    },
    {
      "inputs": [
        {
          "internalType": "address",
          "name": "to",
          "type": "address"
        },
        {
          "internalType": "uint256",
          "name": "tokenId",
          "type": "uint256"
        }
      ],
      "name": "approve",
      "outputs": [],
      "stateMutability": "nonpayable",
      "type": "function"
    },
    {
      "inputs": [
        {
          "internalType": "address",
          "name": "owner",
          "type": "address"
        }
      ],
      "name": "balanceOf",
      "outputs": [
        {
          "internalType": "uint256",
          "name": "",
          "type": "uint256"
        }
      ],
      "stateMutability": "view",
      "type": "function"
    },
    {
      "inputs": [],
      "name": "baseURI",
      "outputs": [
        {
          "internalType": "string",
          "name": "",
          "type": "string"
        }
      ],
      "stateMutability": "view",
      "type": "function"
    },
    {
      "inputs": [
        {
          "internalType": "uint256",
          "name": "tokenId",
          "type": "uint256"
        }
      ],
      "name": "burn",
      "outputs": [],
      "stateMutability": "nonpayable",
      "type": "function"
    },
    {
      "inputs": [],
      "name": "contractURI",
      "outputs": [
        {
          "internalType": "string",
          "name": "",
          "type": "string"
        }
      ],
      "stateMutability": "pure",
      "type": "function"
    },
    {
      "inputs": [
        {
          "internalType": "uint256",
          "name": "tokenId",
          "type": "uint256"
        }
      ],
      "name": "getApproved",
      "outputs": [
        {
          "internalType": "address",
          "name": "",
          "type": "address"
        }
      ],
      "stateMutability": "view",
      "type": "function"
    },
    {
      "inputs": [],
      "name": "getFee",
      "outputs": [
        {
          "internalType": "uint256",
          "name": "",
          "type": "uint256"
        }
      ],
      "stateMutability": "view",
      "type": "function"
    },
    {
      "inputs": [
        {
          "internalType": "address",
          "name": "owner",
          "type": "address"
        },
        {
          "internalType": "address",
          "name": "operator",
          "type": "address"
        }
      ],
      "name": "isApprovedForAll",
      "outputs": [
        {
          "internalType": "bool",
          "name": "",
          "type": "bool"
        }
      ],
      "stateMutability": "view",
      "type": "function"
    },
    {
      "inputs": [
        {
          "internalType": "uint256",
          "name": "",
          "type": "uint256"
        }
      ],
      "name": "items",
      "outputs": [
        {
          "internalType": "uint256",
          "name": "id",
          "type": "uint256"
        },
        {
          "internalType": "uint256",
          "name": "count",
          "type": "uint256"
        },
        {
          "internalType": "string",
          "name": "name",
          "type": "string"
        },
        {
          "internalType": "uint256",
          "name": "quantity",
          "type": "uint256"
        }
      ],
      "stateMutability": "view",
      "type": "function"
    },
    {
      "inputs": [],
      "name": "name",
      "outputs": [
        {
          "internalType": "string",
          "name": "",
          "type": "string"
        }
      ],
      "stateMutability": "view",
      "type": "function"
    },
    {
      "inputs": [],
      "name": "owner",
      "outputs": [
        {
          "internalType": "address",
          "name": "",
          "type": "address"
        }
      ],
      "stateMutability": "view",
      "type": "function"
    },
    {
      "inputs": [
        {
          "internalType": "uint256",
          "name": "tokenId",
          "type": "uint256"
        }
      ],
      "name": "ownerOf",
      "outputs": [
        {
          "internalType": "address",
          "name": "",
          "type": "address"
        }
      ],
      "stateMutability": "view",
      "type": "function"
    },
    {
      "inputs": [],
      "name": "pause",
      "outputs": [],
      "stateMutability": "nonpayable",
      "type": "function"
    },
    {
      "inputs": [],
      "name": "paused",
      "outputs": [
        {
          "internalType": "bool",
          "name": "",
          "type": "bool"
        }
      ],
      "stateMutability": "view",
      "type": "function"
    },
    {
      "inputs": [],
      "name": "renounceOwnership",
      "outputs": [],
      "stateMutability": "nonpayable",
      "type": "function"
    },
    {
      "inputs": [
        {
          "internalType": "uint256",
          "name": "_tokenId",
          "type": "uint256"
        },
        {
          "internalType": "uint256",
          "name": "_salePrice",
          "type": "uint256"
        }
      ],
      "name": "royaltyInfo",
      "outputs": [
        {
          "internalType": "address",
          "name": "",
          "type": "address"
        },
        {
          "internalType": "uint256",
          "name": "",
          "type": "uint256"
        }
      ],
      "stateMutability": "view",
      "type": "function"
    },
    {
      "inputs": [
        {
          "internalType": "uint256",
          "name": "index",
          "type": "uint256"
        },
        {
          "internalType": "address",
          "name": "to",
          "type": "address"
        },
        {
          "internalType": "uint256",
          "name": "amount",
          "type": "uint256"
        }
      ],
      "name": "safeMintMany",
      "outputs": [],
      "stateMutability": "payable",
      "type": "function"
    },
    {
      "inputs": [
        {
          "internalType": "address",
          "name": "from",
          "type": "address"
        },
        {
          "internalType": "address",
          "name": "to",
          "type": "address"
        },
        {
          "internalType": "uint256",
          "name": "tokenId",
          "type": "uint256"
        }
      ],
      "name": "safeTransferFrom",
      "outputs": [],
      "stateMutability": "nonpayable",
      "type": "function"
    },
    {
      "inputs": [
        {
          "internalType": "address",
          "name": "from",
          "type": "address"
        },
        {
          "internalType": "address",
          "name": "to",
          "type": "address"
        },
        {
          "internalType": "uint256",
          "name": "tokenId",
          "type": "uint256"
        },
        {
          "internalType": "bytes",
          "name": "data",
          "type": "bytes"
        }
      ],
      "name": "safeTransferFrom",
      "outputs": [],
      "stateMutability": "nonpayable",
      "type": "function"
    },
    {
      "inputs": [
        {
          "internalType": "address",
          "name": "operator",
          "type": "address"
        },
        {
          "internalType": "bool",
          "name": "approved",
          "type": "bool"
        }
      ],
      "name": "setApprovalForAll",
      "outputs": [],
      "stateMutability": "nonpayable",
      "type": "function"
    },
    {
      "inputs": [
        {
          "internalType": "string",
          "name": "newBaseURI",
          "type": "string"
        }
      ],
      "name": "setBaseURI",
      "outputs": [],
      "stateMutability": "nonpayable",
      "type": "function"
    },
    {
      "inputs": [
        {
          "internalType": "address",
          "name": "receiver",
          "type": "address"
        },
        {
          "internalType": "uint96",
          "name": "feeNumerator",
          "type": "uint96"
        }
      ],
      "name": "setDefaultRoyalty",
      "outputs": [],
      "stateMutability": "nonpayable",
      "type": "function"
    },
    {
      "inputs": [
        {
          "internalType": "uint256",
          "name": "fee",
          "type": "uint256"
        }
      ],
      "name": "setFee",
      "outputs": [],
      "stateMutability": "nonpayable",
      "type": "function"
    },
    {
      "inputs": [
        {
          "internalType": "bytes4",
          "name": "interfaceId",
          "type": "bytes4"
        }
      ],
      "name": "supportsInterface",
      "outputs": [
        {
          "internalType": "bool",
          "name": "",
          "type": "bool"
        }
      ],
      "stateMutability": "view",
      "type": "function"
    },
    {
      "inputs": [],
      "name": "symbol",
      "outputs": [
        {
          "internalType": "string",
          "name": "",
          "type": "string"
        }
      ],
      "stateMutability": "view",
      "type": "function"
    },
    {
      "inputs": [
        {
          "internalType": "uint256",
          "name": "index",
          "type": "uint256"
        }
      ],
      "name": "tokenByIndex",
      "outputs": [
        {
          "internalType": "uint256",
          "name": "",
          "type": "uint256"
        }
      ],
      "stateMutability": "view",
      "type": "function"
    },
    {
      "inputs": [
        {
          "internalType": "address",
          "name": "owner",
          "type": "address"
        },
        {
          "internalType": "uint256",
          "name": "index",
          "type": "uint256"
        }
      ],
      "name": "tokenOfOwnerByIndex",
      "outputs": [
        {
          "internalType": "uint256",
          "name": "",
          "type": "uint256"
        }
      ],
      "stateMutability": "view",
      "type": "function"
    },
    {
      "inputs": [
        {
          "internalType": "uint256",
          "name": "tokenId",
          "type": "uint256"
        }
      ],
      "name": "tokenURI",
      "outputs": [
        {
          "internalType": "string",
          "name": "",
          "type": "string"
        }
      ],
      "stateMutability": "view",
      "type": "function"
    },
    {
      "inputs": [],
      "name": "totalSupply",
      "outputs": [
        {
          "internalType": "uint256",
          "name": "",
          "type": "uint256"
        }
      ],
      "stateMutability": "view",
      "type": "function"
    },
    {
      "inputs": [
        {
          "internalType": "address",
          "name": "from",
          "type": "address"
        },
        {
          "internalType": "address",
          "name": "to",
          "type": "address"
        },
        {
          "internalType": "uint256",
          "name": "tokenId",
          "type": "uint256"
        }
      ],
      "name": "transferFrom",
      "outputs": [],
      "stateMutability": "nonpayable",
      "type": "function"
    },
    {
      "inputs": [
        {
          "internalType": "address",
          "name": "newOwner",
          "type": "address"
        }
      ],
      "name": "transferOwnership",
      "outputs": [],
      "stateMutability": "nonpayable",
      "type": "function"
    },
    {
      "inputs": [],
      "name": "unpause",
      "outputs": [],
      "stateMutability": "nonpayable",
      "type": "function"
    },
    {
      "inputs": [],
      "name": "withdraw",
      "outputs": [],
      "stateMutability": "nonpayable",
      "type": "function"
    }
  ],
  "bytecode": "0x6080604052662386f26fc100006012556040518060400160405280600581526020017f2e6a736f6e000000000000000000000000000000000000000000000000000000815250601390805190602001906200005c92919062000290565b503480156200006a57600080fd5b506040516200527038038062005270833981810160405281019062000090919062000357565b6040518060400160405280600481526020017f42696b65000000000000000000000000000000000000000000000000000000008152506040518060400160405280600481526020017f42494b450000000000000000000000000000000000000000000000000000000081525081600290805190602001906200011492919062000290565b5080600390805190602001906200012d92919062000290565b5050506000600860006101000a81548160ff0219169083151502179055506200016b6200015f620001c260201b60201c565b620001ca60201b60201c565b60016009819055506200018981620001ca60201b6200181a1760201c565b6040518060800160405280605181526020016200521f6051913960119080519060200190620001ba92919062000290565b505062000436565b600033905090565b6000600860019054906101000a900473ffffffffffffffffffffffffffffffffffffffff16905081600860016101000a81548173ffffffffffffffffffffffffffffffffffffffff021916908373ffffffffffffffffffffffffffffffffffffffff1602179055508173ffffffffffffffffffffffffffffffffffffffff168173ffffffffffffffffffffffffffffffffffffffff167f8be0079c531659141344cd1fd0a4f28419497f9722a3daafe3b4186f6b6457e060405160405180910390a35050565b8280546200029e90620003b7565b90600052602060002090601f016020900481019282620002c257600085556200030e565b82601f10620002dd57805160ff19168380011785556200030e565b828001600101855582156200030e579182015b828111156200030d578251825591602001919060010190620002f0565b5b5090506200031d919062000321565b5090565b5b808211156200033c57600081600090555060010162000322565b5090565b60008151905062000351816200041c565b92915050565b6000602082840312156200036a57600080fd5b60006200037a8482850162000340565b91505092915050565b6000620003908262000397565b9050919050565b600073ffffffffffffffffffffffffffffffffffffffff82169050919050565b60006002820490506001821680620003d057607f821691505b60208210811415620003e757620003e6620003ed565b5b50919050565b7f4e487b7100000000000000000000000000000000000000000000000000000000600052602260045260246000fd5b620004278162000383565b81146200043357600080fd5b50565b614dd980620004466000396000f3fe6080604052600436106101f95760003560e01c80636352211e1161010d57806395d89b41116100a0578063c87b56dd1161006f578063c87b56dd146106fe578063ced72f871461073b578063e8a3d48514610766578063e985e9c514610791578063f2fde38b146107ce576101f9565b806395d89b4114610641578063a22cb4651461066c578063b88d4fde14610695578063bfb231d2146106be576101f9565b8063715018a6116100dc578063715018a6146105bf5780637de2cafc146105d65780638456cb59146105ff5780638da5cb5b14610616576101f9565b80636352211e146104f157806369fe0e2d1461052e5780636c0360eb1461055757806370a0823114610582576101f9565b80632f745c591161019057806342966c681161015f57806342966c681461041b578063435b17c6146104445780634f6ccce71461046057806355f804b31461049d5780635c975abb146104c6576101f9565b80632f745c59146103875780633ccfd60b146103c45780633f4ba83a146103db57806342842e0e146103f2576101f9565b8063095ea7b3116101cc578063095ea7b3146102cc57806318160ddd146102f557806323b872dd146103205780632a55205a14610349576101f9565b806301ffc9a7146101fe57806304634d8d1461023b57806306fdde0314610264578063081812fc1461028f575b600080fd5b34801561020a57600080fd5b50610225600480360381019061022091906137f6565b6107f7565b6040516102329190613f18565b60405180910390f35b34801561024757600080fd5b50610262600480360381019061025d91906137ba565b610809565b005b34801561027057600080fd5b5061027961081f565b6040516102869190613f33565b60405180910390f35b34801561029b57600080fd5b506102b660048036038101906102b191906138dd565b6108b1565b6040516102c39190613e88565b60405180910390f35b3480156102d857600080fd5b506102f360048036038101906102ee919061377e565b6108f7565b005b34801561030157600080fd5b5061030a610a0f565b6040516103179190614235565b60405180910390f35b34801561032c57600080fd5b5061034760048036038101906103429190613678565b610a1c565b005b34801561035557600080fd5b50610370600480360381019061036b9190613955565b610a7c565b60405161037e929190613eef565b60405180910390f35b34801561039357600080fd5b506103ae60048036038101906103a9919061377e565b610c67565b6040516103bb9190614235565b60405180910390f35b3480156103d057600080fd5b506103d9610d0c565b005b3480156103e757600080fd5b506103f0610db3565b005b3480156103fe57600080fd5b5061041960048036038101906104149190613678565b610dc5565b005b34801561042757600080fd5b50610442600480360381019061043d91906138dd565b610de5565b005b61045e60048036038101906104599190613906565b610e41565b005b34801561046c57600080fd5b50610487600480360381019061048291906138dd565b611102565b6040516104949190614235565b60405180910390f35b3480156104a957600080fd5b506104c460048036038101906104bf9190613848565b611199565b005b3480156104d257600080fd5b506104db6111bb565b6040516104e89190613f18565b60405180910390f35b3480156104fd57600080fd5b50610518600480360381019061051391906138dd565b6111d2565b6040516105259190613e88565b60405180910390f35b34801561053a57600080fd5b50610555600480360381019061055091906138dd565b611284565b005b34801561056357600080fd5b5061056c6112a9565b6040516105799190613f33565b60405180910390f35b34801561058e57600080fd5b506105a960048036038101906105a49190613613565b611337565b6040516105b69190614235565b60405180910390f35b3480156105cb57600080fd5b506105d46113ef565b005b3480156105e257600080fd5b506105fd60048036038101906105f89190613889565b611403565b005b34801561060b57600080fd5b506106146114b8565b005b34801561062257600080fd5b5061062b6114ca565b6040516106389190613e88565b60405180910390f35b34801561064d57600080fd5b506106566114f4565b6040516106639190613f33565b60405180910390f35b34801561067857600080fd5b50610693600480360381019061068e9190613742565b611586565b005b3480156106a157600080fd5b506106bc60048036038101906106b791906136c7565b61159c565b005b3480156106ca57600080fd5b506106e560048036038101906106e091906138dd565b6115fe565b6040516106f59493929190614250565b60405180910390f35b34801561070a57600080fd5b50610725600480360381019061072091906138dd565b6116c6565b6040516107329190613f33565b60405180910390f35b34801561074757600080fd5b506107506116d8565b60405161075d9190614235565b60405180910390f35b34801561077257600080fd5b5061077b6116e2565b6040516107889190613f33565b60405180910390f35b34801561079d57600080fd5b506107b860048036038101906107b3919061363c565b611702565b6040516107c59190613f18565b60405180910390f35b3480156107da57600080fd5b506107f560048036038101906107f09190613613565b611796565b005b6000610802826118e0565b9050919050565b61081161195a565b61081b82826119d8565b5050565b60606002805461082e9061456b565b80601f016020809104026020016040519081016040528092919081815260200182805461085a9061456b565b80156108a75780601f1061087c576101008083540402835291602001916108a7565b820191906000526020600020905b81548152906001019060200180831161088a57829003601f168201915b5050505050905090565b60006108bc82611b6d565b6006600083815260200190815260200160002060009054906101000a900473ffffffffffffffffffffffffffffffffffffffff169050919050565b6000610902826111d2565b90508073ffffffffffffffffffffffffffffffffffffffff168373ffffffffffffffffffffffffffffffffffffffff161415610973576040517f08c379a000000000000000000000000000000000000000000000000000000000815260040161096a90614175565b60405180910390fd5b8073ffffffffffffffffffffffffffffffffffffffff16610992611bb8565b73ffffffffffffffffffffffffffffffffffffffff1614806109c157506109c0816109bb611bb8565b611702565b5b610a00576040517f08c379a00000000000000000000000000000000000000000000000000000000081526004016109f7906140d5565b60405180910390fd5b610a0a8383611bc0565b505050565b6000600c80549050905090565b610a2d610a27611bb8565b82611c79565b610a6c576040517f08c379a0000000000000000000000000000000000000000000000000000000008152600401610a63906141d5565b60405180910390fd5b610a77838383611d0e565b505050565b6000806000600160008681526020019081526020016000206040518060400160405290816000820160009054906101000a900473ffffffffffffffffffffffffffffffffffffffff1673ffffffffffffffffffffffffffffffffffffffff1673ffffffffffffffffffffffffffffffffffffffff1681526020016000820160149054906101000a90046bffffffffffffffffffffffff166bffffffffffffffffffffffff166bffffffffffffffffffffffff16815250509050600073ffffffffffffffffffffffffffffffffffffffff16816000015173ffffffffffffffffffffffffffffffffffffffff161415610c125760006040518060400160405290816000820160009054906101000a900473ffffffffffffffffffffffffffffffffffffffff1673ffffffffffffffffffffffffffffffffffffffff1673ffffffffffffffffffffffffffffffffffffffff1681526020016000820160149054906101000a90046bffffffffffffffffffffffff166bffffffffffffffffffffffff166bffffffffffffffffffffffff168152505090505b6000610c1c611f75565b6bffffffffffffffffffffffff1682602001516bffffffffffffffffffffffff1686610c489190614402565b610c5291906143d1565b90508160000151819350935050509250929050565b6000610c7283611337565b8210610cb3576040517f08c379a0000000000000000000000000000000000000000000000000000000008152600401610caa90613f75565b60405180910390fd5b600a60008473ffffffffffffffffffffffffffffffffffffffff1673ffffffffffffffffffffffffffffffffffffffff168152602001908152602001600020600083815260200190815260200160002054905092915050565b60026009541415610d52576040517f08c379a0000000000000000000000000000000000000000000000000000000008152600401610d49906141f5565b60405180910390fd5b6002600981905550610d6261195a565b3373ffffffffffffffffffffffffffffffffffffffff166108fc479081150290604051600060405180830381858888f19350505050158015610da8573d6000803e3d6000fd5b506001600981905550565b610dbb61195a565b610dc3611f7f565b565b610de08383836040518060200160405280600081525061159c565b505050565b610df6610df0611bb8565b82611c79565b610e35576040517f08c379a0000000000000000000000000000000000000000000000000000000008152600401610e2c906141d5565b60405180910390fd5b610e3e81611fe2565b50565b60148381548110610e7b577f4e487b7100000000000000000000000000000000000000000000000000000000600052603260045260246000fd5b906000526020600020906004020160030154811115610ecf576040517f08c379a0000000000000000000000000000000000000000000000000000000008152600401610ec690614135565b60405180910390fd5b60125481610edd9190614402565b341015610f1f576040517f08c379a0000000000000000000000000000000000000000000000000000000008152600401610f1690614055565b60405180910390fd5b6060600080600090505b838160ff16101561109857610f3e600f611fee565b610f48600f612004565b9150600160148781548110610f86577f4e487b7100000000000000000000000000000000000000000000000000000000600052603260045260246000fd5b90600052602060002090600402016001016000828254610fa6919061437b565b9250508190555060148681548110610fe7577f4e487b7100000000000000000000000000000000000000000000000000000000600052603260045260246000fd5b906000526020600020906004020160020161104c60148881548110611035577f4e487b7100000000000000000000000000000000000000000000000000000000600052603260045260246000fd5b906000526020600020906004020160010154612012565b601360405160200161106093929190613e4c565b604051602081830303815290604052925061107b85836121bf565b61108582846121dd565b808061109090614617565b915050610f29565b5082601486815481106110d4577f4e487b7100000000000000000000000000000000000000000000000000000000600052603260045260246000fd5b906000526020600020906004020160030160008282546110f4919061445c565b925050819055505050505050565b600061110c610a0f565b821061114d576040517f08c379a000000000000000000000000000000000000000000000000000000000815260040161114490614195565b60405180910390fd5b600c8281548110611187577f4e487b7100000000000000000000000000000000000000000000000000000000600052603260045260246000fd5b90600052602060002001549050919050565b6111a161195a565b80601190805190602001906111b79291906133e2565b5050565b6000600860009054906101000a900460ff16905090565b6000806004600084815260200190815260200160002060009054906101000a900473ffffffffffffffffffffffffffffffffffffffff169050600073ffffffffffffffffffffffffffffffffffffffff168173ffffffffffffffffffffffffffffffffffffffff16141561127b576040517f08c379a000000000000000000000000000000000000000000000000000000000815260040161127290614155565b60405180910390fd5b80915050919050565b61128c61195a565b67016345785d8a0000816112a09190614402565b60128190555050565b601180546112b69061456b565b80601f01602080910402602001604051908101604052809291908181526020018280546112e29061456b565b801561132f5780601f106113045761010080835404028352916020019161132f565b820191906000526020600020905b81548152906001019060200180831161131257829003601f168201915b505050505081565b60008073ffffffffffffffffffffffffffffffffffffffff168273ffffffffffffffffffffffffffffffffffffffff1614156113a8576040517f08c379a000000000000000000000000000000000000000000000000000000000815260040161139f90614095565b60405180910390fd5b600560008373ffffffffffffffffffffffffffffffffffffffff1673ffffffffffffffffffffffffffffffffffffffff168152602001908152602001600020549050919050565b6113f761195a565b611401600061181a565b565b61140b61195a565b60006114176010612004565b9050600060405180608001604052808381526020016000815260200185815260200184815250905060148190806001815401808255809150506001900390600052602060002090600402016000909190919091506000820151816000015560208201518160010155604082015181600201908051906020019061149b9291906133e2565b506060820151816003015550506114b26010611fee565b50505050565b6114c061195a565b6114c8612251565b565b6000600860019054906101000a900473ffffffffffffffffffffffffffffffffffffffff16905090565b6060600380546115039061456b565b80601f016020809104026020016040519081016040528092919081815260200182805461152f9061456b565b801561157c5780601f106115515761010080835404028352916020019161157c565b820191906000526020600020905b81548152906001019060200180831161155f57829003601f168201915b5050505050905090565b611598611591611bb8565b83836122b4565b5050565b6115ad6115a7611bb8565b83611c79565b6115ec576040517f08c379a00000000000000000000000000000000000000000000000000000000081526004016115e3906141d5565b60405180910390fd5b6115f884848484612421565b50505050565b6014818154811061160e57600080fd5b906000526020600020906004020160009150905080600001549080600101549080600201805461163d9061456b565b80601f01602080910402602001604051908101604052809291908181526020018280546116699061456b565b80156116b65780601f1061168b576101008083540402835291602001916116b6565b820191906000526020600020905b81548152906001019060200180831161169957829003601f168201915b5050505050908060030154905084565b60606116d18261247d565b9050919050565b6000601254905090565b6060604051806080016040528060518152602001614d5360519139905090565b6000600760008473ffffffffffffffffffffffffffffffffffffffff1673ffffffffffffffffffffffffffffffffffffffff16815260200190815260200160002060008373ffffffffffffffffffffffffffffffffffffffff1673ffffffffffffffffffffffffffffffffffffffff16815260200190815260200160002060009054906101000a900460ff16905092915050565b61179e61195a565b600073ffffffffffffffffffffffffffffffffffffffff168173ffffffffffffffffffffffffffffffffffffffff16141561180e576040517f08c379a000000000000000000000000000000000000000000000000000000000815260040161180590613fb5565b60405180910390fd5b6118178161181a565b50565b6000600860019054906101000a900473ffffffffffffffffffffffffffffffffffffffff16905081600860016101000a81548173ffffffffffffffffffffffffffffffffffffffff021916908373ffffffffffffffffffffffffffffffffffffffff1602179055508173ffffffffffffffffffffffffffffffffffffffff168173ffffffffffffffffffffffffffffffffffffffff167f8be0079c531659141344cd1fd0a4f28419497f9722a3daafe3b4186f6b6457e060405160405180910390a35050565b60007f780e9d63000000000000000000000000000000000000000000000000000000007bffffffffffffffffffffffffffffffffffffffffffffffffffffffff1916827bffffffffffffffffffffffffffffffffffffffffffffffffffffffff19161480611953575061195282612590565b5b9050919050565b611962611bb8565b73ffffffffffffffffffffffffffffffffffffffff166119806114ca565b73ffffffffffffffffffffffffffffffffffffffff16146119d6576040517f08c379a00000000000000000000000000000000000000000000000000000000081526004016119cd90614115565b60405180910390fd5b565b6119e0611f75565b6bffffffffffffffffffffffff16816bffffffffffffffffffffffff161115611a3e576040517f08c379a0000000000000000000000000000000000000000000000000000000008152600401611a35906141b5565b60405180910390fd5b600073ffffffffffffffffffffffffffffffffffffffff168273ffffffffffffffffffffffffffffffffffffffff161415611aae576040517f08c379a0000000000000000000000000000000000000000000000000000000008152600401611aa590614215565b60405180910390fd5b60405180604001604052808373ffffffffffffffffffffffffffffffffffffffff168152602001826bffffffffffffffffffffffff168152506000808201518160000160006101000a81548173ffffffffffffffffffffffffffffffffffffffff021916908373ffffffffffffffffffffffffffffffffffffffff16021790555060208201518160000160146101000a8154816bffffffffffffffffffffffff02191690836bffffffffffffffffffffffff1602179055509050505050565b611b76816125a2565b611bb5576040517f08c379a0000000000000000000000000000000000000000000000000000000008152600401611bac90614155565b60405180910390fd5b50565b600033905090565b816006600083815260200190815260200160002060006101000a81548173ffffffffffffffffffffffffffffffffffffffff021916908373ffffffffffffffffffffffffffffffffffffffff160217905550808273ffffffffffffffffffffffffffffffffffffffff16611c33836111d2565b73ffffffffffffffffffffffffffffffffffffffff167f8c5be1e5ebec7d5bd14f71427d1e84f3dd0314c0f7b2291e5b200ac8c7c3b92560405160405180910390a45050565b600080611c85836111d2565b90508073ffffffffffffffffffffffffffffffffffffffff168473ffffffffffffffffffffffffffffffffffffffff161480611cc75750611cc68185611702565b5b80611d0557508373ffffffffffffffffffffffffffffffffffffffff16611ced846108b1565b73ffffffffffffffffffffffffffffffffffffffff16145b91505092915050565b8273ffffffffffffffffffffffffffffffffffffffff16611d2e826111d2565b73ffffffffffffffffffffffffffffffffffffffff1614611d84576040517f08c379a0000000000000000000000000000000000000000000000000000000008152600401611d7b90613fd5565b60405180910390fd5b600073ffffffffffffffffffffffffffffffffffffffff168273ffffffffffffffffffffffffffffffffffffffff161415611df4576040517f08c379a0000000000000000000000000000000000000000000000000000000008152600401611deb90614015565b60405180910390fd5b611dff83838361260e565b611e0a600082611bc0565b6001600560008573ffffffffffffffffffffffffffffffffffffffff1673ffffffffffffffffffffffffffffffffffffffff1681526020019081526020016000206000828254611e5a919061445c565b925050819055506001600560008473ffffffffffffffffffffffffffffffffffffffff1673ffffffffffffffffffffffffffffffffffffffff1681526020019081526020016000206000828254611eb1919061437b565b92505081905550816004600083815260200190815260200160002060006101000a81548173ffffffffffffffffffffffffffffffffffffffff021916908373ffffffffffffffffffffffffffffffffffffffff160217905550808273ffffffffffffffffffffffffffffffffffffffff168473ffffffffffffffffffffffffffffffffffffffff167fddf252ad1be2c89b69c2b068fc378daa952ba7f163c4a11628f55a4df523b3ef60405160405180910390a4611f70838383612626565b505050565b6000612710905090565b611f8761262b565b6000600860006101000a81548160ff0219169083151502179055507f5db9ee0a495bf2e6ff9c91a7834c1ba4fdd244a5e8aa4e537bd38aeae4b073aa611fcb611bb8565b604051611fd89190613e88565b60405180910390a1565b611feb81612674565b50565b6001816000016000828254019250508190555050565b600081600001549050919050565b6060600082141561205a576040518060400160405280600181526020017f300000000000000000000000000000000000000000000000000000000000000081525090506121ba565b600082905060005b6000821461208c578080612075906145ce565b915050600a8261208591906143d1565b9150612062565b60008167ffffffffffffffff8111156120ce577f4e487b7100000000000000000000000000000000000000000000000000000000600052604160045260246000fd5b6040519080825280601f01601f1916602001820160405280156121005781602001600182028036833780820191505090505b5090505b600085146121b357600182612119919061445c565b9150600a856121289190614641565b6030612134919061437b565b60f81b818381518110612170577f4e487b7100000000000000000000000000000000000000000000000000000000600052603260045260246000fd5b60200101907effffffffffffffffffffffffffffffffffffffffffffffffffffffffffffff1916908160001a905350600a856121ac91906143d1565b9450612104565b8093505050505b919050565b6121d98282604051806020016040528060008152506126c7565b5050565b6121e6826125a2565b612225576040517f08c379a000000000000000000000000000000000000000000000000000000000815260040161221c906140b5565b60405180910390fd5b80600e6000848152602001908152602001600020908051906020019061224c9291906133e2565b505050565b612259612722565b6001600860006101000a81548160ff0219169083151502179055507f62e78cea01bee320cd4e420270b5ea74000d11b0c9f74754ebdbfc544b05a25861229d611bb8565b6040516122aa9190613e88565b60405180910390a1565b8173ffffffffffffffffffffffffffffffffffffffff168373ffffffffffffffffffffffffffffffffffffffff161415612323576040517f08c379a000000000000000000000000000000000000000000000000000000000815260040161231a90614035565b60405180910390fd5b80600760008573ffffffffffffffffffffffffffffffffffffffff1673ffffffffffffffffffffffffffffffffffffffff16815260200190815260200160002060008473ffffffffffffffffffffffffffffffffffffffff1673ffffffffffffffffffffffffffffffffffffffff16815260200190815260200160002060006101000a81548160ff0219169083151502179055508173ffffffffffffffffffffffffffffffffffffffff168373ffffffffffffffffffffffffffffffffffffffff167f17307eab39ab6107e8899845ad3d59bd9653f200f220920489ca2b5937696c31836040516124149190613f18565b60405180910390a3505050565b61242c848484611d0e565b6124388484848461276c565b612477576040517f08c379a000000000000000000000000000000000000000000000000000000000815260040161246e90613f95565b60405180910390fd5b50505050565b606061248882611b6d565b6000600e600084815260200190815260200160002080546124a89061456b565b80601f01602080910402602001604051908101604052809291908181526020018280546124d49061456b565b80156125215780601f106124f657610100808354040283529160200191612521565b820191906000526020600020905b81548152906001019060200180831161250457829003601f168201915b505050505090506000612532612903565b905060008151141561254857819250505061258b565b60008251111561257d578082604051602001612565929190613e28565b6040516020818303038152906040529250505061258b565b61258684612995565b925050505b919050565b600061259b826129fd565b9050919050565b60008073ffffffffffffffffffffffffffffffffffffffff166004600084815260200190815260200160002060009054906101000a900473ffffffffffffffffffffffffffffffffffffffff1673ffffffffffffffffffffffffffffffffffffffff1614159050919050565b612616612722565b612621838383612adf565b505050565b505050565b6126336111bb565b612672576040517f08c379a000000000000000000000000000000000000000000000000000000000815260040161266990613f55565b60405180910390fd5b565b61267d81612bf3565b6000600e6000838152602001908152602001600020805461269d9061456b565b9050146126c457600e600082815260200190815260200160002060006126c39190613468565b5b50565b6126d18383612c08565b6126de600084848461276c565b61271d576040517f08c379a000000000000000000000000000000000000000000000000000000000815260040161271490613f95565b60405180910390fd5b505050565b61272a6111bb565b1561276a576040517f08c379a000000000000000000000000000000000000000000000000000000000815260040161276190614075565b60405180910390fd5b565b600061278d8473ffffffffffffffffffffffffffffffffffffffff16612de2565b156128f6578373ffffffffffffffffffffffffffffffffffffffff1663150b7a026127b6611bb8565b8786866040518563ffffffff1660e01b81526004016127d89493929190613ea3565b602060405180830381600087803b1580156127f257600080fd5b505af192505050801561282357506040513d601f19601f82011682018060405250810190612820919061381f565b60015b6128a6573d8060008114612853576040519150601f19603f3d011682016040523d82523d6000602084013e612858565b606091505b5060008151141561289e576040517f08c379a000000000000000000000000000000000000000000000000000000000815260040161289590613f95565b60405180910390fd5b805181602001fd5b63150b7a0260e01b7bffffffffffffffffffffffffffffffffffffffffffffffffffffffff1916817bffffffffffffffffffffffffffffffffffffffffffffffffffffffff1916149150506128fb565b600190505b949350505050565b6060601180546129129061456b565b80601f016020809104026020016040519081016040528092919081815260200182805461293e9061456b565b801561298b5780601f106129605761010080835404028352916020019161298b565b820191906000526020600020905b81548152906001019060200180831161296e57829003601f168201915b5050505050905090565b60606129a082611b6d565b60006129aa612903565b905060008151116129ca57604051806020016040528060008152506129f5565b806129d484612012565b6040516020016129e5929190613e28565b6040516020818303038152906040525b915050919050565b60007f80ac58cd000000000000000000000000000000000000000000000000000000007bffffffffffffffffffffffffffffffffffffffffffffffffffffffff1916827bffffffffffffffffffffffffffffffffffffffffffffffffffffffff19161480612ac857507f5b5e139f000000000000000000000000000000000000000000000000000000007bffffffffffffffffffffffffffffffffffffffffffffffffffffffff1916827bffffffffffffffffffffffffffffffffffffffffffffffffffffffff1916145b80612ad85750612ad782612e05565b5b9050919050565b612aea838383612e7f565b600073ffffffffffffffffffffffffffffffffffffffff168373ffffffffffffffffffffffffffffffffffffffff161415612b2d57612b2881612e84565b612b6c565b8173ffffffffffffffffffffffffffffffffffffffff168373ffffffffffffffffffffffffffffffffffffffff1614612b6b57612b6a8382612ecd565b5b5b600073ffffffffffffffffffffffffffffffffffffffff168273ffffffffffffffffffffffffffffffffffffffff161415612baf57612baa8161303a565b612bee565b8273ffffffffffffffffffffffffffffffffffffffff168273ffffffffffffffffffffffffffffffffffffffff1614612bed57612bec828261317d565b5b5b505050565b612bfc816131fc565b612c0581613319565b50565b600073ffffffffffffffffffffffffffffffffffffffff168273ffffffffffffffffffffffffffffffffffffffff161415612c78576040517f08c379a0000000000000000000000000000000000000000000000000000000008152600401612c6f906140f5565b60405180910390fd5b612c81816125a2565b15612cc1576040517f08c379a0000000000000000000000000000000000000000000000000000000008152600401612cb890613ff5565b60405180910390fd5b612ccd6000838361260e565b6001600560008473ffffffffffffffffffffffffffffffffffffffff1673ffffffffffffffffffffffffffffffffffffffff1681526020019081526020016000206000828254612d1d919061437b565b92505081905550816004600083815260200190815260200160002060006101000a81548173ffffffffffffffffffffffffffffffffffffffff021916908373ffffffffffffffffffffffffffffffffffffffff160217905550808273ffffffffffffffffffffffffffffffffffffffff16600073ffffffffffffffffffffffffffffffffffffffff167fddf252ad1be2c89b69c2b068fc378daa952ba7f163c4a11628f55a4df523b3ef60405160405180910390a4612dde60008383612626565b5050565b6000808273ffffffffffffffffffffffffffffffffffffffff163b119050919050565b60007f2a55205a000000000000000000000000000000000000000000000000000000007bffffffffffffffffffffffffffffffffffffffffffffffffffffffff1916827bffffffffffffffffffffffffffffffffffffffffffffffffffffffff19161480612e785750612e7782613378565b5b9050919050565b505050565b600c80549050600d600083815260200190815260200160002081905550600c81908060018154018082558091505060019003906000526020600020016000909190919091505550565b60006001612eda84611337565b612ee4919061445c565b90506000600b6000848152602001908152602001600020549050818114612fc9576000600a60008673ffffffffffffffffffffffffffffffffffffffff1673ffffffffffffffffffffffffffffffffffffffff168152602001908152602001600020600084815260200190815260200160002054905080600a60008773ffffffffffffffffffffffffffffffffffffffff1673ffffffffffffffffffffffffffffffffffffffff16815260200190815260200160002060008481526020019081526020016000208190555081600b600083815260200190815260200160002081905550505b600b600084815260200190815260200160002060009055600a60008573ffffffffffffffffffffffffffffffffffffffff1673ffffffffffffffffffffffffffffffffffffffff16815260200190815260200160002060008381526020019081526020016000206000905550505050565b60006001600c8054905061304e919061445c565b90506000600d60008481526020019081526020016000205490506000600c83815481106130a4577f4e487b7100000000000000000000000000000000000000000000000000000000600052603260045260246000fd5b9060005260206000200154905080600c83815481106130ec577f4e487b7100000000000000000000000000000000000000000000000000000000600052603260045260246000fd5b906000526020600020018190555081600d600083815260200190815260200160002081905550600d600085815260200190815260200160002060009055600c805480613161577f4e487b7100000000000000000000000000000000000000000000000000000000600052603160045260246000fd5b6001900381819060005260206000200160009055905550505050565b600061318883611337565b905081600a60008573ffffffffffffffffffffffffffffffffffffffff1673ffffffffffffffffffffffffffffffffffffffff16815260200190815260200160002060008381526020019081526020016000208190555080600b600084815260200190815260200160002081905550505050565b6000613207826111d2565b90506132158160008461260e565b613220600083611bc0565b6001600560008373ffffffffffffffffffffffffffffffffffffffff1673ffffffffffffffffffffffffffffffffffffffff1681526020019081526020016000206000828254613270919061445c565b925050819055506004600083815260200190815260200160002060006101000a81549073ffffffffffffffffffffffffffffffffffffffff021916905581600073ffffffffffffffffffffffffffffffffffffffff168273ffffffffffffffffffffffffffffffffffffffff167fddf252ad1be2c89b69c2b068fc378daa952ba7f163c4a11628f55a4df523b3ef60405160405180910390a461331581600084612626565b5050565b60016000828152602001908152602001600020600080820160006101000a81549073ffffffffffffffffffffffffffffffffffffffff02191690556000820160146101000a8154906bffffffffffffffffffffffff0219169055505050565b60007f01ffc9a7000000000000000000000000000000000000000000000000000000007bffffffffffffffffffffffffffffffffffffffffffffffffffffffff1916827bffffffffffffffffffffffffffffffffffffffffffffffffffffffff1916149050919050565b8280546133ee9061456b565b90600052602060002090601f0160209004810192826134105760008555613457565b82601f1061342957805160ff1916838001178555613457565b82800160010185558215613457579182015b8281111561345657825182559160200191906001019061343b565b5b50905061346491906134a8565b5090565b5080546134749061456b565b6000825580601f1061348657506134a5565b601f0160209004906000526020600020908101906134a491906134a8565b5b50565b5b808211156134c15760008160009055506001016134a9565b5090565b60006134d86134d3846142c1565b61429c565b9050828152602081018484840111156134f057600080fd5b6134fb848285614529565b509392505050565b6000613516613511846142f2565b61429c565b90508281526020810184848401111561352e57600080fd5b613539848285614529565b509392505050565b60008135905061355081614cdf565b92915050565b60008135905061356581614cf6565b92915050565b60008135905061357a81614d0d565b92915050565b60008151905061358f81614d0d565b92915050565b600082601f8301126135a657600080fd5b81356135b68482602086016134c5565b91505092915050565b600082601f8301126135d057600080fd5b81356135e0848260208601613503565b91505092915050565b6000813590506135f881614d24565b92915050565b60008135905061360d81614d3b565b92915050565b60006020828403121561362557600080fd5b600061363384828501613541565b91505092915050565b6000806040838503121561364f57600080fd5b600061365d85828601613541565b925050602061366e85828601613541565b9150509250929050565b60008060006060848603121561368d57600080fd5b600061369b86828701613541565b93505060206136ac86828701613541565b92505060406136bd868287016135e9565b9150509250925092565b600080600080608085870312156136dd57600080fd5b60006136eb87828801613541565b94505060206136fc87828801613541565b935050604061370d878288016135e9565b925050606085013567ffffffffffffffff81111561372a57600080fd5b61373687828801613595565b91505092959194509250565b6000806040838503121561375557600080fd5b600061376385828601613541565b925050602061377485828601613556565b9150509250929050565b6000806040838503121561379157600080fd5b600061379f85828601613541565b92505060206137b0858286016135e9565b9150509250929050565b600080604083850312156137cd57600080fd5b60006137db85828601613541565b92505060206137ec858286016135fe565b9150509250929050565b60006020828403121561380857600080fd5b60006138168482850161356b565b91505092915050565b60006020828403121561383157600080fd5b600061383f84828501613580565b91505092915050565b60006020828403121561385a57600080fd5b600082013567ffffffffffffffff81111561387457600080fd5b613880848285016135bf565b91505092915050565b6000806040838503121561389c57600080fd5b600083013567ffffffffffffffff8111156138b657600080fd5b6138c2858286016135bf565b92505060206138d3858286016135e9565b9150509250929050565b6000602082840312156138ef57600080fd5b60006138fd848285016135e9565b91505092915050565b60008060006060848603121561391b57600080fd5b6000613929868287016135e9565b935050602061393a86828701613541565b925050604061394b868287016135e9565b9150509250925092565b6000806040838503121561396857600080fd5b6000613976858286016135e9565b9250506020613987858286016135e9565b9150509250929050565b61399a81614490565b82525050565b6139a9816144a2565b82525050565b60006139ba82614338565b6139c4818561434e565b93506139d4818560208601614538565b6139dd8161472e565b840191505092915050565b60006139f382614343565b6139fd818561435f565b9350613a0d818560208601614538565b613a168161472e565b840191505092915050565b6000613a2c82614343565b613a368185614370565b9350613a46818560208601614538565b80840191505092915050565b60008154613a5f8161456b565b613a698186614370565b94506001821660008114613a845760018114613a9557613ac8565b60ff19831686528186019350613ac8565b613a9e85614323565b60005b83811015613ac057815481890152600182019150602081019050613aa1565b838801955050505b50505092915050565b6000613ade60148361435f565b9150613ae98261473f565b602082019050919050565b6000613b01602b8361435f565b9150613b0c82614768565b604082019050919050565b6000613b2460328361435f565b9150613b2f826147b7565b604082019050919050565b6000613b4760268361435f565b9150613b5282614806565b604082019050919050565b6000613b6a60258361435f565b9150613b7582614855565b604082019050919050565b6000613b8d601c8361435f565b9150613b98826148a4565b602082019050919050565b6000613bb060248361435f565b9150613bbb826148cd565b604082019050919050565b6000613bd360198361435f565b9150613bde8261491c565b602082019050919050565b6000613bf660128361435f565b9150613c0182614945565b602082019050919050565b6000613c1960108361435f565b9150613c248261496e565b602082019050919050565b6000613c3c60298361435f565b9150613c4782614997565b604082019050919050565b6000613c5f602e8361435f565b9150613c6a826149e6565b604082019050919050565b6000613c82603e8361435f565b9150613c8d82614a35565b604082019050919050565b6000613ca560208361435f565b9150613cb082614a84565b602082019050919050565b6000613cc860208361435f565b9150613cd382614aad565b602082019050919050565b6000613ceb600d8361435f565b9150613cf682614ad6565b602082019050919050565b6000613d0e60188361435f565b9150613d1982614aff565b602082019050919050565b6000613d3160218361435f565b9150613d3c82614b28565b604082019050919050565b6000613d54600183614370565b9150613d5f82614b77565b600182019050919050565b6000613d77602c8361435f565b9150613d8282614ba0565b604082019050919050565b6000613d9a602a8361435f565b9150613da582614bef565b604082019050919050565b6000613dbd602e8361435f565b9150613dc882614c3e565b604082019050919050565b6000613de0601f8361435f565b9150613deb82614c8d565b602082019050919050565b6000613e0360198361435f565b9150613e0e82614cb6565b602082019050919050565b613e22816144fa565b82525050565b6000613e348285613a21565b9150613e408284613a21565b91508190509392505050565b6000613e588286613a52565b9150613e6382613d47565b9150613e6f8285613a21565b9150613e7b8284613a52565b9150819050949350505050565b6000602082019050613e9d6000830184613991565b92915050565b6000608082019050613eb86000830187613991565b613ec56020830186613991565b613ed26040830185613e19565b8181036060830152613ee481846139af565b905095945050505050565b6000604082019050613f046000830185613991565b613f116020830184613e19565b9392505050565b6000602082019050613f2d60008301846139a0565b92915050565b60006020820190508181036000830152613f4d81846139e8565b905092915050565b60006020820190508181036000830152613f6e81613ad1565b9050919050565b60006020820190508181036000830152613f8e81613af4565b9050919050565b60006020820190508181036000830152613fae81613b17565b9050919050565b60006020820190508181036000830152613fce81613b3a565b9050919050565b60006020820190508181036000830152613fee81613b5d565b9050919050565b6000602082019050818103600083015261400e81613b80565b9050919050565b6000602082019050818103600083015261402e81613ba3565b9050919050565b6000602082019050818103600083015261404e81613bc6565b9050919050565b6000602082019050818103600083015261406e81613be9565b9050919050565b6000602082019050818103600083015261408e81613c0c565b9050919050565b600060208201905081810360008301526140ae81613c2f565b9050919050565b600060208201905081810360008301526140ce81613c52565b9050919050565b600060208201905081810360008301526140ee81613c75565b9050919050565b6000602082019050818103600083015261410e81613c98565b9050919050565b6000602082019050818103600083015261412e81613cbb565b9050919050565b6000602082019050818103600083015261414e81613cde565b9050919050565b6000602082019050818103600083015261416e81613d01565b9050919050565b6000602082019050818103600083015261418e81613d24565b9050919050565b600060208201905081810360008301526141ae81613d6a565b9050919050565b600060208201905081810360008301526141ce81613d8d565b9050919050565b600060208201905081810360008301526141ee81613db0565b9050919050565b6000602082019050818103600083015261420e81613dd3565b9050919050565b6000602082019050818103600083015261422e81613df6565b9050919050565b600060208201905061424a6000830184613e19565b92915050565b60006080820190506142656000830187613e19565b6142726020830186613e19565b818103604083015261428481856139e8565b90506142936060830184613e19565b95945050505050565b60006142a66142b7565b90506142b2828261459d565b919050565b6000604051905090565b600067ffffffffffffffff8211156142dc576142db6146ff565b5b6142e58261472e565b9050602081019050919050565b600067ffffffffffffffff82111561430d5761430c6146ff565b5b6143168261472e565b9050602081019050919050565b60008190508160005260206000209050919050565b600081519050919050565b600081519050919050565b600082825260208201905092915050565b600082825260208201905092915050565b600081905092915050565b6000614386826144fa565b9150614391836144fa565b9250827fffffffffffffffffffffffffffffffffffffffffffffffffffffffffffffffff038211156143c6576143c5614672565b5b828201905092915050565b60006143dc826144fa565b91506143e7836144fa565b9250826143f7576143f66146a1565b5b828204905092915050565b600061440d826144fa565b9150614418836144fa565b9250817fffffffffffffffffffffffffffffffffffffffffffffffffffffffffffffffff048311821515161561445157614450614672565b5b828202905092915050565b6000614467826144fa565b9150614472836144fa565b92508282101561448557614484614672565b5b828203905092915050565b600061449b826144da565b9050919050565b60008115159050919050565b60007fffffffff0000000000000000000000000000000000000000000000000000000082169050919050565b600073ffffffffffffffffffffffffffffffffffffffff82169050919050565b6000819050919050565b600060ff82169050919050565b60006bffffffffffffffffffffffff82169050919050565b82818337600083830152505050565b60005b8381101561455657808201518184015260208101905061453b565b83811115614565576000848401525b50505050565b6000600282049050600182168061458357607f821691505b60208210811415614597576145966146d0565b5b50919050565b6145a68261472e565b810181811067ffffffffffffffff821117156145c5576145c46146ff565b5b80604052505050565b60006145d9826144fa565b91507fffffffffffffffffffffffffffffffffffffffffffffffffffffffffffffffff82141561460c5761460b614672565b5b600182019050919050565b600061462282614504565b915060ff82141561463657614635614672565b5b600182019050919050565b600061464c826144fa565b9150614657836144fa565b925082614667576146666146a1565b5b828206905092915050565b7f4e487b7100000000000000000000000000000000000000000000000000000000600052601160045260246000fd5b7f4e487b7100000000000000000000000000000000000000000000000000000000600052601260045260246000fd5b7f4e487b7100000000000000000000000000000000000000000000000000000000600052602260045260246000fd5b7f4e487b7100000000000000000000000000000000000000000000000000000000600052604160045260246000fd5b6000601f19601f8301169050919050565b7f5061757361626c653a206e6f7420706175736564000000000000000000000000600082015250565b7f455243373231456e756d657261626c653a206f776e657220696e646578206f7560008201527f74206f6620626f756e6473000000000000000000000000000000000000000000602082015250565b7f4552433732313a207472616e7366657220746f206e6f6e20455243373231526560008201527f63656976657220696d706c656d656e7465720000000000000000000000000000602082015250565b7f4f776e61626c653a206e6577206f776e657220697320746865207a65726f206160008201527f6464726573730000000000000000000000000000000000000000000000000000602082015250565b7f4552433732313a207472616e736665722066726f6d20696e636f72726563742060008201527f6f776e6572000000000000000000000000000000000000000000000000000000602082015250565b7f4552433732313a20746f6b656e20616c7265616479206d696e74656400000000600082015250565b7f4552433732313a207472616e7366657220746f20746865207a65726f2061646460008201527f7265737300000000000000000000000000000000000000000000000000000000602082015250565b7f4552433732313a20617070726f766520746f2063616c6c657200000000000000600082015250565b7f4e6f7420656e6f7567682062616c616e63650000000000000000000000000000600082015250565b7f5061757361626c653a2070617573656400000000000000000000000000000000600082015250565b7f4552433732313a2061646472657373207a65726f206973206e6f74206120766160008201527f6c6964206f776e65720000000000000000000000000000000000000000000000602082015250565b7f45524337323155524953746f726167653a2055524920736574206f66206e6f6e60008201527f6578697374656e7420746f6b656e000000000000000000000000000000000000602082015250565b7f4552433732313a20617070726f76652063616c6c6572206973206e6f7420746f60008201527f6b656e206f776e6572206e6f7220617070726f76656420666f7220616c6c0000602082015250565b7f4552433732313a206d696e7420746f20746865207a65726f2061646472657373600082015250565b7f4f776e61626c653a2063616c6c6572206973206e6f7420746865206f776e6572600082015250565b7f4f7574206f6620737570706c7900000000000000000000000000000000000000600082015250565b7f4552433732313a20696e76616c696420746f6b656e2049440000000000000000600082015250565b7f4552433732313a20617070726f76616c20746f2063757272656e74206f776e6560008201527f7200000000000000000000000000000000000000000000000000000000000000602082015250565b7f5f00000000000000000000000000000000000000000000000000000000000000600082015250565b7f455243373231456e756d657261626c653a20676c6f62616c20696e646578206f60008201527f7574206f6620626f756e64730000000000000000000000000000000000000000602082015250565b7f455243323938313a20726f79616c7479206665652077696c6c2065786365656460008201527f2073616c65507269636500000000000000000000000000000000000000000000602082015250565b7f4552433732313a2063616c6c6572206973206e6f7420746f6b656e206f776e6560008201527f72206e6f7220617070726f766564000000000000000000000000000000000000602082015250565b7f5265656e7472616e637947756172643a207265656e7472616e742063616c6c00600082015250565b7f455243323938313a20696e76616c696420726563656976657200000000000000600082015250565b614ce881614490565b8114614cf357600080fd5b50565b614cff816144a2565b8114614d0a57600080fd5b50565b614d16816144ae565b8114614d2157600080fd5b50565b614d2d816144fa565b8114614d3857600080fd5b50565b614d4481614511565b8114614d4f57600080fd5b5056fe68747470733a2f2f676174657761792e70696e6174612e636c6f75642f697066732f516d4e75665772654c68377766344c6561743270787a6739326d5169364d36636a573736377061666f445343684a2fa26469706673582212207019c9827d0c10acf1df15cc7e6c1e77d860993bfc5f72d1801d294e5056859664736f6c6343000804003368747470733a2f2f676174657761792e70696e6174612e636c6f75642f697066732f516d4e56744846714265514475356769796339727a7841507a5235796875757732686f47764679504252645278752f",
  "linkReferences": {},
  "deployedLinkReferences": {}
}